{
  "_format": "hh-sol-artifact-1",
  "contractName": "Jukebox",
  "sourceName": "contracts/Jukebox.sol",
  "abi": [
    {
      "inputs": [
        {
          "internalType": "address",
          "name": "implementation__721",
          "type": "address"
        },
        {
          "internalType": "address",
          "name": "implementation__1155",
          "type": "address"
        }
      ],
      "stateMutability": "nonpayable",
      "type": "constructor"
    },
    {
      "anonymous": false,
      "inputs": [
        {
          "indexed": true,
          "internalType": "address",
          "name": "previousOwner",
          "type": "address"
        },
        {
          "indexed": true,
          "internalType": "address",
          "name": "newOwner",
          "type": "address"
        }
      ],
      "name": "OwnershipTransferred",
      "type": "event"
    },
    {
      "anonymous": false,
      "inputs": [
        {
          "indexed": false,
          "internalType": "address",
          "name": "record__721",
          "type": "address"
        },
        {
          "indexed": false,
          "internalType": "address",
          "name": "record__1155",
          "type": "address"
        }
      ],
      "name": "RecordPressed",
      "type": "event"
    },
    {
      "anonymous": false,
      "inputs": [
        {
          "indexed": false,
          "internalType": "address",
          "name": "record",
          "type": "address"
        }
      ],
      "name": "RecordPressed__1155",
      "type": "event"
    },
    {
      "anonymous": false,
      "inputs": [
        {
          "indexed": false,
          "internalType": "address",
          "name": "record",
          "type": "address"
        }
      ],
      "name": "RecordPressed__721",
      "type": "event"
    },
    {
      "inputs": [
        {
          "internalType": "uint256",
          "name": "",
          "type": "uint256"
        }
      ],
      "name": "catalog",
      "outputs": [
        {
          "internalType": "address",
          "name": "__721",
          "type": "address"
        },
        {
          "internalType": "address",
          "name": "__1155",
          "type": "address"
        },
        {
          "internalType": "address payable",
          "name": "creator",
          "type": "address"
        },
        {
          "internalType": "address payable",
          "name": "charity",
          "type": "address"
        },
        {
          "internalType": "uint256",
          "name": "ltdSupply",
          "type": "uint256"
        },
        {
          "internalType": "uint256",
          "name": "ltdMinters",
          "type": "uint256"
        },
        {
          "internalType": "uint256",
          "name": "charityRoyalty",
          "type": "uint256"
        },
        {
          "internalType": "uint256",
          "name": "mintersRoyalty",
          "type": "uint256"
        },
        {
          "internalType": "uint256",
          "name": "jukeboxRoyalty",
          "type": "uint256"
        },
        {
          "internalType": "uint256",
          "name": "revenue__721",
          "type": "uint256"
        },
        {
          "internalType": "uint256",
          "name": "revenue__1155",
          "type": "uint256"
        }
      ],
      "stateMutability": "view",
      "type": "function"
    },
    {
      "inputs": [
        {
          "internalType": "uint256",
          "name": "",
          "type": "uint256"
        }
      ],
      "name": "catalog__1155",
      "outputs": [
        {
          "internalType": "address",
          "name": "",
          "type": "address"
        }
      ],
      "stateMutability": "view",
      "type": "function"
    },
    {
      "inputs": [
        {
          "internalType": "uint256",
          "name": "",
          "type": "uint256"
        }
      ],
      "name": "catalog__721",
      "outputs": [
        {
          "internalType": "address",
          "name": "",
          "type": "address"
        }
      ],
      "stateMutability": "view",
      "type": "function"
    },
    {
      "inputs": [
        {
          "internalType": "address[]",
          "name": "records",
          "type": "address[]"
        }
      ],
      "name": "distributeRevenue",
      "outputs": [],
      "stateMutability": "nonpayable",
      "type": "function"
    },
    {
      "inputs": [],
      "name": "getCatalog",
      "outputs": [
        {
          "components": [
            {
              "internalType": "address",
              "name": "__721",
              "type": "address"
            },
            {
              "internalType": "address",
              "name": "__1155",
              "type": "address"
            },
            {
              "internalType": "address payable",
              "name": "creator",
              "type": "address"
            },
            {
              "internalType": "address payable",
              "name": "charity",
              "type": "address"
            },
            {
              "internalType": "uint256",
              "name": "ltdSupply",
              "type": "uint256"
            },
            {
              "internalType": "uint256",
              "name": "ltdMinters",
              "type": "uint256"
            },
            {
              "internalType": "uint256",
              "name": "charityRoyalty",
              "type": "uint256"
            },
            {
              "internalType": "uint256",
              "name": "mintersRoyalty",
              "type": "uint256"
            },
            {
              "internalType": "uint256",
              "name": "jukeboxRoyalty",
              "type": "uint256"
            },
            {
              "internalType": "uint256",
              "name": "revenue__721",
              "type": "uint256"
            },
            {
              "internalType": "uint256",
              "name": "revenue__1155",
              "type": "uint256"
            }
          ],
          "internalType": "struct Jukebox.Record[]",
          "name": "",
          "type": "tuple[]"
        }
      ],
      "stateMutability": "view",
      "type": "function"
    },
    {
      "inputs": [
        {
          "internalType": "address",
          "name": "recordAddr",
          "type": "address"
        }
      ],
      "name": "getRecord",
      "outputs": [
        {
          "components": [
            {
              "internalType": "address",
              "name": "__721",
              "type": "address"
            },
            {
              "internalType": "address",
              "name": "__1155",
              "type": "address"
            },
            {
              "internalType": "address payable",
              "name": "creator",
              "type": "address"
            },
            {
              "internalType": "address payable",
              "name": "charity",
              "type": "address"
            },
            {
              "internalType": "uint256",
              "name": "ltdSupply",
              "type": "uint256"
            },
            {
              "internalType": "uint256",
              "name": "ltdMinters",
              "type": "uint256"
            },
            {
              "internalType": "uint256",
              "name": "charityRoyalty",
              "type": "uint256"
            },
            {
              "internalType": "uint256",
              "name": "mintersRoyalty",
              "type": "uint256"
            },
            {
              "internalType": "uint256",
              "name": "jukeboxRoyalty",
              "type": "uint256"
            },
            {
              "internalType": "uint256",
              "name": "revenue__721",
              "type": "uint256"
            },
            {
              "internalType": "uint256",
              "name": "revenue__1155",
              "type": "uint256"
            }
          ],
          "internalType": "struct Jukebox.Record",
          "name": "",
          "type": "tuple"
        }
      ],
      "stateMutability": "view",
      "type": "function"
    },
    {
      "inputs": [
        {
          "internalType": "address",
          "name": "recordAddr",
          "type": "address"
        }
      ],
      "name": "mintRecord",
      "outputs": [],
      "stateMutability": "payable",
      "type": "function"
    },
    {
      "inputs": [
        {
          "internalType": "address",
          "name": "",
          "type": "address"
        },
        {
          "internalType": "uint256",
          "name": "",
          "type": "uint256"
        }
      ],
      "name": "minters",
      "outputs": [
        {
          "internalType": "address",
          "name": "",
          "type": "address"
        }
      ],
      "stateMutability": "view",
      "type": "function"
    },
    {
      "inputs": [],
      "name": "owner",
      "outputs": [
        {
          "internalType": "address",
          "name": "",
          "type": "address"
        }
      ],
      "stateMutability": "view",
      "type": "function"
    },
    {
      "inputs": [
        {
          "internalType": "string",
          "name": "name",
          "type": "string"
        },
        {
          "internalType": "string",
          "name": "symbol",
          "type": "string"
        },
        {
          "internalType": "string",
          "name": "uri",
          "type": "string"
        },
        {
          "internalType": "uint256",
          "name": "ltdSupply",
          "type": "uint256"
        },
        {
          "internalType": "uint256",
          "name": "ltdPrice",
          "type": "uint256"
        },
        {
          "internalType": "uint256",
          "name": "price",
          "type": "uint256"
        },
        {
          "internalType": "address",
          "name": "charity",
          "type": "address"
        },
        {
          "internalType": "uint256",
          "name": "charityRoyalty",
          "type": "uint256"
        },
        {
          "internalType": "uint256",
          "name": "mintersRoyalty",
          "type": "uint256"
        },
        {
          "internalType": "uint256",
          "name": "jukeboxRoyalty",
          "type": "uint256"
        }
      ],
      "name": "pressRecord",
      "outputs": [],
      "stateMutability": "nonpayable",
      "type": "function"
    },
    {
      "inputs": [
        {
          "internalType": "string",
          "name": "name",
          "type": "string"
        },
        {
          "internalType": "string",
          "name": "symbol",
          "type": "string"
        },
        {
          "internalType": "string",
          "name": "uri",
          "type": "string"
        },
        {
          "internalType": "uint256",
          "name": "price",
          "type": "uint256"
        }
      ],
      "name": "press__1155",
      "outputs": [
        {
          "internalType": "address",
          "name": "record",
          "type": "address"
        }
      ],
      "stateMutability": "nonpayable",
      "type": "function"
    },
    {
      "inputs": [
        {
          "internalType": "string",
          "name": "name",
          "type": "string"
        },
        {
          "internalType": "string",
          "name": "symbol",
          "type": "string"
        },
        {
          "internalType": "string",
          "name": "uri",
          "type": "string"
        },
        {
          "internalType": "uint256",
          "name": "maxSupply",
          "type": "uint256"
        },
        {
          "internalType": "uint256",
          "name": "price",
          "type": "uint256"
        }
      ],
      "name": "press__721",
      "outputs": [
        {
          "internalType": "address",
          "name": "record",
          "type": "address"
        }
      ],
      "stateMutability": "nonpayable",
      "type": "function"
    },
    {
      "inputs": [
        {
          "internalType": "address",
          "name": "",
          "type": "address"
        }
      ],
      "name": "recordIndex",
      "outputs": [
        {
          "internalType": "uint256",
          "name": "",
          "type": "uint256"
        }
      ],
      "stateMutability": "view",
      "type": "function"
    },
    {
      "inputs": [],
      "name": "record__1155",
      "outputs": [
        {
          "internalType": "address",
          "name": "",
          "type": "address"
        }
      ],
      "stateMutability": "view",
      "type": "function"
    },
    {
      "inputs": [],
      "name": "record__721",
      "outputs": [
        {
          "internalType": "address",
          "name": "",
          "type": "address"
        }
      ],
      "stateMutability": "view",
      "type": "function"
    },
    {
      "inputs": [],
      "name": "renounceOwnership",
      "outputs": [],
      "stateMutability": "nonpayable",
      "type": "function"
    },
    {
      "inputs": [
        {
          "internalType": "address",
          "name": "newOwner",
          "type": "address"
        }
      ],
      "name": "transferOwnership",
      "outputs": [],
      "stateMutability": "nonpayable",
      "type": "function"
    }
  ],
  "bytecode": "0x60806040523480156200001157600080fd5b50604051620034f3380380620034f38339818101604052810190620000379190620001c4565b620000576200004b620000e160201b60201c565b620000e960201b60201c565b81600160006101000a81548173ffffffffffffffffffffffffffffffffffffffff021916908373ffffffffffffffffffffffffffffffffffffffff16021790555080600260006101000a81548173ffffffffffffffffffffffffffffffffffffffff021916908373ffffffffffffffffffffffffffffffffffffffff160217905550505062000253565b600033905090565b60008060009054906101000a900473ffffffffffffffffffffffffffffffffffffffff169050816000806101000a81548173ffffffffffffffffffffffffffffffffffffffff021916908373ffffffffffffffffffffffffffffffffffffffff1602179055508173ffffffffffffffffffffffffffffffffffffffff168173ffffffffffffffffffffffffffffffffffffffff167f8be0079c531659141344cd1fd0a4f28419497f9722a3daafe3b4186f6b6457e060405160405180910390a35050565b600081519050620001be8162000239565b92915050565b60008060408385031215620001d857600080fd5b6000620001e885828601620001ad565b9250506020620001fb85828601620001ad565b9150509250929050565b6000620002128262000219565b9050919050565b600073ffffffffffffffffffffffffffffffffffffffff82169050919050565b620002448162000205565b81146200025057600080fd5b50565b61329080620002636000396000f3fe6080604052600436106100fe5760003560e01c8063750191b311610095578063c0bf3e2311610064578063c0bf3e231461034e578063ddbe372b14610379578063ea5de25b146103a2578063f2fde38b146103e9578063f7e9c1a514610412576100fe565b8063750191b31461026c57806378746d0d146102a95780638da5cb5b146102e65780639a1ce92314610311576100fe565b80634bcf3938116100d15780634bcf3938146101b2578063617fba04146101db578063715018a614610218578063735dee371461022f576100fe565b806302321884146101035780632e4a745d1461012e5780633074d7541461016b578063494415b614610187575b600080fd5b34801561010f57600080fd5b5061011861044f565b60405161012591906129b5565b60405180910390f35b34801561013a57600080fd5b5061015560048036038101906101509190612522565b610475565b60405161016291906129b5565b60405180910390f35b610185600480360381019061018091906121ef565b6104b4565b005b34801561019357600080fd5b5061019c6109cb565b6040516101a991906129b5565b60405180910390f35b3480156101be57600080fd5b506101d960048036038101906101d491906123ff565b6109f1565b005b3480156101e757600080fd5b5061020260048036038101906101fd91906121ef565b610d3c565b60405161020f9190612c91565b60405180910390f35b34801561022457600080fd5b5061022d610f7c565b005b34801561023b57600080fd5b5061025660048036038101906102519190612295565b611004565b60405161026391906129b5565b60405180910390f35b34801561027857600080fd5b50610293600480360381019061028e9190612522565b6111e0565b6040516102a091906129b5565b60405180910390f35b3480156102b557600080fd5b506102d060048036038101906102cb9190612218565b61121f565b6040516102dd91906129b5565b60405180910390f35b3480156102f257600080fd5b506102fb61126d565b60405161030891906129b5565b60405180910390f35b34801561031d57600080fd5b5061033860048036038101906103339190612340565b611296565b60405161034591906129b5565b60405180910390f35b34801561035a57600080fd5b50610363611475565b6040516103709190612acd565b60405180910390f35b34801561038557600080fd5b506103a0600480360381019061039b9190612254565b611673565b005b3480156103ae57600080fd5b506103c960048036038101906103c49190612522565b611c65565b6040516103e09b9a999897969594939291906129f9565b60405180910390f35b3480156103f557600080fd5b50610410600480360381019061040b91906121ef565b611d4f565b005b34801561041e57600080fd5b50610439600480360381019061043491906121ef565b611e47565b6040516104469190612cad565b60405180910390f35b600260009054906101000a900473ffffffffffffffffffffffffffffffffffffffff1681565b6004818154811061048557600080fd5b906000526020600020016000915054906101000a900473ffffffffffffffffffffffffffffffffffffffff1681565b6005600660008373ffffffffffffffffffffffffffffffffffffffff1673ffffffffffffffffffffffffffffffffffffffff168152602001908152602001600020548154811061052d577f4e487b7100000000000000000000000000000000000000000000000000000000600052603260045260246000fd5b90600052602060002090600b020160000160009054906101000a900473ffffffffffffffffffffffffffffffffffffffff1673ffffffffffffffffffffffffffffffffffffffff168173ffffffffffffffffffffffffffffffffffffffff16141561077a57346005600660008473ffffffffffffffffffffffffffffffffffffffff1673ffffffffffffffffffffffffffffffffffffffff168152602001908152602001600020548154811061060c577f4e487b7100000000000000000000000000000000000000000000000000000000600052603260045260246000fd5b90600052602060002090600b0201600901600082825461062c9190612db5565b9250508190555060016005600660008473ffffffffffffffffffffffffffffffffffffffff1673ffffffffffffffffffffffffffffffffffffffff16815260200190815260200160002054815481106106ae577f4e487b7100000000000000000000000000000000000000000000000000000000600052603260045260246000fd5b90600052602060002090600b020160050160008282546106ce9190612db5565b92505081905550600760008273ffffffffffffffffffffffffffffffffffffffff1673ffffffffffffffffffffffffffffffffffffffff168152602001908152602001600020339080600181540180825580915050600190039060005260206000200160009091909190916101000a81548173ffffffffffffffffffffffffffffffffffffffff021916908373ffffffffffffffffffffffffffffffffffffffff16021790555061093a565b6005600660008373ffffffffffffffffffffffffffffffffffffffff1673ffffffffffffffffffffffffffffffffffffffff16815260200190815260200160002054815481106107f3577f4e487b7100000000000000000000000000000000000000000000000000000000600052603260045260246000fd5b90600052602060002090600b020160010160009054906101000a900473ffffffffffffffffffffffffffffffffffffffff1673ffffffffffffffffffffffffffffffffffffffff168173ffffffffffffffffffffffffffffffffffffffff1614156108fe57346005600660008473ffffffffffffffffffffffffffffffffffffffff1673ffffffffffffffffffffffffffffffffffffffff16815260200190815260200160002054815481106108d2577f4e487b7100000000000000000000000000000000000000000000000000000000600052603260045260246000fd5b90600052602060002090600b0201600a0160008282546108f29190612db5565b92505081905550610939565b6040517f08c379a000000000000000000000000000000000000000000000000000000000815260040161093090612c51565b60405180910390fd5b5b8073ffffffffffffffffffffffffffffffffffffffff166340c10f1933346040518363ffffffff1660e01b8152600401610975929190612aa4565b602060405180830381600087803b15801561098f57600080fd5b505af11580156109a3573d6000803e3d6000fd5b505050506040513d601f19601f820116820180604052508101906109c7919061254b565b5050565b600160009054906101000a900473ffffffffffffffffffffffffffffffffffffffff1681565b6000610a008b8b8b8b8b611296565b90506000610a108c8c8c8a611004565b905060056040518061016001604052808473ffffffffffffffffffffffffffffffffffffffff1681526020018373ffffffffffffffffffffffffffffffffffffffff1681526020013373ffffffffffffffffffffffffffffffffffffffff1681526020018873ffffffffffffffffffffffffffffffffffffffff1681526020018b81526020016000815260200187815260200186815260200185815260200160008152602001600081525090806001815401808255809150506001900390600052602060002090600b020160009091909190915060008201518160000160006101000a81548173ffffffffffffffffffffffffffffffffffffffff021916908373ffffffffffffffffffffffffffffffffffffffff16021790555060208201518160010160006101000a81548173ffffffffffffffffffffffffffffffffffffffff021916908373ffffffffffffffffffffffffffffffffffffffff16021790555060408201518160020160006101000a81548173ffffffffffffffffffffffffffffffffffffffff021916908373ffffffffffffffffffffffffffffffffffffffff16021790555060608201518160030160006101000a81548173ffffffffffffffffffffffffffffffffffffffff021916908373ffffffffffffffffffffffffffffffffffffffff1602179055506080820151816004015560a0820151816005015560c0820151816006015560e082015181600701556101008201518160080155610120820151816009015561014082015181600a015550506001600580549050610c5d9190612e96565b600660008473ffffffffffffffffffffffffffffffffffffffff1673ffffffffffffffffffffffffffffffffffffffff168152602001908152602001600020819055506001600580549050610cb29190612e96565b600660008373ffffffffffffffffffffffffffffffffffffffff1673ffffffffffffffffffffffffffffffffffffffff168152602001908152602001600020819055507f4ccbb2f04845b27a87373555c912e89e466603782c4c897f34f108843e2c0b718282604051610d269291906129d0565b60405180910390a1505050505050505050505050565b610d44612000565b6005600660008473ffffffffffffffffffffffffffffffffffffffff1673ffffffffffffffffffffffffffffffffffffffff1681526020019081526020016000205481548110610dbd577f4e487b7100000000000000000000000000000000000000000000000000000000600052603260045260246000fd5b90600052602060002090600b0201604051806101600160405290816000820160009054906101000a900473ffffffffffffffffffffffffffffffffffffffff1673ffffffffffffffffffffffffffffffffffffffff1673ffffffffffffffffffffffffffffffffffffffff1681526020016001820160009054906101000a900473ffffffffffffffffffffffffffffffffffffffff1673ffffffffffffffffffffffffffffffffffffffff1673ffffffffffffffffffffffffffffffffffffffff1681526020016002820160009054906101000a900473ffffffffffffffffffffffffffffffffffffffff1673ffffffffffffffffffffffffffffffffffffffff1673ffffffffffffffffffffffffffffffffffffffff1681526020016003820160009054906101000a900473ffffffffffffffffffffffffffffffffffffffff1673ffffffffffffffffffffffffffffffffffffffff1673ffffffffffffffffffffffffffffffffffffffff168152602001600482015481526020016005820154815260200160068201548152602001600782015481526020016008820154815260200160098201548152602001600a820154815250509050919050565b610f84611e5f565b73ffffffffffffffffffffffffffffffffffffffff16610fa261126d565b73ffffffffffffffffffffffffffffffffffffffff1614610ff8576040517f08c379a0000000000000000000000000000000000000000000000000000000008152600401610fef90612bf1565b60405180910390fd5b6110026000611e67565b565b6000611031600260009054906101000a900473ffffffffffffffffffffffffffffffffffffffff16611f2b565b905060008173ffffffffffffffffffffffffffffffffffffffff16868686866040516024016110639493929190612aef565b6040516020818303038152906040527f1c5d2b49000000000000000000000000000000000000000000000000000000007bffffffffffffffffffffffffffffffffffffffffffffffffffffffff19166020820180517bffffffffffffffffffffffffffffffffffffffffffffffffffffffff83818316178352505050506040516110ed9190612989565b6000604051808303816000865af19150503d806000811461112a576040519150601f19603f3d011682016040523d82523d6000602084013e61112f565b606091505b505090508061113d57600080fd5b6004829080600181540180825580915050600190039060005260206000200160009091909190916101000a81548173ffffffffffffffffffffffffffffffffffffffff021916908373ffffffffffffffffffffffffffffffffffffffff1602179055507f62c20f485c04ac8c3e5595fc1f2574acb36349232dd0618015ee3b417b24cb9d826040516111cf91906129b5565b60405180910390a150949350505050565b600381815481106111f057600080fd5b906000526020600020016000915054906101000a900473ffffffffffffffffffffffffffffffffffffffff1681565b6007602052816000526040600020818154811061123b57600080fd5b906000526020600020016000915091509054906101000a900473ffffffffffffffffffffffffffffffffffffffff1681565b60008060009054906101000a900473ffffffffffffffffffffffffffffffffffffffff16905090565b60006112c3600160009054906101000a900473ffffffffffffffffffffffffffffffffffffffff16611f2b565b905060008173ffffffffffffffffffffffffffffffffffffffff1687878787876040516024016112f7959493929190612b49565b6040516020818303038152906040527f80ddd09f000000000000000000000000000000000000000000000000000000007bffffffffffffffffffffffffffffffffffffffffffffffffffffffff19166020820180517bffffffffffffffffffffffffffffffffffffffffffffffffffffffff83818316178352505050506040516113819190612989565b6000604051808303816000865af19150503d80600081146113be576040519150601f19603f3d011682016040523d82523d6000602084013e6113c3565b606091505b50509050806113d157600080fd5b6003829080600181540180825580915050600190039060005260206000200160009091909190916101000a81548173ffffffffffffffffffffffffffffffffffffffff021916908373ffffffffffffffffffffffffffffffffffffffff1602179055507f5977599f84c7560300f76907ca57f2836924cfc767d2ad830b3d15ba7a380a888260405161146391906129b5565b60405180910390a15095945050505050565b60606005805480602002602001604051908101604052809291908181526020016000905b8282101561166a57838290600052602060002090600b0201604051806101600160405290816000820160009054906101000a900473ffffffffffffffffffffffffffffffffffffffff1673ffffffffffffffffffffffffffffffffffffffff1673ffffffffffffffffffffffffffffffffffffffff1681526020016001820160009054906101000a900473ffffffffffffffffffffffffffffffffffffffff1673ffffffffffffffffffffffffffffffffffffffff1673ffffffffffffffffffffffffffffffffffffffff1681526020016002820160009054906101000a900473ffffffffffffffffffffffffffffffffffffffff1673ffffffffffffffffffffffffffffffffffffffff1673ffffffffffffffffffffffffffffffffffffffff1681526020016003820160009054906101000a900473ffffffffffffffffffffffffffffffffffffffff1673ffffffffffffffffffffffffffffffffffffffff1673ffffffffffffffffffffffffffffffffffffffff168152602001600482015481526020016005820154815260200160068201548152602001600782015481526020016008820154815260200160098201548152602001600a8201548152505081526020019060010190611499565b50505050905090565b60005b8151811015611c615760008282815181106116ba577f4e487b7100000000000000000000000000000000000000000000000000000000600052603260045260246000fd5b6020026020010151905060006005600660008473ffffffffffffffffffffffffffffffffffffffff1673ffffffffffffffffffffffffffffffffffffffff168152602001908152602001600020548154811061173f577f4e487b7100000000000000000000000000000000000000000000000000000000600052603260045260246000fd5b90600052602060002090600b0201905060008160060154606483600901546117679190612e0b565b6117719190612e3c565b9050600082600801546064846009015461178b9190612e0b565b6117959190612e3c565b90506000818385600901546117aa9190612e96565b6117b49190612e96565b905060008460060154606486600a01546117ce9190612e0b565b6117d89190612e3c565b905060008560080154606487600a01546117f29190612e0b565b6117fc9190612e3c565b90506000818388600a01546118119190612e96565b61181b9190612e96565b90506000600760008960000160009054906101000a900473ffffffffffffffffffffffffffffffffffffffff1673ffffffffffffffffffffffffffffffffffffffff1673ffffffffffffffffffffffffffffffffffffffff16815260200190815260200160002080548060200260200160405190810160405280929190818152602001828054801561190257602002820191906000526020600020905b8160009054906101000a900473ffffffffffffffffffffffffffffffffffffffff1673ffffffffffffffffffffffffffffffffffffffff16815260200190600101908083116118b8575b5050505050905060008860040154896007015460648b600a01546119269190612e0b565b6119309190612e3c565b61193a9190612e0b565b9050600082518261194b9190612e3c565b9050600081858961195c9190612db5565b6119669190612e96565b90506000878b6119769190612db5565b905060008c600a018190555060008c6009018190555060008c60020160009054906101000a900473ffffffffffffffffffffffffffffffffffffffff1673ffffffffffffffffffffffffffffffffffffffff16836040516119d6906129a0565b60006040518083038185875af1925050503d8060008114611a13576040519150601f19603f3d011682016040523d82523d6000602084013e611a18565b606091505b5050905080611a5c576040517f08c379a0000000000000000000000000000000000000000000000000000000008152600401611a5390612c31565b60405180910390fd5b60008d60030160009054906101000a900473ffffffffffffffffffffffffffffffffffffffff1673ffffffffffffffffffffffffffffffffffffffff1683604051611aa6906129a0565b60006040518083038185875af1925050503d8060008114611ae3576040519150601f19603f3d011682016040523d82523d6000602084013e611ae8565b606091505b5050905080611b2c576040517f08c379a0000000000000000000000000000000000000000000000000000000008152600401611b2390612c71565b60405180910390fd5b60005b8751811015611c3e576000888281518110611b73577f4e487b7100000000000000000000000000000000000000000000000000000000600052603260045260246000fd5b6020026020010151905060008173ffffffffffffffffffffffffffffffffffffffff1689604051611ba3906129a0565b60006040518083038185875af1925050503d8060008114611be0576040519150601f19603f3d011682016040523d82523d6000602084013e611be5565b606091505b5050905080611c29576040517f08c379a0000000000000000000000000000000000000000000000000000000008152600401611c2090612c11565b60405180910390fd5b50508080611c3690612f8b565b915050611b2f565b505050505050505050505050505050508080611c5990612f8b565b915050611676565b5050565b60058181548110611c7557600080fd5b90600052602060002090600b02016000915090508060000160009054906101000a900473ffffffffffffffffffffffffffffffffffffffff16908060010160009054906101000a900473ffffffffffffffffffffffffffffffffffffffff16908060020160009054906101000a900473ffffffffffffffffffffffffffffffffffffffff16908060030160009054906101000a900473ffffffffffffffffffffffffffffffffffffffff169080600401549080600501549080600601549080600701549080600801549080600901549080600a015490508b565b611d57611e5f565b73ffffffffffffffffffffffffffffffffffffffff16611d7561126d565b73ffffffffffffffffffffffffffffffffffffffff1614611dcb576040517f08c379a0000000000000000000000000000000000000000000000000000000008152600401611dc290612bf1565b60405180910390fd5b600073ffffffffffffffffffffffffffffffffffffffff168173ffffffffffffffffffffffffffffffffffffffff161415611e3b576040517f08c379a0000000000000000000000000000000000000000000000000000000008152600401611e3290612bb1565b60405180910390fd5b611e4481611e67565b50565b60066020528060005260406000206000915090505481565b600033905090565b60008060009054906101000a900473ffffffffffffffffffffffffffffffffffffffff169050816000806101000a81548173ffffffffffffffffffffffffffffffffffffffff021916908373ffffffffffffffffffffffffffffffffffffffff1602179055508173ffffffffffffffffffffffffffffffffffffffff168173ffffffffffffffffffffffffffffffffffffffff167f8be0079c531659141344cd1fd0a4f28419497f9722a3daafe3b4186f6b6457e060405160405180910390a35050565b60006040517f3d602d80600a3d3981f3363d3d373d3d3d363d7300000000000000000000000081528260601b60148201527f5af43d82803e903d91602b57fd5bf3000000000000000000000000000000000060288201526037816000f0915050600073ffffffffffffffffffffffffffffffffffffffff168173ffffffffffffffffffffffffffffffffffffffff161415611ffb576040517f08c379a0000000000000000000000000000000000000000000000000000000008152600401611ff290612bd1565b60405180910390fd5b919050565b604051806101600160405280600073ffffffffffffffffffffffffffffffffffffffff168152602001600073ffffffffffffffffffffffffffffffffffffffff168152602001600073ffffffffffffffffffffffffffffffffffffffff168152602001600073ffffffffffffffffffffffffffffffffffffffff168152602001600081526020016000815260200160008152602001600081526020016000815260200160008152602001600081525090565b60006120c56120c084612ced565b612cc8565b905080838252602082019050828560208602820111156120e457600080fd5b60005b8581101561211457816120fa888261215c565b8452602084019350602083019250506001810190506120e7565b5050509392505050565b600061213161212c84612d19565b612cc8565b90508281526020810184848401111561214957600080fd5b612154848285612f18565b509392505050565b60008135905061216b8161322c565b92915050565b600082601f83011261218257600080fd5b81356121928482602086016120b2565b91505092915050565b600082601f8301126121ac57600080fd5b81356121bc84826020860161211e565b91505092915050565b6000813590506121d481613243565b92915050565b6000815190506121e981613243565b92915050565b60006020828403121561220157600080fd5b600061220f8482850161215c565b91505092915050565b6000806040838503121561222b57600080fd5b60006122398582860161215c565b925050602061224a858286016121c5565b9150509250929050565b60006020828403121561226657600080fd5b600082013567ffffffffffffffff81111561228057600080fd5b61228c84828501612171565b91505092915050565b600080600080608085870312156122ab57600080fd5b600085013567ffffffffffffffff8111156122c557600080fd5b6122d18782880161219b565b945050602085013567ffffffffffffffff8111156122ee57600080fd5b6122fa8782880161219b565b935050604085013567ffffffffffffffff81111561231757600080fd5b6123238782880161219b565b9250506060612334878288016121c5565b91505092959194509250565b600080600080600060a0868803121561235857600080fd5b600086013567ffffffffffffffff81111561237257600080fd5b61237e8882890161219b565b955050602086013567ffffffffffffffff81111561239b57600080fd5b6123a78882890161219b565b945050604086013567ffffffffffffffff8111156123c457600080fd5b6123d08882890161219b565b93505060606123e1888289016121c5565b92505060806123f2888289016121c5565b9150509295509295909350565b6000806000806000806000806000806101408b8d03121561241f57600080fd5b60008b013567ffffffffffffffff81111561243957600080fd5b6124458d828e0161219b565b9a505060208b013567ffffffffffffffff81111561246257600080fd5b61246e8d828e0161219b565b99505060408b013567ffffffffffffffff81111561248b57600080fd5b6124978d828e0161219b565b98505060606124a88d828e016121c5565b97505060806124b98d828e016121c5565b96505060a06124ca8d828e016121c5565b95505060c06124db8d828e0161215c565b94505060e06124ec8d828e016121c5565b9350506101006124fe8d828e016121c5565b9250506101206125108d828e016121c5565b9150509295989b9194979a5092959850565b60006020828403121561253457600080fd5b6000612542848285016121c5565b91505092915050565b60006020828403121561255d57600080fd5b600061256b848285016121da565b91505092915050565b600061258083836127a9565b6101608301905092915050565b61259681612edc565b82525050565b6125a581612edc565b82525050565b6125b481612eca565b82525050565b6125c381612eca565b82525050565b60006125d482612d5a565b6125de8185612d88565b93506125e983612d4a565b8060005b8381101561261a5781516126018882612574565b975061260c83612d7b565b9250506001810190506125ed565b5085935050505092915050565b600061263282612d65565b61263c8185612d99565b935061264c818560208601612f27565b80840191505092915050565b600061266382612d70565b61266d8185612da4565b935061267d818560208601612f27565b61268681613061565b840191505092915050565b600061269e602683612da4565b91506126a982613072565b604082019050919050565b60006126c1601683612da4565b91506126cc826130c1565b602082019050919050565b60006126e4602083612da4565b91506126ef826130ea565b602082019050919050565b6000612707603783612da4565b915061271282613113565b604082019050919050565b600061272a600083612d99565b915061273582613162565b600082019050919050565b600061274d602883612da4565b915061275882613165565b604082019050919050565b6000612770601183612da4565b915061277b826131b4565b602082019050919050565b6000612793602883612da4565b915061279e826131dd565b604082019050919050565b610160820160008201516127c060008501826125ab565b5060208201516127d360208501826125ab565b5060408201516127e6604085018261258d565b5060608201516127f9606085018261258d565b50608082015161280c608085018261296b565b5060a082015161281f60a085018261296b565b5060c082015161283260c085018261296b565b5060e082015161284560e085018261296b565b5061010082015161285a61010085018261296b565b5061012082015161286f61012085018261296b565b5061014082015161288461014085018261296b565b50505050565b610160820160008201516128a160008501826125ab565b5060208201516128b460208501826125ab565b5060408201516128c7604085018261258d565b5060608201516128da606085018261258d565b5060808201516128ed608085018261296b565b5060a082015161290060a085018261296b565b5060c082015161291360c085018261296b565b5060e082015161292660e085018261296b565b5061010082015161293b61010085018261296b565b5061012082015161295061012085018261296b565b5061014082015161296561014085018261296b565b50505050565b61297481612f0e565b82525050565b61298381612f0e565b82525050565b60006129958284612627565b915081905092915050565b60006129ab8261271d565b9150819050919050565b60006020820190506129ca60008301846125ba565b92915050565b60006040820190506129e560008301856125ba565b6129f260208301846125ba565b9392505050565b600061016082019050612a0f600083018e6125ba565b612a1c602083018d6125ba565b612a29604083018c61259c565b612a36606083018b61259c565b612a43608083018a61297a565b612a5060a083018961297a565b612a5d60c083018861297a565b612a6a60e083018761297a565b612a7861010083018661297a565b612a8661012083018561297a565b612a9461014083018461297a565b9c9b505050505050505050505050565b6000604082019050612ab960008301856125ba565b612ac6602083018461297a565b9392505050565b60006020820190508181036000830152612ae781846125c9565b905092915050565b60006080820190508181036000830152612b098187612658565b90508181036020830152612b1d8186612658565b90508181036040830152612b318185612658565b9050612b40606083018461297a565b95945050505050565b600060a0820190508181036000830152612b638188612658565b90508181036020830152612b778187612658565b90508181036040830152612b8b8186612658565b9050612b9a606083018561297a565b612ba7608083018461297a565b9695505050505050565b60006020820190508181036000830152612bca81612691565b9050919050565b60006020820190508181036000830152612bea816126b4565b9050919050565b60006020820190508181036000830152612c0a816126d7565b9050919050565b60006020820190508181036000830152612c2a816126fa565b9050919050565b60006020820190508181036000830152612c4a81612740565b9050919050565b60006020820190508181036000830152612c6a81612763565b9050919050565b60006020820190508181036000830152612c8a81612786565b9050919050565b600061016082019050612ca7600083018461288a565b92915050565b6000602082019050612cc2600083018461297a565b92915050565b6000612cd2612ce3565b9050612cde8282612f5a565b919050565b6000604051905090565b600067ffffffffffffffff821115612d0857612d07613032565b5b602082029050602081019050919050565b600067ffffffffffffffff821115612d3457612d33613032565b5b612d3d82613061565b9050602081019050919050565b6000819050602082019050919050565b600081519050919050565b600081519050919050565b600081519050919050565b6000602082019050919050565b600082825260208201905092915050565b600081905092915050565b600082825260208201905092915050565b6000612dc082612f0e565b9150612dcb83612f0e565b9250827fffffffffffffffffffffffffffffffffffffffffffffffffffffffffffffffff03821115612e0057612dff612fd4565b5b828201905092915050565b6000612e1682612f0e565b9150612e2183612f0e565b925082612e3157612e30613003565b5b828204905092915050565b6000612e4782612f0e565b9150612e5283612f0e565b9250817fffffffffffffffffffffffffffffffffffffffffffffffffffffffffffffffff0483118215151615612e8b57612e8a612fd4565b5b828202905092915050565b6000612ea182612f0e565b9150612eac83612f0e565b925082821015612ebf57612ebe612fd4565b5b828203905092915050565b6000612ed582612eee565b9050919050565b6000612ee782612eee565b9050919050565b600073ffffffffffffffffffffffffffffffffffffffff82169050919050565b6000819050919050565b82818337600083830152505050565b60005b83811015612f45578082015181840152602081019050612f2a565b83811115612f54576000848401525b50505050565b612f6382613061565b810181811067ffffffffffffffff82111715612f8257612f81613032565b5b80604052505050565b6000612f9682612f0e565b91507fffffffffffffffffffffffffffffffffffffffffffffffffffffffffffffffff821415612fc957612fc8612fd4565b5b600182019050919050565b7f4e487b7100000000000000000000000000000000000000000000000000000000600052601160045260246000fd5b7f4e487b7100000000000000000000000000000000000000000000000000000000600052601260045260246000fd5b7f4e487b7100000000000000000000000000000000000000000000000000000000600052604160045260246000fd5b6000601f19601f8301169050919050565b7f4f776e61626c653a206e6577206f776e657220697320746865207a65726f206160008201527f6464726573730000000000000000000000000000000000000000000000000000602082015250565b7f455243313136373a20637265617465206661696c656400000000000000000000600082015250565b7f4f776e61626c653a2063616c6c6572206973206e6f7420746865206f776e6572600082015250565b7f4661696c656420746f206469737472696275746520726576656e756520746f2060008201527f6c696d697465642065646974696f6e206d696e74657221000000000000000000602082015250565b50565b7f4661696c656420746f206469737472696275746520726576656e756520746f2060008201527f63726561746f7221000000000000000000000000000000000000000000000000602082015250565b7f5265636f7264206e6f7420666f756e6421000000000000000000000000000000600082015250565b7f4661696c656420746f206469737472696275746520726576656e756520746f2060008201527f6368617269747921000000000000000000000000000000000000000000000000602082015250565b61323581612eca565b811461324057600080fd5b50565b61324c81612f0e565b811461325757600080fd5b5056fea2646970667358221220db251f8b15674716ca535c89d4df4d2237839b68e2ff49d1cb0d20d1694c803564736f6c63430008040033",
  "linkReferences": {},
  "deployedLinkReferences": {}
}