{
  "_format": "hh-sol-artifact-1",
  "contractName": "Jukebox",
  "sourceName": "contracts/Jukebox.sol",
  "abi": [
    {
      "inputs": [
        {
          "internalType": "address",
          "name": "implementation__721",
          "type": "address"
        },
        {
          "internalType": "address",
          "name": "implementation__1155",
          "type": "address"
        }
      ],
      "stateMutability": "nonpayable",
      "type": "constructor"
    },
    {
      "anonymous": false,
      "inputs": [
        {
          "indexed": true,
          "internalType": "address",
          "name": "previousOwner",
          "type": "address"
        },
        {
          "indexed": true,
          "internalType": "address",
          "name": "newOwner",
          "type": "address"
        }
      ],
      "name": "OwnershipTransferred",
      "type": "event"
    },
    {
      "anonymous": false,
      "inputs": [
        {
          "indexed": false,
          "internalType": "address",
          "name": "record__721",
          "type": "address"
        },
        {
          "indexed": false,
          "internalType": "address",
          "name": "record__1155",
          "type": "address"
        }
      ],
      "name": "RecordPressed",
      "type": "event"
    },
    {
      "anonymous": false,
      "inputs": [
        {
          "indexed": false,
          "internalType": "address",
          "name": "record",
          "type": "address"
        }
      ],
      "name": "RecordPressed__1155",
      "type": "event"
    },
    {
      "anonymous": false,
      "inputs": [
        {
          "indexed": false,
          "internalType": "address",
          "name": "record",
          "type": "address"
        }
      ],
      "name": "RecordPressed__721",
      "type": "event"
    },
    {
      "inputs": [
        {
          "internalType": "uint256",
          "name": "",
          "type": "uint256"
        }
      ],
      "name": "catalog",
      "outputs": [
        {
          "internalType": "address",
          "name": "__721",
          "type": "address"
        },
        {
          "internalType": "address",
          "name": "__1155",
          "type": "address"
        },
        {
          "internalType": "address",
          "name": "charity",
          "type": "address"
        },
        {
          "internalType": "uint256",
          "name": "charityRoyalty",
          "type": "uint256"
        },
        {
          "internalType": "uint256",
          "name": "mintersRoyalty",
          "type": "uint256"
        },
        {
          "internalType": "uint256",
          "name": "jukeboxRoyalty",
          "type": "uint256"
        },
        {
          "internalType": "uint256",
          "name": "revenue__721",
          "type": "uint256"
        },
        {
          "internalType": "uint256",
          "name": "revenue__1155",
          "type": "uint256"
        }
      ],
      "stateMutability": "view",
      "type": "function"
    },
    {
      "inputs": [
        {
          "internalType": "uint256",
          "name": "",
          "type": "uint256"
        }
      ],
      "name": "catalog__1155",
      "outputs": [
        {
          "internalType": "address",
          "name": "",
          "type": "address"
        }
      ],
      "stateMutability": "view",
      "type": "function"
    },
    {
      "inputs": [
        {
          "internalType": "uint256",
          "name": "",
          "type": "uint256"
        }
      ],
      "name": "catalog__721",
      "outputs": [
        {
          "internalType": "address",
          "name": "",
          "type": "address"
        }
      ],
      "stateMutability": "view",
      "type": "function"
    },
    {
      "inputs": [],
      "name": "getCatalog",
      "outputs": [
        {
          "components": [
            {
              "internalType": "address",
              "name": "__721",
              "type": "address"
            },
            {
              "internalType": "address",
              "name": "__1155",
              "type": "address"
            },
            {
              "internalType": "address",
              "name": "charity",
              "type": "address"
            },
            {
              "internalType": "uint256",
              "name": "charityRoyalty",
              "type": "uint256"
            },
            {
              "internalType": "uint256",
              "name": "mintersRoyalty",
              "type": "uint256"
            },
            {
              "internalType": "uint256",
              "name": "jukeboxRoyalty",
              "type": "uint256"
            },
            {
              "internalType": "uint256",
              "name": "revenue__721",
              "type": "uint256"
            },
            {
              "internalType": "uint256",
              "name": "revenue__1155",
              "type": "uint256"
            }
          ],
          "internalType": "struct Jukebox.Record[]",
          "name": "",
          "type": "tuple[]"
        }
      ],
      "stateMutability": "view",
      "type": "function"
    },
    {
      "inputs": [
        {
          "internalType": "address",
          "name": "recordAddr",
          "type": "address"
        }
      ],
      "name": "getRecord",
      "outputs": [
        {
          "components": [
            {
              "internalType": "address",
              "name": "__721",
              "type": "address"
            },
            {
              "internalType": "address",
              "name": "__1155",
              "type": "address"
            },
            {
              "internalType": "address",
              "name": "charity",
              "type": "address"
            },
            {
              "internalType": "uint256",
              "name": "charityRoyalty",
              "type": "uint256"
            },
            {
              "internalType": "uint256",
              "name": "mintersRoyalty",
              "type": "uint256"
            },
            {
              "internalType": "uint256",
              "name": "jukeboxRoyalty",
              "type": "uint256"
            },
            {
              "internalType": "uint256",
              "name": "revenue__721",
              "type": "uint256"
            },
            {
              "internalType": "uint256",
              "name": "revenue__1155",
              "type": "uint256"
            }
          ],
          "internalType": "struct Jukebox.Record",
          "name": "",
          "type": "tuple"
        }
      ],
      "stateMutability": "view",
      "type": "function"
    },
    {
      "inputs": [
        {
          "internalType": "address",
          "name": "recordAddr",
          "type": "address"
        }
      ],
      "name": "mintRecord",
      "outputs": [],
      "stateMutability": "payable",
      "type": "function"
    },
    {
      "inputs": [],
      "name": "owner",
      "outputs": [
        {
          "internalType": "address",
          "name": "",
          "type": "address"
        }
      ],
      "stateMutability": "view",
      "type": "function"
    },
    {
      "inputs": [
        {
          "internalType": "string",
          "name": "name",
          "type": "string"
        },
        {
          "internalType": "string",
          "name": "symbol",
          "type": "string"
        },
        {
          "internalType": "string",
          "name": "uri",
          "type": "string"
        },
        {
          "internalType": "uint256",
          "name": "ltdSupply",
          "type": "uint256"
        },
        {
          "internalType": "uint256",
          "name": "ltdPrice",
          "type": "uint256"
        },
        {
          "internalType": "uint256",
          "name": "price",
          "type": "uint256"
        },
        {
          "internalType": "address",
          "name": "charity",
          "type": "address"
        },
        {
          "internalType": "uint256",
          "name": "charityRoyalty",
          "type": "uint256"
        },
        {
          "internalType": "uint256",
          "name": "mintersRoyalty",
          "type": "uint256"
        },
        {
          "internalType": "uint256",
          "name": "jukeboxRoyalty",
          "type": "uint256"
        }
      ],
      "name": "pressRecord",
      "outputs": [],
      "stateMutability": "nonpayable",
      "type": "function"
    },
    {
      "inputs": [
        {
          "internalType": "string",
          "name": "name",
          "type": "string"
        },
        {
          "internalType": "string",
          "name": "symbol",
          "type": "string"
        },
        {
          "internalType": "string",
          "name": "uri",
          "type": "string"
        },
        {
          "internalType": "uint256",
          "name": "price",
          "type": "uint256"
        }
      ],
      "name": "press__1155",
      "outputs": [
        {
          "internalType": "address",
          "name": "record",
          "type": "address"
        }
      ],
      "stateMutability": "nonpayable",
      "type": "function"
    },
    {
      "inputs": [
        {
          "internalType": "string",
          "name": "name",
          "type": "string"
        },
        {
          "internalType": "string",
          "name": "symbol",
          "type": "string"
        },
        {
          "internalType": "string",
          "name": "uri",
          "type": "string"
        },
        {
          "internalType": "uint256",
          "name": "maxSupply",
          "type": "uint256"
        },
        {
          "internalType": "uint256",
          "name": "price",
          "type": "uint256"
        }
      ],
      "name": "press__721",
      "outputs": [
        {
          "internalType": "address",
          "name": "record",
          "type": "address"
        }
      ],
      "stateMutability": "nonpayable",
      "type": "function"
    },
    {
      "inputs": [
        {
          "internalType": "address",
          "name": "",
          "type": "address"
        }
      ],
      "name": "recordIndex",
      "outputs": [
        {
          "internalType": "uint256",
          "name": "",
          "type": "uint256"
        }
      ],
      "stateMutability": "view",
      "type": "function"
    },
    {
      "inputs": [],
      "name": "record__1155",
      "outputs": [
        {
          "internalType": "address",
          "name": "",
          "type": "address"
        }
      ],
      "stateMutability": "view",
      "type": "function"
    },
    {
      "inputs": [],
      "name": "record__721",
      "outputs": [
        {
          "internalType": "address",
          "name": "",
          "type": "address"
        }
      ],
      "stateMutability": "view",
      "type": "function"
    },
    {
      "inputs": [],
      "name": "renounceOwnership",
      "outputs": [],
      "stateMutability": "nonpayable",
      "type": "function"
    },
    {
      "inputs": [
        {
          "internalType": "address",
          "name": "newOwner",
          "type": "address"
        }
      ],
      "name": "transferOwnership",
      "outputs": [],
      "stateMutability": "nonpayable",
      "type": "function"
    }
  ],
  "bytecode": "0x60806040523480156200001157600080fd5b506040516200262c3803806200262c8339818101604052810190620000379190620001c4565b620000576200004b620000e160201b60201c565b620000e960201b60201c565b81600160006101000a81548173ffffffffffffffffffffffffffffffffffffffff021916908373ffffffffffffffffffffffffffffffffffffffff16021790555080600260006101000a81548173ffffffffffffffffffffffffffffffffffffffff021916908373ffffffffffffffffffffffffffffffffffffffff160217905550505062000253565b600033905090565b60008060009054906101000a900473ffffffffffffffffffffffffffffffffffffffff169050816000806101000a81548173ffffffffffffffffffffffffffffffffffffffff021916908373ffffffffffffffffffffffffffffffffffffffff1602179055508173ffffffffffffffffffffffffffffffffffffffff168173ffffffffffffffffffffffffffffffffffffffff167f8be0079c531659141344cd1fd0a4f28419497f9722a3daafe3b4186f6b6457e060405160405180910390a35050565b600081519050620001be8162000239565b92915050565b60008060408385031215620001d857600080fd5b6000620001e885828601620001ad565b9250506020620001fb85828601620001ad565b9150509250929050565b6000620002128262000219565b9050919050565b600073ffffffffffffffffffffffffffffffffffffffff82169050919050565b620002448162000205565b81146200025057600080fd5b50565b6123c980620002636000396000f3fe6080604052600436106100e85760003560e01c8063735dee371161008a578063c0bf3e2311610059578063c0bf3e23146102fb578063ea5de25b14610326578063f2fde38b1461036a578063f7e9c1a514610393576100e8565b8063735dee3714610219578063750191b3146102565780638da5cb5b146102935780639a1ce923146102be576100e8565b8063494415b6116100c6578063494415b6146101715780634bcf39381461019c578063617fba04146101c5578063715018a614610202576100e8565b806302321884146100ed5780632e4a745d146101185780633074d75414610155575b600080fd5b3480156100f957600080fd5b506101026103d0565b60405161010f9190611dac565b60405180910390f35b34801561012457600080fd5b5061013f600480360381019061013a9190611a56565b6103f6565b60405161014c9190611dac565b60405180910390f35b61016f600480360381019061016a91906117a0565b610435565b005b34801561017d57600080fd5b5061018661080a565b6040516101939190611dac565b60405180910390f35b3480156101a857600080fd5b506101c360048036038101906101be9190611933565b610830565b005b3480156101d157600080fd5b506101ec60048036038101906101e791906117a0565b610af4565b6040516101f99190611ffb565b60405180910390f35b34801561020e57600080fd5b50610217610cca565b005b34801561022557600080fd5b50610240600480360381019061023b91906117c9565b610d52565b60405161024d9190611dac565b60405180910390f35b34801561026257600080fd5b5061027d60048036038101906102789190611a56565b610f2e565b60405161028a9190611dac565b60405180910390f35b34801561029f57600080fd5b506102a8610f6d565b6040516102b59190611dac565b60405180910390f35b3480156102ca57600080fd5b506102e560048036038101906102e09190611874565b610f96565b6040516102f29190611dac565b60405180910390f35b34801561030757600080fd5b50610310611175565b60405161031d9190611e97565b60405180910390f35b34801561033257600080fd5b5061034d60048036038101906103489190611a56565b611309565b604051610361989796959493929190611df0565b60405180910390f35b34801561037657600080fd5b50610391600480360381019061038c91906117a0565b6113c1565b005b34801561039f57600080fd5b506103ba60048036038101906103b591906117a0565b6114b9565b6040516103c79190612017565b60405180910390f35b600260009054906101000a900473ffffffffffffffffffffffffffffffffffffffff1681565b6004818154811061040657600080fd5b906000526020600020016000915054906101000a900473ffffffffffffffffffffffffffffffffffffffff1681565b6005600660008373ffffffffffffffffffffffffffffffffffffffff1673ffffffffffffffffffffffffffffffffffffffff16815260200190815260200160002054815481106104ae577f4e487b7100000000000000000000000000000000000000000000000000000000600052603260045260246000fd5b906000526020600020906008020160000160009054906101000a900473ffffffffffffffffffffffffffffffffffffffff1673ffffffffffffffffffffffffffffffffffffffff168173ffffffffffffffffffffffffffffffffffffffff1614156105b957346005600660008473ffffffffffffffffffffffffffffffffffffffff1673ffffffffffffffffffffffffffffffffffffffff168152602001908152602001600020548154811061058d577f4e487b7100000000000000000000000000000000000000000000000000000000600052603260045260246000fd5b906000526020600020906008020160060160008282546105ad91906120f3565b92505081905550610779565b6005600660008373ffffffffffffffffffffffffffffffffffffffff1673ffffffffffffffffffffffffffffffffffffffff1681526020019081526020016000205481548110610632577f4e487b7100000000000000000000000000000000000000000000000000000000600052603260045260246000fd5b906000526020600020906008020160010160009054906101000a900473ffffffffffffffffffffffffffffffffffffffff1673ffffffffffffffffffffffffffffffffffffffff168173ffffffffffffffffffffffffffffffffffffffff16141561073d57346005600660008473ffffffffffffffffffffffffffffffffffffffff1673ffffffffffffffffffffffffffffffffffffffff1681526020019081526020016000205481548110610711577f4e487b7100000000000000000000000000000000000000000000000000000000600052603260045260246000fd5b9060005260206000209060080201600701600082825461073191906120f3565b92505081905550610778565b6040517f08c379a000000000000000000000000000000000000000000000000000000000815260040161076f90611fdb565b60405180910390fd5b5b8073ffffffffffffffffffffffffffffffffffffffff166340c10f1933346040518363ffffffff1660e01b81526004016107b4929190611e6e565b602060405180830381600087803b1580156107ce57600080fd5b505af11580156107e2573d6000803e3d6000fd5b505050506040513d601f19601f820116820180604052508101906108069190611a7f565b5050565b600160009054906101000a900473ffffffffffffffffffffffffffffffffffffffff1681565b600061083f8b8b8b8b8b610f96565b9050600061084f8c8c8c8a610d52565b905060056040518061010001604052808473ffffffffffffffffffffffffffffffffffffffff1681526020018373ffffffffffffffffffffffffffffffffffffffff1681526020018873ffffffffffffffffffffffffffffffffffffffff168152602001878152602001868152602001858152602001600081526020016000815250908060018154018082558091505060019003906000526020600020906008020160009091909190915060008201518160000160006101000a81548173ffffffffffffffffffffffffffffffffffffffff021916908373ffffffffffffffffffffffffffffffffffffffff16021790555060208201518160010160006101000a81548173ffffffffffffffffffffffffffffffffffffffff021916908373ffffffffffffffffffffffffffffffffffffffff16021790555060408201518160020160006101000a81548173ffffffffffffffffffffffffffffffffffffffff021916908373ffffffffffffffffffffffffffffffffffffffff160217905550606082015181600301556080820151816004015560a0820151816005015560c0820151816006015560e0820151816007015550506001600580549050610a159190612149565b600660008473ffffffffffffffffffffffffffffffffffffffff1673ffffffffffffffffffffffffffffffffffffffff168152602001908152602001600020819055506001600580549050610a6a9190612149565b600660008373ffffffffffffffffffffffffffffffffffffffff1673ffffffffffffffffffffffffffffffffffffffff168152602001908152602001600020819055507f4ccbb2f04845b27a87373555c912e89e466603782c4c897f34f108843e2c0b718282604051610ade929190611dc7565b60405180910390a1505050505050505050505050565b610afc611672565b6005600660008473ffffffffffffffffffffffffffffffffffffffff1673ffffffffffffffffffffffffffffffffffffffff1681526020019081526020016000205481548110610b75577f4e487b7100000000000000000000000000000000000000000000000000000000600052603260045260246000fd5b9060005260206000209060080201604051806101000160405290816000820160009054906101000a900473ffffffffffffffffffffffffffffffffffffffff1673ffffffffffffffffffffffffffffffffffffffff1673ffffffffffffffffffffffffffffffffffffffff1681526020016001820160009054906101000a900473ffffffffffffffffffffffffffffffffffffffff1673ffffffffffffffffffffffffffffffffffffffff1673ffffffffffffffffffffffffffffffffffffffff1681526020016002820160009054906101000a900473ffffffffffffffffffffffffffffffffffffffff1673ffffffffffffffffffffffffffffffffffffffff1673ffffffffffffffffffffffffffffffffffffffff168152602001600382015481526020016004820154815260200160058201548152602001600682015481526020016007820154815250509050919050565b610cd26114d1565b73ffffffffffffffffffffffffffffffffffffffff16610cf0610f6d565b73ffffffffffffffffffffffffffffffffffffffff1614610d46576040517f08c379a0000000000000000000000000000000000000000000000000000000008152600401610d3d90611fbb565b60405180910390fd5b610d5060006114d9565b565b6000610d7f600260009054906101000a900473ffffffffffffffffffffffffffffffffffffffff1661159d565b905060008173ffffffffffffffffffffffffffffffffffffffff1686868686604051602401610db19493929190611eb9565b6040516020818303038152906040527f1c5d2b49000000000000000000000000000000000000000000000000000000007bffffffffffffffffffffffffffffffffffffffffffffffffffffffff19166020820180517bffffffffffffffffffffffffffffffffffffffffffffffffffffffff8381831617835250505050604051610e3b9190611d95565b6000604051808303816000865af19150503d8060008114610e78576040519150601f19603f3d011682016040523d82523d6000602084013e610e7d565b606091505b5050905080610e8b57600080fd5b6004829080600181540180825580915050600190039060005260206000200160009091909190916101000a81548173ffffffffffffffffffffffffffffffffffffffff021916908373ffffffffffffffffffffffffffffffffffffffff1602179055507f62c20f485c04ac8c3e5595fc1f2574acb36349232dd0618015ee3b417b24cb9d82604051610f1d9190611dac565b60405180910390a150949350505050565b60038181548110610f3e57600080fd5b906000526020600020016000915054906101000a900473ffffffffffffffffffffffffffffffffffffffff1681565b60008060009054906101000a900473ffffffffffffffffffffffffffffffffffffffff16905090565b6000610fc3600160009054906101000a900473ffffffffffffffffffffffffffffffffffffffff1661159d565b905060008173ffffffffffffffffffffffffffffffffffffffff168787878787604051602401610ff7959493929190611f13565b6040516020818303038152906040527f80ddd09f000000000000000000000000000000000000000000000000000000007bffffffffffffffffffffffffffffffffffffffffffffffffffffffff19166020820180517bffffffffffffffffffffffffffffffffffffffffffffffffffffffff83818316178352505050506040516110819190611d95565b6000604051808303816000865af19150503d80600081146110be576040519150601f19603f3d011682016040523d82523d6000602084013e6110c3565b606091505b50509050806110d157600080fd5b6003829080600181540180825580915050600190039060005260206000200160009091909190916101000a81548173ffffffffffffffffffffffffffffffffffffffff021916908373ffffffffffffffffffffffffffffffffffffffff1602179055507f5977599f84c7560300f76907ca57f2836924cfc767d2ad830b3d15ba7a380a88826040516111639190611dac565b60405180910390a15095945050505050565b60606005805480602002602001604051908101604052809291908181526020016000905b828210156113005783829060005260206000209060080201604051806101000160405290816000820160009054906101000a900473ffffffffffffffffffffffffffffffffffffffff1673ffffffffffffffffffffffffffffffffffffffff1673ffffffffffffffffffffffffffffffffffffffff1681526020016001820160009054906101000a900473ffffffffffffffffffffffffffffffffffffffff1673ffffffffffffffffffffffffffffffffffffffff1673ffffffffffffffffffffffffffffffffffffffff1681526020016002820160009054906101000a900473ffffffffffffffffffffffffffffffffffffffff1673ffffffffffffffffffffffffffffffffffffffff1673ffffffffffffffffffffffffffffffffffffffff1681526020016003820154815260200160048201548152602001600582015481526020016006820154815260200160078201548152505081526020019060010190611199565b50505050905090565b6005818154811061131957600080fd5b90600052602060002090600802016000915090508060000160009054906101000a900473ffffffffffffffffffffffffffffffffffffffff16908060010160009054906101000a900473ffffffffffffffffffffffffffffffffffffffff16908060020160009054906101000a900473ffffffffffffffffffffffffffffffffffffffff16908060030154908060040154908060050154908060060154908060070154905088565b6113c96114d1565b73ffffffffffffffffffffffffffffffffffffffff166113e7610f6d565b73ffffffffffffffffffffffffffffffffffffffff161461143d576040517f08c379a000000000000000000000000000000000000000000000000000000000815260040161143490611fbb565b60405180910390fd5b600073ffffffffffffffffffffffffffffffffffffffff168173ffffffffffffffffffffffffffffffffffffffff1614156114ad576040517f08c379a00000000000000000000000000000000000000000000000000000000081526004016114a490611f7b565b60405180910390fd5b6114b6816114d9565b50565b60066020528060005260406000206000915090505481565b600033905090565b60008060009054906101000a900473ffffffffffffffffffffffffffffffffffffffff169050816000806101000a81548173ffffffffffffffffffffffffffffffffffffffff021916908373ffffffffffffffffffffffffffffffffffffffff1602179055508173ffffffffffffffffffffffffffffffffffffffff168173ffffffffffffffffffffffffffffffffffffffff167f8be0079c531659141344cd1fd0a4f28419497f9722a3daafe3b4186f6b6457e060405160405180910390a35050565b60006040517f3d602d80600a3d3981f3363d3d373d3d3d363d7300000000000000000000000081528260601b60148201527f5af43d82803e903d91602b57fd5bf3000000000000000000000000000000000060288201526037816000f0915050600073ffffffffffffffffffffffffffffffffffffffff168173ffffffffffffffffffffffffffffffffffffffff16141561166d576040517f08c379a000000000000000000000000000000000000000000000000000000000815260040161166490611f9b565b60405180910390fd5b919050565b604051806101000160405280600073ffffffffffffffffffffffffffffffffffffffff168152602001600073ffffffffffffffffffffffffffffffffffffffff168152602001600073ffffffffffffffffffffffffffffffffffffffff16815260200160008152602001600081526020016000815260200160008152602001600081525090565b600061170c61170784612057565b612032565b90508281526020810184848401111561172457600080fd5b61172f8482856121b9565b509392505050565b60008135905061174681612365565b92915050565b600082601f83011261175d57600080fd5b813561176d8482602086016116f9565b91505092915050565b6000813590506117858161237c565b92915050565b60008151905061179a8161237c565b92915050565b6000602082840312156117b257600080fd5b60006117c084828501611737565b91505092915050565b600080600080608085870312156117df57600080fd5b600085013567ffffffffffffffff8111156117f957600080fd5b6118058782880161174c565b945050602085013567ffffffffffffffff81111561182257600080fd5b61182e8782880161174c565b935050604085013567ffffffffffffffff81111561184b57600080fd5b6118578782880161174c565b925050606061186887828801611776565b91505092959194509250565b600080600080600060a0868803121561188c57600080fd5b600086013567ffffffffffffffff8111156118a657600080fd5b6118b28882890161174c565b955050602086013567ffffffffffffffff8111156118cf57600080fd5b6118db8882890161174c565b945050604086013567ffffffffffffffff8111156118f857600080fd5b6119048882890161174c565b935050606061191588828901611776565b925050608061192688828901611776565b9150509295509295909350565b6000806000806000806000806000806101408b8d03121561195357600080fd5b60008b013567ffffffffffffffff81111561196d57600080fd5b6119798d828e0161174c565b9a505060208b013567ffffffffffffffff81111561199657600080fd5b6119a28d828e0161174c565b99505060408b013567ffffffffffffffff8111156119bf57600080fd5b6119cb8d828e0161174c565b98505060606119dc8d828e01611776565b97505060806119ed8d828e01611776565b96505060a06119fe8d828e01611776565b95505060c0611a0f8d828e01611737565b94505060e0611a208d828e01611776565b935050610100611a328d828e01611776565b925050610120611a448d828e01611776565b9150509295989b9194979a5092959850565b600060208284031215611a6857600080fd5b6000611a7684828501611776565b91505092915050565b600060208284031215611a9157600080fd5b6000611a9f8482850161178b565b91505092915050565b6000611ab48383611c33565b6101008301905092915050565b611aca8161217d565b82525050565b611ad98161217d565b82525050565b6000611aea82612098565b611af481856120c6565b9350611aff83612088565b8060005b83811015611b30578151611b178882611aa8565b9750611b22836120b9565b925050600181019050611b03565b5085935050505092915050565b6000611b48826120a3565b611b5281856120d7565b9350611b628185602086016121c8565b80840191505092915050565b6000611b79826120ae565b611b8381856120e2565b9350611b938185602086016121c8565b611b9c8161228a565b840191505092915050565b6000611bb46026836120e2565b9150611bbf8261229b565b604082019050919050565b6000611bd76016836120e2565b9150611be2826122ea565b602082019050919050565b6000611bfa6020836120e2565b9150611c0582612313565b602082019050919050565b6000611c1d6011836120e2565b9150611c288261233c565b602082019050919050565b61010082016000820151611c4a6000850182611ac1565b506020820151611c5d6020850182611ac1565b506040820151611c706040850182611ac1565b506060820151611c836060850182611d77565b506080820151611c966080850182611d77565b5060a0820151611ca960a0850182611d77565b5060c0820151611cbc60c0850182611d77565b5060e0820151611ccf60e0850182611d77565b50505050565b61010082016000820151611cec6000850182611ac1565b506020820151611cff6020850182611ac1565b506040820151611d126040850182611ac1565b506060820151611d256060850182611d77565b506080820151611d386080850182611d77565b5060a0820151611d4b60a0850182611d77565b5060c0820151611d5e60c0850182611d77565b5060e0820151611d7160e0850182611d77565b50505050565b611d80816121af565b82525050565b611d8f816121af565b82525050565b6000611da18284611b3d565b915081905092915050565b6000602082019050611dc16000830184611ad0565b92915050565b6000604082019050611ddc6000830185611ad0565b611de96020830184611ad0565b9392505050565b600061010082019050611e06600083018b611ad0565b611e13602083018a611ad0565b611e206040830189611ad0565b611e2d6060830188611d86565b611e3a6080830187611d86565b611e4760a0830186611d86565b611e5460c0830185611d86565b611e6160e0830184611d86565b9998505050505050505050565b6000604082019050611e836000830185611ad0565b611e906020830184611d86565b9392505050565b60006020820190508181036000830152611eb18184611adf565b905092915050565b60006080820190508181036000830152611ed38187611b6e565b90508181036020830152611ee78186611b6e565b90508181036040830152611efb8185611b6e565b9050611f0a6060830184611d86565b95945050505050565b600060a0820190508181036000830152611f2d8188611b6e565b90508181036020830152611f418187611b6e565b90508181036040830152611f558186611b6e565b9050611f646060830185611d86565b611f716080830184611d86565b9695505050505050565b60006020820190508181036000830152611f9481611ba7565b9050919050565b60006020820190508181036000830152611fb481611bca565b9050919050565b60006020820190508181036000830152611fd481611bed565b9050919050565b60006020820190508181036000830152611ff481611c10565b9050919050565b6000610100820190506120116000830184611cd5565b92915050565b600060208201905061202c6000830184611d86565b92915050565b600061203c61204d565b905061204882826121fb565b919050565b6000604051905090565b600067ffffffffffffffff8211156120725761207161225b565b5b61207b8261228a565b9050602081019050919050565b6000819050602082019050919050565b600081519050919050565b600081519050919050565b600081519050919050565b6000602082019050919050565b600082825260208201905092915050565b600081905092915050565b600082825260208201905092915050565b60006120fe826121af565b9150612109836121af565b9250827fffffffffffffffffffffffffffffffffffffffffffffffffffffffffffffffff0382111561213e5761213d61222c565b5b828201905092915050565b6000612154826121af565b915061215f836121af565b9250828210156121725761217161222c565b5b828203905092915050565b60006121888261218f565b9050919050565b600073ffffffffffffffffffffffffffffffffffffffff82169050919050565b6000819050919050565b82818337600083830152505050565b60005b838110156121e65780820151818401526020810190506121cb565b838111156121f5576000848401525b50505050565b6122048261228a565b810181811067ffffffffffffffff821117156122235761222261225b565b5b80604052505050565b7f4e487b7100000000000000000000000000000000000000000000000000000000600052601160045260246000fd5b7f4e487b7100000000000000000000000000000000000000000000000000000000600052604160045260246000fd5b6000601f19601f8301169050919050565b7f4f776e61626c653a206e6577206f776e657220697320746865207a65726f206160008201527f6464726573730000000000000000000000000000000000000000000000000000602082015250565b7f455243313136373a20637265617465206661696c656400000000000000000000600082015250565b7f4f776e61626c653a2063616c6c6572206973206e6f7420746865206f776e6572600082015250565b7f5265636f7264206e6f7420666f756e6421000000000000000000000000000000600082015250565b61236e8161217d565b811461237957600080fd5b50565b612385816121af565b811461239057600080fd5b5056fea26469706673582212209ab5b476f6529728a84855c9e1253390926224df2416034c770729b47e48826264736f6c63430008040033",
  "linkReferences": {},
  "deployedLinkReferences": {}
}