{
  "_format": "hh-sol-artifact-1",
  "contractName": "Jukebox",
  "sourceName": "contracts/Jukebox.sol",
  "abi": [
    {
      "inputs": [
        {
          "internalType": "address",
          "name": "implementation__721",
          "type": "address"
        },
        {
          "internalType": "address",
          "name": "implementation__1155",
          "type": "address"
        }
      ],
      "stateMutability": "nonpayable",
      "type": "constructor"
    },
    {
      "anonymous": false,
      "inputs": [
        {
          "indexed": true,
          "internalType": "address",
          "name": "previousOwner",
          "type": "address"
        },
        {
          "indexed": true,
          "internalType": "address",
          "name": "newOwner",
          "type": "address"
        }
      ],
      "name": "OwnershipTransferred",
      "type": "event"
    },
    {
      "anonymous": false,
      "inputs": [
        {
          "indexed": false,
          "internalType": "address",
          "name": "record__721",
          "type": "address"
        },
        {
          "indexed": false,
          "internalType": "address",
          "name": "record__1155",
          "type": "address"
        }
      ],
      "name": "RecordPressed",
      "type": "event"
    },
    {
      "anonymous": false,
      "inputs": [
        {
          "indexed": false,
          "internalType": "address",
          "name": "record",
          "type": "address"
        }
      ],
      "name": "RecordPressed__1155",
      "type": "event"
    },
    {
      "anonymous": false,
      "inputs": [
        {
          "indexed": false,
          "internalType": "address",
          "name": "record",
          "type": "address"
        }
      ],
      "name": "RecordPressed__721",
      "type": "event"
    },
    {
      "inputs": [
        {
          "internalType": "uint256",
          "name": "",
          "type": "uint256"
        }
      ],
      "name": "catalog",
      "outputs": [
        {
          "internalType": "address",
          "name": "__721",
          "type": "address"
        },
        {
          "internalType": "address",
          "name": "__1155",
          "type": "address"
        },
        {
          "internalType": "address payable",
          "name": "creator",
          "type": "address"
        },
        {
          "internalType": "address payable",
          "name": "charity",
          "type": "address"
        },
        {
          "internalType": "uint256",
          "name": "ltdSupply",
          "type": "uint256"
        },
        {
          "internalType": "uint256",
          "name": "charityRoyalty",
          "type": "uint256"
        },
        {
          "internalType": "uint256",
          "name": "mintersRoyalty",
          "type": "uint256"
        },
        {
          "internalType": "uint256",
          "name": "jukeboxRoyalty",
          "type": "uint256"
        },
        {
          "internalType": "uint256",
          "name": "revenue__721",
          "type": "uint256"
        },
        {
          "internalType": "uint256",
          "name": "revenue__1155",
          "type": "uint256"
        }
      ],
      "stateMutability": "view",
      "type": "function"
    },
    {
      "inputs": [
        {
          "internalType": "uint256",
          "name": "",
          "type": "uint256"
        }
      ],
      "name": "catalog__1155",
      "outputs": [
        {
          "internalType": "address",
          "name": "",
          "type": "address"
        }
      ],
      "stateMutability": "view",
      "type": "function"
    },
    {
      "inputs": [
        {
          "internalType": "uint256",
          "name": "",
          "type": "uint256"
        }
      ],
      "name": "catalog__721",
      "outputs": [
        {
          "internalType": "address",
          "name": "",
          "type": "address"
        }
      ],
      "stateMutability": "view",
      "type": "function"
    },
    {
      "inputs": [
        {
          "internalType": "address[]",
          "name": "records",
          "type": "address[]"
        }
      ],
      "name": "distributeRevenue",
      "outputs": [],
      "stateMutability": "nonpayable",
      "type": "function"
    },
    {
      "inputs": [],
      "name": "getCatalog",
      "outputs": [
        {
          "components": [
            {
              "internalType": "address",
              "name": "__721",
              "type": "address"
            },
            {
              "internalType": "address",
              "name": "__1155",
              "type": "address"
            },
            {
              "internalType": "address payable",
              "name": "creator",
              "type": "address"
            },
            {
              "internalType": "address payable",
              "name": "charity",
              "type": "address"
            },
            {
              "internalType": "uint256",
              "name": "ltdSupply",
              "type": "uint256"
            },
            {
              "internalType": "uint256",
              "name": "charityRoyalty",
              "type": "uint256"
            },
            {
              "internalType": "uint256",
              "name": "mintersRoyalty",
              "type": "uint256"
            },
            {
              "internalType": "uint256",
              "name": "jukeboxRoyalty",
              "type": "uint256"
            },
            {
              "internalType": "uint256",
              "name": "revenue__721",
              "type": "uint256"
            },
            {
              "internalType": "uint256",
              "name": "revenue__1155",
              "type": "uint256"
            }
          ],
          "internalType": "struct Jukebox.Record[]",
          "name": "",
          "type": "tuple[]"
        }
      ],
      "stateMutability": "view",
      "type": "function"
    },
    {
      "inputs": [
        {
          "internalType": "address",
          "name": "recordAddr",
          "type": "address"
        }
      ],
      "name": "getRecord",
      "outputs": [
        {
          "components": [
            {
              "internalType": "address",
              "name": "__721",
              "type": "address"
            },
            {
              "internalType": "address",
              "name": "__1155",
              "type": "address"
            },
            {
              "internalType": "address payable",
              "name": "creator",
              "type": "address"
            },
            {
              "internalType": "address payable",
              "name": "charity",
              "type": "address"
            },
            {
              "internalType": "uint256",
              "name": "ltdSupply",
              "type": "uint256"
            },
            {
              "internalType": "uint256",
              "name": "charityRoyalty",
              "type": "uint256"
            },
            {
              "internalType": "uint256",
              "name": "mintersRoyalty",
              "type": "uint256"
            },
            {
              "internalType": "uint256",
              "name": "jukeboxRoyalty",
              "type": "uint256"
            },
            {
              "internalType": "uint256",
              "name": "revenue__721",
              "type": "uint256"
            },
            {
              "internalType": "uint256",
              "name": "revenue__1155",
              "type": "uint256"
            }
          ],
          "internalType": "struct Jukebox.Record",
          "name": "",
          "type": "tuple"
        }
      ],
      "stateMutability": "view",
      "type": "function"
    },
    {
      "inputs": [
        {
          "internalType": "address",
          "name": "recordAddr",
          "type": "address"
        }
      ],
      "name": "mintRecord",
      "outputs": [],
      "stateMutability": "payable",
      "type": "function"
    },
    {
      "inputs": [
        {
          "internalType": "address",
          "name": "",
          "type": "address"
        },
        {
          "internalType": "uint256",
          "name": "",
          "type": "uint256"
        }
      ],
      "name": "minters",
      "outputs": [
        {
          "internalType": "address",
          "name": "",
          "type": "address"
        }
      ],
      "stateMutability": "view",
      "type": "function"
    },
    {
      "inputs": [],
      "name": "owner",
      "outputs": [
        {
          "internalType": "address",
          "name": "",
          "type": "address"
        }
      ],
      "stateMutability": "view",
      "type": "function"
    },
    {
      "inputs": [
        {
          "internalType": "string",
          "name": "name",
          "type": "string"
        },
        {
          "internalType": "string",
          "name": "symbol",
          "type": "string"
        },
        {
          "internalType": "string",
          "name": "uri",
          "type": "string"
        },
        {
          "internalType": "uint256",
          "name": "ltdSupply",
          "type": "uint256"
        },
        {
          "internalType": "uint256",
          "name": "ltdPrice",
          "type": "uint256"
        },
        {
          "internalType": "uint256",
          "name": "price",
          "type": "uint256"
        },
        {
          "internalType": "address",
          "name": "charity",
          "type": "address"
        },
        {
          "internalType": "uint256",
          "name": "charityRoyalty",
          "type": "uint256"
        },
        {
          "internalType": "uint256",
          "name": "mintersRoyalty",
          "type": "uint256"
        },
        {
          "internalType": "uint256",
          "name": "jukeboxRoyalty",
          "type": "uint256"
        }
      ],
      "name": "pressRecord",
      "outputs": [],
      "stateMutability": "nonpayable",
      "type": "function"
    },
    {
      "inputs": [
        {
          "internalType": "string",
          "name": "name",
          "type": "string"
        },
        {
          "internalType": "string",
          "name": "symbol",
          "type": "string"
        },
        {
          "internalType": "string",
          "name": "uri",
          "type": "string"
        },
        {
          "internalType": "uint256",
          "name": "price",
          "type": "uint256"
        }
      ],
      "name": "press__1155",
      "outputs": [
        {
          "internalType": "address",
          "name": "record",
          "type": "address"
        }
      ],
      "stateMutability": "nonpayable",
      "type": "function"
    },
    {
      "inputs": [
        {
          "internalType": "string",
          "name": "name",
          "type": "string"
        },
        {
          "internalType": "string",
          "name": "symbol",
          "type": "string"
        },
        {
          "internalType": "string",
          "name": "uri",
          "type": "string"
        },
        {
          "internalType": "uint256",
          "name": "maxSupply",
          "type": "uint256"
        },
        {
          "internalType": "uint256",
          "name": "price",
          "type": "uint256"
        }
      ],
      "name": "press__721",
      "outputs": [
        {
          "internalType": "address",
          "name": "record",
          "type": "address"
        }
      ],
      "stateMutability": "nonpayable",
      "type": "function"
    },
    {
      "inputs": [
        {
          "internalType": "address",
          "name": "",
          "type": "address"
        }
      ],
      "name": "recordIndex",
      "outputs": [
        {
          "internalType": "uint256",
          "name": "",
          "type": "uint256"
        }
      ],
      "stateMutability": "view",
      "type": "function"
    },
    {
      "inputs": [],
      "name": "record__1155",
      "outputs": [
        {
          "internalType": "address",
          "name": "",
          "type": "address"
        }
      ],
      "stateMutability": "view",
      "type": "function"
    },
    {
      "inputs": [],
      "name": "record__721",
      "outputs": [
        {
          "internalType": "address",
          "name": "",
          "type": "address"
        }
      ],
      "stateMutability": "view",
      "type": "function"
    },
    {
      "inputs": [],
      "name": "renounceOwnership",
      "outputs": [],
      "stateMutability": "nonpayable",
      "type": "function"
    },
    {
      "inputs": [
        {
          "internalType": "address",
          "name": "newOwner",
          "type": "address"
        }
      ],
      "name": "transferOwnership",
      "outputs": [],
      "stateMutability": "nonpayable",
      "type": "function"
    },
    {
      "stateMutability": "payable",
      "type": "receive"
    }
  ],
  "bytecode": "0x60806040523480156200001157600080fd5b50604051620033ef380380620033ef8339818101604052810190620000379190620001c4565b620000576200004b620000e160201b60201c565b620000e960201b60201c565b81600160006101000a81548173ffffffffffffffffffffffffffffffffffffffff021916908373ffffffffffffffffffffffffffffffffffffffff16021790555080600260006101000a81548173ffffffffffffffffffffffffffffffffffffffff021916908373ffffffffffffffffffffffffffffffffffffffff160217905550505062000253565b600033905090565b60008060009054906101000a900473ffffffffffffffffffffffffffffffffffffffff169050816000806101000a81548173ffffffffffffffffffffffffffffffffffffffff021916908373ffffffffffffffffffffffffffffffffffffffff1602179055508173ffffffffffffffffffffffffffffffffffffffff168173ffffffffffffffffffffffffffffffffffffffff167f8be0079c531659141344cd1fd0a4f28419497f9722a3daafe3b4186f6b6457e060405160405180910390a35050565b600081519050620001be8162000239565b92915050565b60008060408385031215620001d857600080fd5b6000620001e885828601620001ad565b9250506020620001fb85828601620001ad565b9150509250929050565b6000620002128262000219565b9050919050565b600073ffffffffffffffffffffffffffffffffffffffff82169050919050565b620002448162000205565b81146200025057600080fd5b50565b61318c80620002636000396000f3fe6080604052600436106101025760003560e01c8063750191b311610095578063c0bf3e2311610064578063c0bf3e2314610359578063ddbe372b14610384578063ea5de25b146103ad578063f2fde38b146103f3578063f7e9c1a51461041c57610109565b8063750191b31461027757806378746d0d146102b45780638da5cb5b146102f15780639a1ce9231461031c57610109565b80634bcf3938116100d15780634bcf3938146101bd578063617fba04146101e6578063715018a614610223578063735dee371461023a57610109565b8063023218841461010e5780632e4a745d146101395780633074d75414610176578063494415b61461019257610109565b3661010957005b600080fd5b34801561011a57600080fd5b50610123610459565b60405161013091906128c0565b60405180910390f35b34801561014557600080fd5b50610160600480360381019061015b9190612457565b61047f565b60405161016d91906128c0565b60405180910390f35b610190600480360381019061018b9190612124565b6104be565b005b34801561019e57600080fd5b506101a7610933565b6040516101b491906128c0565b60405180910390f35b3480156101c957600080fd5b506101e460048036038101906101df9190612334565b610959565b005b3480156101f257600080fd5b5061020d60048036038101906102089190612124565b610c92565b60405161021a9190612b8d565b60405180910390f35b34801561022f57600080fd5b50610238610ec8565b005b34801561024657600080fd5b50610261600480360381019061025c91906121ca565b610f50565b60405161026e91906128c0565b60405180910390f35b34801561028357600080fd5b5061029e60048036038101906102999190612457565b61112c565b6040516102ab91906128c0565b60405180910390f35b3480156102c057600080fd5b506102db60048036038101906102d6919061214d565b61116b565b6040516102e891906128c0565b60405180910390f35b3480156102fd57600080fd5b506103066111b9565b60405161031391906128c0565b60405180910390f35b34801561032857600080fd5b50610343600480360381019061033e9190612275565b6111e2565b60405161035091906128c0565b60405180910390f35b34801561036557600080fd5b5061036e6113c1565b60405161037b91906129c9565b60405180910390f35b34801561039057600080fd5b506103ab60048036038101906103a69190612189565b6115b5565b005b3480156103b957600080fd5b506103d460048036038101906103cf9190612457565b611ba7565b6040516103ea9a99989796959493929190612904565b60405180910390f35b3480156103ff57600080fd5b5061041a60048036038101906104159190612124565b611c8b565b005b34801561042857600080fd5b50610443600480360381019061043e9190612124565b611d83565b6040516104509190612ba9565b60405180910390f35b600260009054906101000a900473ffffffffffffffffffffffffffffffffffffffff1681565b6004818154811061048f57600080fd5b906000526020600020016000915054906101000a900473ffffffffffffffffffffffffffffffffffffffff1681565b6005600660008373ffffffffffffffffffffffffffffffffffffffff1673ffffffffffffffffffffffffffffffffffffffff1681526020019081526020016000205481548110610537577f4e487b7100000000000000000000000000000000000000000000000000000000600052603260045260246000fd5b90600052602060002090600a020160000160009054906101000a900473ffffffffffffffffffffffffffffffffffffffff1673ffffffffffffffffffffffffffffffffffffffff168173ffffffffffffffffffffffffffffffffffffffff1614156106e257346005600660008473ffffffffffffffffffffffffffffffffffffffff1673ffffffffffffffffffffffffffffffffffffffff1681526020019081526020016000205481548110610616577f4e487b7100000000000000000000000000000000000000000000000000000000600052603260045260246000fd5b90600052602060002090600a020160080160008282546106369190612cb1565b92505081905550600760008273ffffffffffffffffffffffffffffffffffffffff1673ffffffffffffffffffffffffffffffffffffffff168152602001908152602001600020339080600181540180825580915050600190039060005260206000200160009091909190916101000a81548173ffffffffffffffffffffffffffffffffffffffff021916908373ffffffffffffffffffffffffffffffffffffffff1602179055506108a2565b6005600660008373ffffffffffffffffffffffffffffffffffffffff1673ffffffffffffffffffffffffffffffffffffffff168152602001908152602001600020548154811061075b577f4e487b7100000000000000000000000000000000000000000000000000000000600052603260045260246000fd5b90600052602060002090600a020160010160009054906101000a900473ffffffffffffffffffffffffffffffffffffffff1673ffffffffffffffffffffffffffffffffffffffff168173ffffffffffffffffffffffffffffffffffffffff16141561086657346005600660008473ffffffffffffffffffffffffffffffffffffffff1673ffffffffffffffffffffffffffffffffffffffff168152602001908152602001600020548154811061083a577f4e487b7100000000000000000000000000000000000000000000000000000000600052603260045260246000fd5b90600052602060002090600a0201600901600082825461085a9190612cb1565b925050819055506108a1565b6040517f08c379a000000000000000000000000000000000000000000000000000000000815260040161089890612b4d565b60405180910390fd5b5b8073ffffffffffffffffffffffffffffffffffffffff166340c10f1933346040518363ffffffff1660e01b81526004016108dd9291906129a0565b602060405180830381600087803b1580156108f757600080fd5b505af115801561090b573d6000803e3d6000fd5b505050506040513d601f19601f8201168201806040525081019061092f9190612480565b5050565b600160009054906101000a900473ffffffffffffffffffffffffffffffffffffffff1681565b60006109688b8b8b8b8b6111e2565b905060006109788c8c8c8a610f50565b905060056040518061014001604052808473ffffffffffffffffffffffffffffffffffffffff1681526020018373ffffffffffffffffffffffffffffffffffffffff1681526020013373ffffffffffffffffffffffffffffffffffffffff1681526020018873ffffffffffffffffffffffffffffffffffffffff1681526020018b815260200187815260200186815260200185815260200160008152602001600081525090806001815401808255809150506001900390600052602060002090600a020160009091909190915060008201518160000160006101000a81548173ffffffffffffffffffffffffffffffffffffffff021916908373ffffffffffffffffffffffffffffffffffffffff16021790555060208201518160010160006101000a81548173ffffffffffffffffffffffffffffffffffffffff021916908373ffffffffffffffffffffffffffffffffffffffff16021790555060408201518160020160006101000a81548173ffffffffffffffffffffffffffffffffffffffff021916908373ffffffffffffffffffffffffffffffffffffffff16021790555060608201518160030160006101000a81548173ffffffffffffffffffffffffffffffffffffffff021916908373ffffffffffffffffffffffffffffffffffffffff1602179055506080820151816004015560a0820151816005015560c0820151816006015560e082015181600701556101008201518160080155610120820151816009015550506001600580549050610bb39190612d92565b600660008473ffffffffffffffffffffffffffffffffffffffff1673ffffffffffffffffffffffffffffffffffffffff168152602001908152602001600020819055506001600580549050610c089190612d92565b600660008373ffffffffffffffffffffffffffffffffffffffff1673ffffffffffffffffffffffffffffffffffffffff168152602001908152602001600020819055507f4ccbb2f04845b27a87373555c912e89e466603782c4c897f34f108843e2c0b718282604051610c7c9291906128db565b60405180910390a1505050505050505050505050565b610c9a611f3c565b6005600660008473ffffffffffffffffffffffffffffffffffffffff1673ffffffffffffffffffffffffffffffffffffffff1681526020019081526020016000205481548110610d13577f4e487b7100000000000000000000000000000000000000000000000000000000600052603260045260246000fd5b90600052602060002090600a0201604051806101400160405290816000820160009054906101000a900473ffffffffffffffffffffffffffffffffffffffff1673ffffffffffffffffffffffffffffffffffffffff1673ffffffffffffffffffffffffffffffffffffffff1681526020016001820160009054906101000a900473ffffffffffffffffffffffffffffffffffffffff1673ffffffffffffffffffffffffffffffffffffffff1673ffffffffffffffffffffffffffffffffffffffff1681526020016002820160009054906101000a900473ffffffffffffffffffffffffffffffffffffffff1673ffffffffffffffffffffffffffffffffffffffff1673ffffffffffffffffffffffffffffffffffffffff1681526020016003820160009054906101000a900473ffffffffffffffffffffffffffffffffffffffff1673ffffffffffffffffffffffffffffffffffffffff1673ffffffffffffffffffffffffffffffffffffffff16815260200160048201548152602001600582015481526020016006820154815260200160078201548152602001600882015481526020016009820154815250509050919050565b610ed0611d9b565b73ffffffffffffffffffffffffffffffffffffffff16610eee6111b9565b73ffffffffffffffffffffffffffffffffffffffff1614610f44576040517f08c379a0000000000000000000000000000000000000000000000000000000008152600401610f3b90612aed565b60405180910390fd5b610f4e6000611da3565b565b6000610f7d600260009054906101000a900473ffffffffffffffffffffffffffffffffffffffff16611e67565b905060008173ffffffffffffffffffffffffffffffffffffffff1686868686604051602401610faf94939291906129eb565b6040516020818303038152906040527f1c5d2b49000000000000000000000000000000000000000000000000000000007bffffffffffffffffffffffffffffffffffffffffffffffffffffffff19166020820180517bffffffffffffffffffffffffffffffffffffffffffffffffffffffff83818316178352505050506040516110399190612894565b6000604051808303816000865af19150503d8060008114611076576040519150601f19603f3d011682016040523d82523d6000602084013e61107b565b606091505b505090508061108957600080fd5b6004829080600181540180825580915050600190039060005260206000200160009091909190916101000a81548173ffffffffffffffffffffffffffffffffffffffff021916908373ffffffffffffffffffffffffffffffffffffffff1602179055507f62c20f485c04ac8c3e5595fc1f2574acb36349232dd0618015ee3b417b24cb9d8260405161111b91906128c0565b60405180910390a150949350505050565b6003818154811061113c57600080fd5b906000526020600020016000915054906101000a900473ffffffffffffffffffffffffffffffffffffffff1681565b6007602052816000526040600020818154811061118757600080fd5b906000526020600020016000915091509054906101000a900473ffffffffffffffffffffffffffffffffffffffff1681565b60008060009054906101000a900473ffffffffffffffffffffffffffffffffffffffff16905090565b600061120f600160009054906101000a900473ffffffffffffffffffffffffffffffffffffffff16611e67565b905060008173ffffffffffffffffffffffffffffffffffffffff168787878787604051602401611243959493929190612a45565b6040516020818303038152906040527f80ddd09f000000000000000000000000000000000000000000000000000000007bffffffffffffffffffffffffffffffffffffffffffffffffffffffff19166020820180517bffffffffffffffffffffffffffffffffffffffffffffffffffffffff83818316178352505050506040516112cd9190612894565b6000604051808303816000865af19150503d806000811461130a576040519150601f19603f3d011682016040523d82523d6000602084013e61130f565b606091505b505090508061131d57600080fd5b6003829080600181540180825580915050600190039060005260206000200160009091909190916101000a81548173ffffffffffffffffffffffffffffffffffffffff021916908373ffffffffffffffffffffffffffffffffffffffff1602179055507f5977599f84c7560300f76907ca57f2836924cfc767d2ad830b3d15ba7a380a88826040516113af91906128c0565b60405180910390a15095945050505050565b60606005805480602002602001604051908101604052809291908181526020016000905b828210156115ac57838290600052602060002090600a0201604051806101400160405290816000820160009054906101000a900473ffffffffffffffffffffffffffffffffffffffff1673ffffffffffffffffffffffffffffffffffffffff1673ffffffffffffffffffffffffffffffffffffffff1681526020016001820160009054906101000a900473ffffffffffffffffffffffffffffffffffffffff1673ffffffffffffffffffffffffffffffffffffffff1673ffffffffffffffffffffffffffffffffffffffff1681526020016002820160009054906101000a900473ffffffffffffffffffffffffffffffffffffffff1673ffffffffffffffffffffffffffffffffffffffff1673ffffffffffffffffffffffffffffffffffffffff1681526020016003820160009054906101000a900473ffffffffffffffffffffffffffffffffffffffff1673ffffffffffffffffffffffffffffffffffffffff1673ffffffffffffffffffffffffffffffffffffffff1681526020016004820154815260200160058201548152602001600682015481526020016007820154815260200160088201548152602001600982015481525050815260200190600101906113e5565b50505050905090565b60005b8151811015611ba35760008282815181106115fc577f4e487b7100000000000000000000000000000000000000000000000000000000600052603260045260246000fd5b6020026020010151905060006005600660008473ffffffffffffffffffffffffffffffffffffffff1673ffffffffffffffffffffffffffffffffffffffff1681526020019081526020016000205481548110611681577f4e487b7100000000000000000000000000000000000000000000000000000000600052603260045260246000fd5b90600052602060002090600a0201905060008160050154606483600801546116a99190612d07565b6116b39190612d38565b905060008260070154606484600801546116cd9190612d07565b6116d79190612d38565b90506000818385600801546116ec9190612d92565b6116f69190612d92565b905060008460050154606486600901546117109190612d07565b61171a9190612d38565b905060008560070154606487600901546117349190612d07565b61173e9190612d38565b90506000818388600901546117539190612d92565b61175d9190612d92565b90506000600760008960000160009054906101000a900473ffffffffffffffffffffffffffffffffffffffff1673ffffffffffffffffffffffffffffffffffffffff1673ffffffffffffffffffffffffffffffffffffffff16815260200190815260200160002080548060200260200160405190810160405280929190818152602001828054801561184457602002820191906000526020600020905b8160009054906101000a900473ffffffffffffffffffffffffffffffffffffffff1673ffffffffffffffffffffffffffffffffffffffff16815260200190600101908083116117fa575b5050505050905060008860040154896006015460648b600901546118689190612d07565b6118729190612d38565b61187c9190612d07565b9050600082518261188d9190612d38565b9050600081858961189e9190612cb1565b6118a89190612d92565b90506000878b6118b89190612cb1565b905060008c6009018190555060008c6008018190555060008c60020160009054906101000a900473ffffffffffffffffffffffffffffffffffffffff1673ffffffffffffffffffffffffffffffffffffffff1683604051611918906128ab565b60006040518083038185875af1925050503d8060008114611955576040519150601f19603f3d011682016040523d82523d6000602084013e61195a565b606091505b505090508061199e576040517f08c379a000000000000000000000000000000000000000000000000000000000815260040161199590612b2d565b60405180910390fd5b60008d60030160009054906101000a900473ffffffffffffffffffffffffffffffffffffffff1673ffffffffffffffffffffffffffffffffffffffff16836040516119e8906128ab565b60006040518083038185875af1925050503d8060008114611a25576040519150601f19603f3d011682016040523d82523d6000602084013e611a2a565b606091505b5050905080611a6e576040517f08c379a0000000000000000000000000000000000000000000000000000000008152600401611a6590612b6d565b60405180910390fd5b60005b8751811015611b80576000888281518110611ab5577f4e487b7100000000000000000000000000000000000000000000000000000000600052603260045260246000fd5b6020026020010151905060008173ffffffffffffffffffffffffffffffffffffffff1689604051611ae5906128ab565b60006040518083038185875af1925050503d8060008114611b22576040519150601f19603f3d011682016040523d82523d6000602084013e611b27565b606091505b5050905080611b6b576040517f08c379a0000000000000000000000000000000000000000000000000000000008152600401611b6290612b0d565b60405180910390fd5b50508080611b7890612e87565b915050611a71565b505050505050505050505050505050508080611b9b90612e87565b9150506115b8565b5050565b60058181548110611bb757600080fd5b90600052602060002090600a02016000915090508060000160009054906101000a900473ffffffffffffffffffffffffffffffffffffffff16908060010160009054906101000a900473ffffffffffffffffffffffffffffffffffffffff16908060020160009054906101000a900473ffffffffffffffffffffffffffffffffffffffff16908060030160009054906101000a900473ffffffffffffffffffffffffffffffffffffffff1690806004015490806005015490806006015490806007015490806008015490806009015490508a565b611c93611d9b565b73ffffffffffffffffffffffffffffffffffffffff16611cb16111b9565b73ffffffffffffffffffffffffffffffffffffffff1614611d07576040517f08c379a0000000000000000000000000000000000000000000000000000000008152600401611cfe90612aed565b60405180910390fd5b600073ffffffffffffffffffffffffffffffffffffffff168173ffffffffffffffffffffffffffffffffffffffff161415611d77576040517f08c379a0000000000000000000000000000000000000000000000000000000008152600401611d6e90612aad565b60405180910390fd5b611d8081611da3565b50565b60066020528060005260406000206000915090505481565b600033905090565b60008060009054906101000a900473ffffffffffffffffffffffffffffffffffffffff169050816000806101000a81548173ffffffffffffffffffffffffffffffffffffffff021916908373ffffffffffffffffffffffffffffffffffffffff1602179055508173ffffffffffffffffffffffffffffffffffffffff168173ffffffffffffffffffffffffffffffffffffffff167f8be0079c531659141344cd1fd0a4f28419497f9722a3daafe3b4186f6b6457e060405160405180910390a35050565b60006040517f3d602d80600a3d3981f3363d3d373d3d3d363d7300000000000000000000000081528260601b60148201527f5af43d82803e903d91602b57fd5bf3000000000000000000000000000000000060288201526037816000f0915050600073ffffffffffffffffffffffffffffffffffffffff168173ffffffffffffffffffffffffffffffffffffffff161415611f37576040517f08c379a0000000000000000000000000000000000000000000000000000000008152600401611f2e90612acd565b60405180910390fd5b919050565b604051806101400160405280600073ffffffffffffffffffffffffffffffffffffffff168152602001600073ffffffffffffffffffffffffffffffffffffffff168152602001600073ffffffffffffffffffffffffffffffffffffffff168152602001600073ffffffffffffffffffffffffffffffffffffffff1681526020016000815260200160008152602001600081526020016000815260200160008152602001600081525090565b6000611ffa611ff584612be9565b612bc4565b9050808382526020820190508285602086028201111561201957600080fd5b60005b85811015612049578161202f8882612091565b84526020840193506020830192505060018101905061201c565b5050509392505050565b600061206661206184612c15565b612bc4565b90508281526020810184848401111561207e57600080fd5b612089848285612e14565b509392505050565b6000813590506120a081613128565b92915050565b600082601f8301126120b757600080fd5b81356120c7848260208601611fe7565b91505092915050565b600082601f8301126120e157600080fd5b81356120f1848260208601612053565b91505092915050565b6000813590506121098161313f565b92915050565b60008151905061211e8161313f565b92915050565b60006020828403121561213657600080fd5b600061214484828501612091565b91505092915050565b6000806040838503121561216057600080fd5b600061216e85828601612091565b925050602061217f858286016120fa565b9150509250929050565b60006020828403121561219b57600080fd5b600082013567ffffffffffffffff8111156121b557600080fd5b6121c1848285016120a6565b91505092915050565b600080600080608085870312156121e057600080fd5b600085013567ffffffffffffffff8111156121fa57600080fd5b612206878288016120d0565b945050602085013567ffffffffffffffff81111561222357600080fd5b61222f878288016120d0565b935050604085013567ffffffffffffffff81111561224c57600080fd5b612258878288016120d0565b9250506060612269878288016120fa565b91505092959194509250565b600080600080600060a0868803121561228d57600080fd5b600086013567ffffffffffffffff8111156122a757600080fd5b6122b3888289016120d0565b955050602086013567ffffffffffffffff8111156122d057600080fd5b6122dc888289016120d0565b945050604086013567ffffffffffffffff8111156122f957600080fd5b612305888289016120d0565b9350506060612316888289016120fa565b9250506080612327888289016120fa565b9150509295509295909350565b6000806000806000806000806000806101408b8d03121561235457600080fd5b60008b013567ffffffffffffffff81111561236e57600080fd5b61237a8d828e016120d0565b9a505060208b013567ffffffffffffffff81111561239757600080fd5b6123a38d828e016120d0565b99505060408b013567ffffffffffffffff8111156123c057600080fd5b6123cc8d828e016120d0565b98505060606123dd8d828e016120fa565b97505060806123ee8d828e016120fa565b96505060a06123ff8d828e016120fa565b95505060c06124108d828e01612091565b94505060e06124218d828e016120fa565b9350506101006124338d828e016120fa565b9250506101206124458d828e016120fa565b9150509295989b9194979a5092959850565b60006020828403121561246957600080fd5b6000612477848285016120fa565b91505092915050565b60006020828403121561249257600080fd5b60006124a08482850161210f565b91505092915050565b60006124b583836126de565b6101408301905092915050565b6124cb81612dd8565b82525050565b6124da81612dd8565b82525050565b6124e981612dc6565b82525050565b6124f881612dc6565b82525050565b600061250982612c56565b6125138185612c84565b935061251e83612c46565b8060005b8381101561254f57815161253688826124a9565b975061254183612c77565b925050600181019050612522565b5085935050505092915050565b600061256782612c61565b6125718185612c95565b9350612581818560208601612e23565b80840191505092915050565b600061259882612c6c565b6125a28185612ca0565b93506125b2818560208601612e23565b6125bb81612f5d565b840191505092915050565b60006125d3602683612ca0565b91506125de82612f6e565b604082019050919050565b60006125f6601683612ca0565b915061260182612fbd565b602082019050919050565b6000612619602083612ca0565b915061262482612fe6565b602082019050919050565b600061263c603783612ca0565b91506126478261300f565b604082019050919050565b600061265f600083612c95565b915061266a8261305e565b600082019050919050565b6000612682602883612ca0565b915061268d82613061565b604082019050919050565b60006126a5601183612ca0565b91506126b0826130b0565b602082019050919050565b60006126c8602883612ca0565b91506126d3826130d9565b604082019050919050565b610140820160008201516126f560008501826124e0565b50602082015161270860208501826124e0565b50604082015161271b60408501826124c2565b50606082015161272e60608501826124c2565b5060808201516127416080850182612876565b5060a082015161275460a0850182612876565b5060c082015161276760c0850182612876565b5060e082015161277a60e0850182612876565b5061010082015161278f610100850182612876565b506101208201516127a4610120850182612876565b50505050565b610140820160008201516127c160008501826124e0565b5060208201516127d460208501826124e0565b5060408201516127e760408501826124c2565b5060608201516127fa60608501826124c2565b50608082015161280d6080850182612876565b5060a082015161282060a0850182612876565b5060c082015161283360c0850182612876565b5060e082015161284660e0850182612876565b5061010082015161285b610100850182612876565b50610120820151612870610120850182612876565b50505050565b61287f81612e0a565b82525050565b61288e81612e0a565b82525050565b60006128a0828461255c565b915081905092915050565b60006128b682612652565b9150819050919050565b60006020820190506128d560008301846124ef565b92915050565b60006040820190506128f060008301856124ef565b6128fd60208301846124ef565b9392505050565b60006101408201905061291a600083018d6124ef565b612927602083018c6124ef565b612934604083018b6124d1565b612941606083018a6124d1565b61294e6080830189612885565b61295b60a0830188612885565b61296860c0830187612885565b61297560e0830186612885565b612983610100830185612885565b612991610120830184612885565b9b9a5050505050505050505050565b60006040820190506129b560008301856124ef565b6129c26020830184612885565b9392505050565b600060208201905081810360008301526129e381846124fe565b905092915050565b60006080820190508181036000830152612a05818761258d565b90508181036020830152612a19818661258d565b90508181036040830152612a2d818561258d565b9050612a3c6060830184612885565b95945050505050565b600060a0820190508181036000830152612a5f818861258d565b90508181036020830152612a73818761258d565b90508181036040830152612a87818661258d565b9050612a966060830185612885565b612aa36080830184612885565b9695505050505050565b60006020820190508181036000830152612ac6816125c6565b9050919050565b60006020820190508181036000830152612ae6816125e9565b9050919050565b60006020820190508181036000830152612b068161260c565b9050919050565b60006020820190508181036000830152612b268161262f565b9050919050565b60006020820190508181036000830152612b4681612675565b9050919050565b60006020820190508181036000830152612b6681612698565b9050919050565b60006020820190508181036000830152612b86816126bb565b9050919050565b600061014082019050612ba360008301846127aa565b92915050565b6000602082019050612bbe6000830184612885565b92915050565b6000612bce612bdf565b9050612bda8282612e56565b919050565b6000604051905090565b600067ffffffffffffffff821115612c0457612c03612f2e565b5b602082029050602081019050919050565b600067ffffffffffffffff821115612c3057612c2f612f2e565b5b612c3982612f5d565b9050602081019050919050565b6000819050602082019050919050565b600081519050919050565b600081519050919050565b600081519050919050565b6000602082019050919050565b600082825260208201905092915050565b600081905092915050565b600082825260208201905092915050565b6000612cbc82612e0a565b9150612cc783612e0a565b9250827fffffffffffffffffffffffffffffffffffffffffffffffffffffffffffffffff03821115612cfc57612cfb612ed0565b5b828201905092915050565b6000612d1282612e0a565b9150612d1d83612e0a565b925082612d2d57612d2c612eff565b5b828204905092915050565b6000612d4382612e0a565b9150612d4e83612e0a565b9250817fffffffffffffffffffffffffffffffffffffffffffffffffffffffffffffffff0483118215151615612d8757612d86612ed0565b5b828202905092915050565b6000612d9d82612e0a565b9150612da883612e0a565b925082821015612dbb57612dba612ed0565b5b828203905092915050565b6000612dd182612dea565b9050919050565b6000612de382612dea565b9050919050565b600073ffffffffffffffffffffffffffffffffffffffff82169050919050565b6000819050919050565b82818337600083830152505050565b60005b83811015612e41578082015181840152602081019050612e26565b83811115612e50576000848401525b50505050565b612e5f82612f5d565b810181811067ffffffffffffffff82111715612e7e57612e7d612f2e565b5b80604052505050565b6000612e9282612e0a565b91507fffffffffffffffffffffffffffffffffffffffffffffffffffffffffffffffff821415612ec557612ec4612ed0565b5b600182019050919050565b7f4e487b7100000000000000000000000000000000000000000000000000000000600052601160045260246000fd5b7f4e487b7100000000000000000000000000000000000000000000000000000000600052601260045260246000fd5b7f4e487b7100000000000000000000000000000000000000000000000000000000600052604160045260246000fd5b6000601f19601f8301169050919050565b7f4f776e61626c653a206e6577206f776e657220697320746865207a65726f206160008201527f6464726573730000000000000000000000000000000000000000000000000000602082015250565b7f455243313136373a20637265617465206661696c656400000000000000000000600082015250565b7f4f776e61626c653a2063616c6c6572206973206e6f7420746865206f776e6572600082015250565b7f4661696c656420746f206469737472696275746520726576656e756520746f2060008201527f6c696d697465642065646974696f6e206d696e74657221000000000000000000602082015250565b50565b7f4661696c656420746f206469737472696275746520726576656e756520746f2060008201527f63726561746f7221000000000000000000000000000000000000000000000000602082015250565b7f5265636f7264206e6f7420666f756e6421000000000000000000000000000000600082015250565b7f4661696c656420746f206469737472696275746520726576656e756520746f2060008201527f6368617269747921000000000000000000000000000000000000000000000000602082015250565b61313181612dc6565b811461313c57600080fd5b50565b61314881612e0a565b811461315357600080fd5b5056fea2646970667358221220a41a984263b675c6eed39cb2702261f04bb6c3e65009dbe94ecd9cb4dbdf639364736f6c63430008040033",
  "linkReferences": {},
  "deployedLinkReferences": {}
}