{
  "_format": "hh-sol-artifact-1",
  "contractName": "Jukebox",
  "sourceName": "contracts/Jukebox.sol",
  "abi": [
    {
      "inputs": [
        {
          "internalType": "address",
          "name": "implementation__721",
          "type": "address"
        },
        {
          "internalType": "address",
          "name": "implementation__1155",
          "type": "address"
        }
      ],
      "stateMutability": "nonpayable",
      "type": "constructor"
    },
    {
      "anonymous": false,
      "inputs": [
        {
          "indexed": true,
          "internalType": "address",
          "name": "previousOwner",
          "type": "address"
        },
        {
          "indexed": true,
          "internalType": "address",
          "name": "newOwner",
          "type": "address"
        }
      ],
      "name": "OwnershipTransferred",
      "type": "event"
    },
    {
      "anonymous": false,
      "inputs": [
        {
          "indexed": false,
          "internalType": "address",
          "name": "record__721",
          "type": "address"
        },
        {
          "indexed": false,
          "internalType": "address",
          "name": "record__1155",
          "type": "address"
        }
      ],
      "name": "RecordPressed",
      "type": "event"
    },
    {
      "anonymous": false,
      "inputs": [
        {
          "indexed": false,
          "internalType": "address",
          "name": "record",
          "type": "address"
        }
      ],
      "name": "RecordPressed__1155",
      "type": "event"
    },
    {
      "anonymous": false,
      "inputs": [
        {
          "indexed": false,
          "internalType": "address",
          "name": "record",
          "type": "address"
        }
      ],
      "name": "RecordPressed__721",
      "type": "event"
    },
    {
      "inputs": [
        {
          "internalType": "uint256",
          "name": "",
          "type": "uint256"
        }
      ],
      "name": "catalog",
      "outputs": [
        {
          "internalType": "address",
          "name": "__721",
          "type": "address"
        },
        {
          "internalType": "address",
          "name": "__1155",
          "type": "address"
        },
        {
          "internalType": "address",
          "name": "charity",
          "type": "address"
        },
        {
          "internalType": "uint256",
          "name": "charityRoyalty",
          "type": "uint256"
        },
        {
          "internalType": "uint256",
          "name": "mintersRoyalty",
          "type": "uint256"
        },
        {
          "internalType": "uint256",
          "name": "jukeboxRoyalty",
          "type": "uint256"
        }
      ],
      "stateMutability": "view",
      "type": "function"
    },
    {
      "inputs": [
        {
          "internalType": "uint256",
          "name": "",
          "type": "uint256"
        }
      ],
      "name": "catalog__1155",
      "outputs": [
        {
          "internalType": "address",
          "name": "",
          "type": "address"
        }
      ],
      "stateMutability": "view",
      "type": "function"
    },
    {
      "inputs": [
        {
          "internalType": "uint256",
          "name": "",
          "type": "uint256"
        }
      ],
      "name": "catalog__721",
      "outputs": [
        {
          "internalType": "address",
          "name": "",
          "type": "address"
        }
      ],
      "stateMutability": "view",
      "type": "function"
    },
    {
      "inputs": [],
      "name": "getCatalog",
      "outputs": [
        {
          "components": [
            {
              "internalType": "address",
              "name": "__721",
              "type": "address"
            },
            {
              "internalType": "address",
              "name": "__1155",
              "type": "address"
            },
            {
              "internalType": "address",
              "name": "charity",
              "type": "address"
            },
            {
              "internalType": "uint256",
              "name": "charityRoyalty",
              "type": "uint256"
            },
            {
              "internalType": "uint256",
              "name": "mintersRoyalty",
              "type": "uint256"
            },
            {
              "internalType": "uint256",
              "name": "jukeboxRoyalty",
              "type": "uint256"
            }
          ],
          "internalType": "struct Jukebox.Record[]",
          "name": "",
          "type": "tuple[]"
        }
      ],
      "stateMutability": "view",
      "type": "function"
    },
    {
      "inputs": [
        {
          "internalType": "address",
          "name": "recordAddr",
          "type": "address"
        }
      ],
      "name": "mintRecord",
      "outputs": [],
      "stateMutability": "nonpayable",
      "type": "function"
    },
    {
      "inputs": [],
      "name": "owner",
      "outputs": [
        {
          "internalType": "address",
          "name": "",
          "type": "address"
        }
      ],
      "stateMutability": "view",
      "type": "function"
    },
    {
      "inputs": [
        {
          "internalType": "string",
          "name": "name",
          "type": "string"
        },
        {
          "internalType": "string",
          "name": "symbol",
          "type": "string"
        },
        {
          "internalType": "string",
          "name": "uri",
          "type": "string"
        },
        {
          "internalType": "uint256",
          "name": "ltdSupply",
          "type": "uint256"
        },
        {
          "internalType": "uint256",
          "name": "ltdPrice",
          "type": "uint256"
        },
        {
          "internalType": "uint256",
          "name": "price",
          "type": "uint256"
        },
        {
          "internalType": "address",
          "name": "charity",
          "type": "address"
        },
        {
          "internalType": "uint256",
          "name": "charityRoyalty",
          "type": "uint256"
        },
        {
          "internalType": "uint256",
          "name": "mintersRoyalty",
          "type": "uint256"
        },
        {
          "internalType": "uint256",
          "name": "jukeboxRoyalty",
          "type": "uint256"
        }
      ],
      "name": "pressRecord",
      "outputs": [],
      "stateMutability": "nonpayable",
      "type": "function"
    },
    {
      "inputs": [
        {
          "internalType": "string",
          "name": "name",
          "type": "string"
        },
        {
          "internalType": "string",
          "name": "symbol",
          "type": "string"
        },
        {
          "internalType": "string",
          "name": "uri",
          "type": "string"
        },
        {
          "internalType": "uint256",
          "name": "price",
          "type": "uint256"
        }
      ],
      "name": "press__1155",
      "outputs": [
        {
          "internalType": "address",
          "name": "record",
          "type": "address"
        }
      ],
      "stateMutability": "nonpayable",
      "type": "function"
    },
    {
      "inputs": [
        {
          "internalType": "string",
          "name": "name",
          "type": "string"
        },
        {
          "internalType": "string",
          "name": "symbol",
          "type": "string"
        },
        {
          "internalType": "string",
          "name": "uri",
          "type": "string"
        },
        {
          "internalType": "uint256",
          "name": "maxSupply",
          "type": "uint256"
        },
        {
          "internalType": "uint256",
          "name": "price",
          "type": "uint256"
        }
      ],
      "name": "press__721",
      "outputs": [
        {
          "internalType": "address",
          "name": "record",
          "type": "address"
        }
      ],
      "stateMutability": "nonpayable",
      "type": "function"
    },
    {
      "inputs": [],
      "name": "record__1155",
      "outputs": [
        {
          "internalType": "address",
          "name": "",
          "type": "address"
        }
      ],
      "stateMutability": "view",
      "type": "function"
    },
    {
      "inputs": [],
      "name": "record__721",
      "outputs": [
        {
          "internalType": "address",
          "name": "",
          "type": "address"
        }
      ],
      "stateMutability": "view",
      "type": "function"
    },
    {
      "inputs": [],
      "name": "renounceOwnership",
      "outputs": [],
      "stateMutability": "nonpayable",
      "type": "function"
    },
    {
      "inputs": [
        {
          "internalType": "address",
          "name": "newOwner",
          "type": "address"
        }
      ],
      "name": "transferOwnership",
      "outputs": [],
      "stateMutability": "nonpayable",
      "type": "function"
    }
  ],
  "bytecode": "0x60806040523480156200001157600080fd5b5060405162001be638038062001be68339818101604052810190620000379190620001c4565b620000576200004b620000e160201b60201c565b620000e960201b60201c565b81600160006101000a81548173ffffffffffffffffffffffffffffffffffffffff021916908373ffffffffffffffffffffffffffffffffffffffff16021790555080600260006101000a81548173ffffffffffffffffffffffffffffffffffffffff021916908373ffffffffffffffffffffffffffffffffffffffff160217905550505062000253565b600033905090565b60008060009054906101000a900473ffffffffffffffffffffffffffffffffffffffff169050816000806101000a81548173ffffffffffffffffffffffffffffffffffffffff021916908373ffffffffffffffffffffffffffffffffffffffff1602179055508173ffffffffffffffffffffffffffffffffffffffff168173ffffffffffffffffffffffffffffffffffffffff167f8be0079c531659141344cd1fd0a4f28419497f9722a3daafe3b4186f6b6457e060405160405180910390a35050565b600081519050620001be8162000239565b92915050565b60008060408385031215620001d857600080fd5b6000620001e885828601620001ad565b9250506020620001fb85828601620001ad565b9150509250929050565b6000620002128262000219565b9050919050565b600073ffffffffffffffffffffffffffffffffffffffff82169050919050565b620002448162000205565b81146200025057600080fd5b50565b61198380620002636000396000f3fe608060405234801561001057600080fd5b50600436106100cf5760003560e01c8063735dee371161008c5780639a1ce923116100665780639a1ce92314610200578063c0bf3e2314610230578063ea5de25b1461024e578063f2fde38b14610283576100cf565b8063735dee3714610182578063750191b3146101b25780638da5cb5b146101e2576100cf565b806302321884146100d45780632e4a745d146100f25780633074d75414610122578063494415b61461013e5780634bcf39381461015c578063715018a614610178575b600080fd5b6100dc61029f565b6040516100e991906114e5565b60405180910390f35b61010c6004803603810190610107919061127c565b6102c5565b60405161011991906114e5565b60405180910390f35b61013c60048036038101906101379190610fc6565b610304565b005b610146610393565b60405161015391906114e5565b60405180910390f35b61017660048036038101906101719190611159565b6103b9565b005b6101806105b0565b005b61019c60048036038101906101979190610fef565b610638565b6040516101a991906114e5565b60405180910390f35b6101cc60048036038101906101c7919061127c565b610814565b6040516101d991906114e5565b60405180910390f35b6101ea610853565b6040516101f791906114e5565b60405180910390f35b61021a6004803603810190610215919061109a565b61087c565b60405161022791906114e5565b60405180910390f35b610238610a5b565b604051610245919061158a565b60405180910390f35b6102686004803603810190610263919061127c565b610bda565b60405161027a96959493929190611529565b60405180910390f35b61029d60048036038101906102989190610fc6565b610c86565b005b600260009054906101000a900473ffffffffffffffffffffffffffffffffffffffff1681565b600481815481106102d557600080fd5b906000526020600020016000915054906101000a900473ffffffffffffffffffffffffffffffffffffffff1681565b8073ffffffffffffffffffffffffffffffffffffffff16636a627842336040518263ffffffff1660e01b815260040161033d91906114e5565b602060405180830381600087803b15801561035757600080fd5b505af115801561036b573d6000803e3d6000fd5b505050506040513d601f19601f8201168201806040525081019061038f91906112a5565b5050565b600160009054906101000a900473ffffffffffffffffffffffffffffffffffffffff1681565b60006103c88b8b8b8b8b61087c565b905060006103d88c8c8c8a610638565b905060056040518060c001604052808473ffffffffffffffffffffffffffffffffffffffff1681526020018373ffffffffffffffffffffffffffffffffffffffff1681526020018873ffffffffffffffffffffffffffffffffffffffff16815260200187815260200186815260200185815250908060018154018082558091505060019003906000526020600020906006020160009091909190915060008201518160000160006101000a81548173ffffffffffffffffffffffffffffffffffffffff021916908373ffffffffffffffffffffffffffffffffffffffff16021790555060208201518160010160006101000a81548173ffffffffffffffffffffffffffffffffffffffff021916908373ffffffffffffffffffffffffffffffffffffffff16021790555060408201518160020160006101000a81548173ffffffffffffffffffffffffffffffffffffffff021916908373ffffffffffffffffffffffffffffffffffffffff160217905550606082015181600301556080820151816004015560a0820151816005015550507f4ccbb2f04845b27a87373555c912e89e466603782c4c897f34f108843e2c0b71828260405161059a929190611500565b60405180910390a1505050505050505050505050565b6105b8610d7e565b73ffffffffffffffffffffffffffffffffffffffff166105d6610853565b73ffffffffffffffffffffffffffffffffffffffff161461062c576040517f08c379a0000000000000000000000000000000000000000000000000000000008152600401610623906116ae565b60405180910390fd5b6106366000610d86565b565b6000610665600260009054906101000a900473ffffffffffffffffffffffffffffffffffffffff16610e4a565b905060008173ffffffffffffffffffffffffffffffffffffffff168686868660405160240161069794939291906115ac565b6040516020818303038152906040527f1c5d2b49000000000000000000000000000000000000000000000000000000007bffffffffffffffffffffffffffffffffffffffffffffffffffffffff19166020820180517bffffffffffffffffffffffffffffffffffffffffffffffffffffffff838183161783525050505060405161072191906114ce565b6000604051808303816000865af19150503d806000811461075e576040519150601f19603f3d011682016040523d82523d6000602084013e610763565b606091505b505090508061077157600080fd5b6004829080600181540180825580915050600190039060005260206000200160009091909190916101000a81548173ffffffffffffffffffffffffffffffffffffffff021916908373ffffffffffffffffffffffffffffffffffffffff1602179055507f62c20f485c04ac8c3e5595fc1f2574acb36349232dd0618015ee3b417b24cb9d8260405161080391906114e5565b60405180910390a150949350505050565b6003818154811061082457600080fd5b906000526020600020016000915054906101000a900473ffffffffffffffffffffffffffffffffffffffff1681565b60008060009054906101000a900473ffffffffffffffffffffffffffffffffffffffff16905090565b60006108a9600160009054906101000a900473ffffffffffffffffffffffffffffffffffffffff16610e4a565b905060008173ffffffffffffffffffffffffffffffffffffffff1687878787876040516024016108dd959493929190611606565b6040516020818303038152906040527f80ddd09f000000000000000000000000000000000000000000000000000000007bffffffffffffffffffffffffffffffffffffffffffffffffffffffff19166020820180517bffffffffffffffffffffffffffffffffffffffffffffffffffffffff838183161783525050505060405161096791906114ce565b6000604051808303816000865af19150503d80600081146109a4576040519150601f19603f3d011682016040523d82523d6000602084013e6109a9565b606091505b50509050806109b757600080fd5b6003829080600181540180825580915050600190039060005260206000200160009091909190916101000a81548173ffffffffffffffffffffffffffffffffffffffff021916908373ffffffffffffffffffffffffffffffffffffffff1602179055507f5977599f84c7560300f76907ca57f2836924cfc767d2ad830b3d15ba7a380a8882604051610a4991906114e5565b60405180910390a15095945050505050565b60606005805480602002602001604051908101604052809291908181526020016000905b82821015610bd157838290600052602060002090600602016040518060c00160405290816000820160009054906101000a900473ffffffffffffffffffffffffffffffffffffffff1673ffffffffffffffffffffffffffffffffffffffff1673ffffffffffffffffffffffffffffffffffffffff1681526020016001820160009054906101000a900473ffffffffffffffffffffffffffffffffffffffff1673ffffffffffffffffffffffffffffffffffffffff1673ffffffffffffffffffffffffffffffffffffffff1681526020016002820160009054906101000a900473ffffffffffffffffffffffffffffffffffffffff1673ffffffffffffffffffffffffffffffffffffffff1673ffffffffffffffffffffffffffffffffffffffff168152602001600382015481526020016004820154815260200160058201548152505081526020019060010190610a7f565b50505050905090565b60058181548110610bea57600080fd5b90600052602060002090600602016000915090508060000160009054906101000a900473ffffffffffffffffffffffffffffffffffffffff16908060010160009054906101000a900473ffffffffffffffffffffffffffffffffffffffff16908060020160009054906101000a900473ffffffffffffffffffffffffffffffffffffffff16908060030154908060040154908060050154905086565b610c8e610d7e565b73ffffffffffffffffffffffffffffffffffffffff16610cac610853565b73ffffffffffffffffffffffffffffffffffffffff1614610d02576040517f08c379a0000000000000000000000000000000000000000000000000000000008152600401610cf9906116ae565b60405180910390fd5b600073ffffffffffffffffffffffffffffffffffffffff168173ffffffffffffffffffffffffffffffffffffffff161415610d72576040517f08c379a0000000000000000000000000000000000000000000000000000000008152600401610d699061166e565b60405180910390fd5b610d7b81610d86565b50565b600033905090565b60008060009054906101000a900473ffffffffffffffffffffffffffffffffffffffff169050816000806101000a81548173ffffffffffffffffffffffffffffffffffffffff021916908373ffffffffffffffffffffffffffffffffffffffff1602179055508173ffffffffffffffffffffffffffffffffffffffff168173ffffffffffffffffffffffffffffffffffffffff167f8be0079c531659141344cd1fd0a4f28419497f9722a3daafe3b4186f6b6457e060405160405180910390a35050565b60006040517f3d602d80600a3d3981f3363d3d373d3d3d363d7300000000000000000000000081528260601b60148201527f5af43d82803e903d91602b57fd5bf3000000000000000000000000000000000060288201526037816000f0915050600073ffffffffffffffffffffffffffffffffffffffff168173ffffffffffffffffffffffffffffffffffffffff161415610f1a576040517f08c379a0000000000000000000000000000000000000000000000000000000008152600401610f119061168e565b60405180910390fd5b919050565b6000610f32610f2d846116f3565b6116ce565b905082815260208101848484011115610f4a57600080fd5b610f558482856117cb565b509392505050565b600081359050610f6c8161191f565b92915050565b600082601f830112610f8357600080fd5b8135610f93848260208601610f1f565b91505092915050565b600081359050610fab81611936565b92915050565b600081519050610fc081611936565b92915050565b600060208284031215610fd857600080fd5b6000610fe684828501610f5d565b91505092915050565b6000806000806080858703121561100557600080fd5b600085013567ffffffffffffffff81111561101f57600080fd5b61102b87828801610f72565b945050602085013567ffffffffffffffff81111561104857600080fd5b61105487828801610f72565b935050604085013567ffffffffffffffff81111561107157600080fd5b61107d87828801610f72565b925050606061108e87828801610f9c565b91505092959194509250565b600080600080600060a086880312156110b257600080fd5b600086013567ffffffffffffffff8111156110cc57600080fd5b6110d888828901610f72565b955050602086013567ffffffffffffffff8111156110f557600080fd5b61110188828901610f72565b945050604086013567ffffffffffffffff81111561111e57600080fd5b61112a88828901610f72565b935050606061113b88828901610f9c565b925050608061114c88828901610f9c565b9150509295509295909350565b6000806000806000806000806000806101408b8d03121561117957600080fd5b60008b013567ffffffffffffffff81111561119357600080fd5b61119f8d828e01610f72565b9a505060208b013567ffffffffffffffff8111156111bc57600080fd5b6111c88d828e01610f72565b99505060408b013567ffffffffffffffff8111156111e557600080fd5b6111f18d828e01610f72565b98505060606112028d828e01610f9c565b97505060806112138d828e01610f9c565b96505060a06112248d828e01610f9c565b95505060c06112358d828e01610f5d565b94505060e06112468d828e01610f9c565b9350506101006112588d828e01610f9c565b92505061012061126a8d828e01610f9c565b9150509295989b9194979a5092959850565b60006020828403121561128e57600080fd5b600061129c84828501610f9c565b91505092915050565b6000602082840312156112b757600080fd5b60006112c584828501610fb1565b91505092915050565b60006112da8383611435565b60c08301905092915050565b6112ef8161178f565b82525050565b6112fe8161178f565b82525050565b600061130f82611734565b6113198185611762565b935061132483611724565b8060005b8381101561135557815161133c88826112ce565b975061134783611755565b925050600181019050611328565b5085935050505092915050565b600061136d8261173f565b6113778185611773565b93506113878185602086016117da565b80840191505092915050565b600061139e8261174a565b6113a8818561177e565b93506113b88185602086016117da565b6113c18161186d565b840191505092915050565b60006113d960268361177e565b91506113e48261187e565b604082019050919050565b60006113fc60168361177e565b9150611407826118cd565b602082019050919050565b600061141f60208361177e565b915061142a826118f6565b602082019050919050565b60c08201600082015161144b60008501826112e6565b50602082015161145e60208501826112e6565b50604082015161147160408501826112e6565b50606082015161148460608501826114b0565b50608082015161149760808501826114b0565b5060a08201516114aa60a08501826114b0565b50505050565b6114b9816117c1565b82525050565b6114c8816117c1565b82525050565b60006114da8284611362565b915081905092915050565b60006020820190506114fa60008301846112f5565b92915050565b600060408201905061151560008301856112f5565b61152260208301846112f5565b9392505050565b600060c08201905061153e60008301896112f5565b61154b60208301886112f5565b61155860408301876112f5565b61156560608301866114bf565b61157260808301856114bf565b61157f60a08301846114bf565b979650505050505050565b600060208201905081810360008301526115a48184611304565b905092915050565b600060808201905081810360008301526115c68187611393565b905081810360208301526115da8186611393565b905081810360408301526115ee8185611393565b90506115fd60608301846114bf565b95945050505050565b600060a08201905081810360008301526116208188611393565b905081810360208301526116348187611393565b905081810360408301526116488186611393565b905061165760608301856114bf565b61166460808301846114bf565b9695505050505050565b60006020820190508181036000830152611687816113cc565b9050919050565b600060208201905081810360008301526116a7816113ef565b9050919050565b600060208201905081810360008301526116c781611412565b9050919050565b60006116d86116e9565b90506116e4828261180d565b919050565b6000604051905090565b600067ffffffffffffffff82111561170e5761170d61183e565b5b6117178261186d565b9050602081019050919050565b6000819050602082019050919050565b600081519050919050565b600081519050919050565b600081519050919050565b6000602082019050919050565b600082825260208201905092915050565b600081905092915050565b600082825260208201905092915050565b600061179a826117a1565b9050919050565b600073ffffffffffffffffffffffffffffffffffffffff82169050919050565b6000819050919050565b82818337600083830152505050565b60005b838110156117f85780820151818401526020810190506117dd565b83811115611807576000848401525b50505050565b6118168261186d565b810181811067ffffffffffffffff821117156118355761183461183e565b5b80604052505050565b7f4e487b7100000000000000000000000000000000000000000000000000000000600052604160045260246000fd5b6000601f19601f8301169050919050565b7f4f776e61626c653a206e6577206f776e657220697320746865207a65726f206160008201527f6464726573730000000000000000000000000000000000000000000000000000602082015250565b7f455243313136373a20637265617465206661696c656400000000000000000000600082015250565b7f4f776e61626c653a2063616c6c6572206973206e6f7420746865206f776e6572600082015250565b6119288161178f565b811461193357600080fd5b50565b61193f816117c1565b811461194a57600080fd5b5056fea26469706673582212206f1441d9ed8527558cf01bb82da5d6068f1c7787a63224d4ca171d67ab6df1e164736f6c63430008040033",
  "linkReferences": {},
  "deployedLinkReferences": {}
}