{
  "_format": "hh-sol-artifact-1",
  "contractName": "Record__721",
  "sourceName": "contracts/Record__721.sol",
  "abi": [
    {
      "anonymous": false,
      "inputs": [
        {
          "indexed": true,
          "internalType": "address",
          "name": "owner",
          "type": "address"
        },
        {
          "indexed": true,
          "internalType": "address",
          "name": "approved",
          "type": "address"
        },
        {
          "indexed": true,
          "internalType": "uint256",
          "name": "tokenId",
          "type": "uint256"
        }
      ],
      "name": "Approval",
      "type": "event"
    },
    {
      "anonymous": false,
      "inputs": [
        {
          "indexed": true,
          "internalType": "address",
          "name": "owner",
          "type": "address"
        },
        {
          "indexed": true,
          "internalType": "address",
          "name": "operator",
          "type": "address"
        },
        {
          "indexed": false,
          "internalType": "bool",
          "name": "approved",
          "type": "bool"
        }
      ],
      "name": "ApprovalForAll",
      "type": "event"
    },
    {
      "anonymous": false,
      "inputs": [
        {
          "indexed": true,
          "internalType": "address",
          "name": "previousOwner",
          "type": "address"
        },
        {
          "indexed": true,
          "internalType": "address",
          "name": "newOwner",
          "type": "address"
        }
      ],
      "name": "OwnershipTransferred",
      "type": "event"
    },
    {
      "anonymous": false,
      "inputs": [
        {
          "indexed": true,
          "internalType": "address",
          "name": "from",
          "type": "address"
        },
        {
          "indexed": true,
          "internalType": "address",
          "name": "to",
          "type": "address"
        },
        {
          "indexed": true,
          "internalType": "uint256",
          "name": "tokenId",
          "type": "uint256"
        }
      ],
      "name": "Transfer",
      "type": "event"
    },
    {
      "inputs": [],
      "name": "_maxSupply",
      "outputs": [
        {
          "internalType": "uint256",
          "name": "",
          "type": "uint256"
        }
      ],
      "stateMutability": "view",
      "type": "function"
    },
    {
      "inputs": [],
      "name": "_price",
      "outputs": [
        {
          "internalType": "uint256",
          "name": "",
          "type": "uint256"
        }
      ],
      "stateMutability": "view",
      "type": "function"
    },
    {
      "inputs": [],
      "name": "_uri",
      "outputs": [
        {
          "internalType": "string",
          "name": "",
          "type": "string"
        }
      ],
      "stateMutability": "view",
      "type": "function"
    },
    {
      "inputs": [
        {
          "internalType": "address",
          "name": "to",
          "type": "address"
        },
        {
          "internalType": "uint256",
          "name": "tokenId",
          "type": "uint256"
        }
      ],
      "name": "approve",
      "outputs": [],
      "stateMutability": "nonpayable",
      "type": "function"
    },
    {
      "inputs": [
        {
          "internalType": "address",
          "name": "owner",
          "type": "address"
        }
      ],
      "name": "balanceOf",
      "outputs": [
        {
          "internalType": "uint256",
          "name": "",
          "type": "uint256"
        }
      ],
      "stateMutability": "view",
      "type": "function"
    },
    {
      "inputs": [
        {
          "internalType": "uint256",
          "name": "tokenId",
          "type": "uint256"
        }
      ],
      "name": "getApproved",
      "outputs": [
        {
          "internalType": "address",
          "name": "",
          "type": "address"
        }
      ],
      "stateMutability": "view",
      "type": "function"
    },
    {
      "inputs": [
        {
          "internalType": "string",
          "name": "name_",
          "type": "string"
        },
        {
          "internalType": "string",
          "name": "symbol_",
          "type": "string"
        },
        {
          "internalType": "string",
          "name": "uri",
          "type": "string"
        },
        {
          "internalType": "uint256",
          "name": "maxSupply",
          "type": "uint256"
        },
        {
          "internalType": "uint256",
          "name": "price",
          "type": "uint256"
        }
      ],
      "name": "initialize",
      "outputs": [],
      "stateMutability": "nonpayable",
      "type": "function"
    },
    {
      "inputs": [
        {
          "internalType": "address",
          "name": "owner",
          "type": "address"
        },
        {
          "internalType": "address",
          "name": "operator",
          "type": "address"
        }
      ],
      "name": "isApprovedForAll",
      "outputs": [
        {
          "internalType": "bool",
          "name": "",
          "type": "bool"
        }
      ],
      "stateMutability": "view",
      "type": "function"
    },
    {
      "inputs": [
        {
          "internalType": "address",
          "name": "to",
          "type": "address"
        },
        {
          "internalType": "uint256",
          "name": "price",
          "type": "uint256"
        }
      ],
      "name": "mint",
      "outputs": [
        {
          "internalType": "uint256",
          "name": "",
          "type": "uint256"
        }
      ],
      "stateMutability": "nonpayable",
      "type": "function"
    },
    {
      "inputs": [],
      "name": "name",
      "outputs": [
        {
          "internalType": "string",
          "name": "",
          "type": "string"
        }
      ],
      "stateMutability": "view",
      "type": "function"
    },
    {
      "inputs": [],
      "name": "owner",
      "outputs": [
        {
          "internalType": "address",
          "name": "",
          "type": "address"
        }
      ],
      "stateMutability": "view",
      "type": "function"
    },
    {
      "inputs": [
        {
          "internalType": "uint256",
          "name": "tokenId",
          "type": "uint256"
        }
      ],
      "name": "ownerOf",
      "outputs": [
        {
          "internalType": "address",
          "name": "",
          "type": "address"
        }
      ],
      "stateMutability": "view",
      "type": "function"
    },
    {
      "inputs": [],
      "name": "renounceOwnership",
      "outputs": [],
      "stateMutability": "nonpayable",
      "type": "function"
    },
    {
      "inputs": [
        {
          "internalType": "address",
          "name": "from",
          "type": "address"
        },
        {
          "internalType": "address",
          "name": "to",
          "type": "address"
        },
        {
          "internalType": "uint256",
          "name": "tokenId",
          "type": "uint256"
        }
      ],
      "name": "safeTransferFrom",
      "outputs": [],
      "stateMutability": "nonpayable",
      "type": "function"
    },
    {
      "inputs": [
        {
          "internalType": "address",
          "name": "from",
          "type": "address"
        },
        {
          "internalType": "address",
          "name": "to",
          "type": "address"
        },
        {
          "internalType": "uint256",
          "name": "tokenId",
          "type": "uint256"
        },
        {
          "internalType": "bytes",
          "name": "_data",
          "type": "bytes"
        }
      ],
      "name": "safeTransferFrom",
      "outputs": [],
      "stateMutability": "nonpayable",
      "type": "function"
    },
    {
      "inputs": [
        {
          "internalType": "address",
          "name": "operator",
          "type": "address"
        },
        {
          "internalType": "bool",
          "name": "approved",
          "type": "bool"
        }
      ],
      "name": "setApprovalForAll",
      "outputs": [],
      "stateMutability": "nonpayable",
      "type": "function"
    },
    {
      "inputs": [
        {
          "internalType": "bytes4",
          "name": "interfaceId",
          "type": "bytes4"
        }
      ],
      "name": "supportsInterface",
      "outputs": [
        {
          "internalType": "bool",
          "name": "",
          "type": "bool"
        }
      ],
      "stateMutability": "view",
      "type": "function"
    },
    {
      "inputs": [],
      "name": "symbol",
      "outputs": [
        {
          "internalType": "string",
          "name": "",
          "type": "string"
        }
      ],
      "stateMutability": "view",
      "type": "function"
    },
    {
      "inputs": [
        {
          "internalType": "uint256",
          "name": "index",
          "type": "uint256"
        }
      ],
      "name": "tokenByIndex",
      "outputs": [
        {
          "internalType": "uint256",
          "name": "",
          "type": "uint256"
        }
      ],
      "stateMutability": "view",
      "type": "function"
    },
    {
      "inputs": [
        {
          "internalType": "address",
          "name": "owner",
          "type": "address"
        },
        {
          "internalType": "uint256",
          "name": "index",
          "type": "uint256"
        }
      ],
      "name": "tokenOfOwnerByIndex",
      "outputs": [
        {
          "internalType": "uint256",
          "name": "",
          "type": "uint256"
        }
      ],
      "stateMutability": "view",
      "type": "function"
    },
    {
      "inputs": [
        {
          "internalType": "uint256",
          "name": "tokenId",
          "type": "uint256"
        }
      ],
      "name": "tokenURI",
      "outputs": [
        {
          "internalType": "string",
          "name": "",
          "type": "string"
        }
      ],
      "stateMutability": "view",
      "type": "function"
    },
    {
      "inputs": [],
      "name": "totalSupply",
      "outputs": [
        {
          "internalType": "uint256",
          "name": "",
          "type": "uint256"
        }
      ],
      "stateMutability": "view",
      "type": "function"
    },
    {
      "inputs": [
        {
          "internalType": "address",
          "name": "from",
          "type": "address"
        },
        {
          "internalType": "address",
          "name": "to",
          "type": "address"
        },
        {
          "internalType": "uint256",
          "name": "tokenId",
          "type": "uint256"
        }
      ],
      "name": "transferFrom",
      "outputs": [],
      "stateMutability": "nonpayable",
      "type": "function"
    },
    {
      "inputs": [
        {
          "internalType": "address",
          "name": "newOwner",
          "type": "address"
        }
      ],
      "name": "transferOwnership",
      "outputs": [],
      "stateMutability": "nonpayable",
      "type": "function"
    }
  ],
  "bytecode": "0x60806040523480156200001157600080fd5b5062000032620000266200003860201b60201c565b6200004060201b60201c565b62000106565b600033905090565b6000600a60029054906101000a900473ffffffffffffffffffffffffffffffffffffffff16905081600a60026101000a81548173ffffffffffffffffffffffffffffffffffffffff021916908373ffffffffffffffffffffffffffffffffffffffff1602179055508173ffffffffffffffffffffffffffffffffffffffff168173ffffffffffffffffffffffffffffffffffffffff167f8be0079c531659141344cd1fd0a4f28419497f9722a3daafe3b4186f6b6457e060405160405180910390a35050565b61368a80620001166000396000f3fe608060405234801561001057600080fd5b50600436106101585760003560e01c80634f6ccce7116100c357806395d89b411161007c57806395d89b41146103db578063a22cb465146103f9578063b88d4fde14610415578063c87b56dd14610431578063e985e9c514610461578063f2fde38b1461049157610158565b80634f6ccce7146103075780636352211e1461033757806370a0823114610367578063715018a61461039757806380ddd09f146103a15780638da5cb5b146103bd57610158565b806322f4596f1161011557806322f4596f14610233578063235b6ea11461025157806323b872dd1461026f5780632f745c591461028b57806340c10f19146102bb57806342842e0e146102eb57610158565b806301ffc9a71461015d57806306fdde031461018d578063081812fc146101ab578063095ea7b3146101db5780630dccc9ad146101f757806318160ddd14610215575b600080fd5b610177600480360381019061017291906125b6565b6104ad565b6040516101849190612ab2565b60405180910390f35b610195610527565b6040516101a29190612acd565b60405180910390f35b6101c560048036038101906101c091906126c7565b6105b9565b6040516101d29190612a4b565b60405180910390f35b6101f560048036038101906101f0919061257a565b61063e565b005b6101ff610756565b60405161020c9190612acd565b60405180910390f35b61021d6107e4565b60405161022a9190612d6f565b60405180910390f35b61023b6107f1565b6040516102489190612d6f565b60405180910390f35b6102596107f7565b6040516102669190612d6f565b60405180910390f35b61028960048036038101906102849190612474565b6107fd565b005b6102a560048036038101906102a0919061257a565b61085d565b6040516102b29190612d6f565b60405180910390f35b6102d560048036038101906102d0919061257a565b610902565b6040516102e29190612d6f565b60405180910390f35b61030560048036038101906103009190612474565b6109f1565b005b610321600480360381019061031c91906126c7565b610a11565b60405161032e9190612d6f565b60405180910390f35b610351600480360381019061034c91906126c7565b610aa8565b60405161035e9190612a4b565b60405180910390f35b610381600480360381019061037c919061240f565b610b5a565b60405161038e9190612d6f565b60405180910390f35b61039f610c12565b005b6103bb60048036038101906103b69190612608565b610c9a565b005b6103c5610deb565b6040516103d29190612a4b565b60405180910390f35b6103e3610e15565b6040516103f09190612acd565b60405180910390f35b610413600480360381019061040e919061253e565b610ea7565b005b61042f600480360381019061042a91906124c3565b610ebd565b005b61044b600480360381019061044691906126c7565b610f1f565b6040516104589190612acd565b60405180910390f35b61047b60048036038101906104769190612438565b610ffb565b6040516104889190612ab2565b60405180910390f35b6104ab60048036038101906104a6919061240f565b61108f565b005b60007f780e9d63000000000000000000000000000000000000000000000000000000007bffffffffffffffffffffffffffffffffffffffffffffffffffffffff1916827bffffffffffffffffffffffffffffffffffffffffffffffffffffffff19161480610520575061051f82611187565b5b9050919050565b60606000805461053690612f89565b80601f016020809104026020016040519081016040528092919081815260200182805461056290612f89565b80156105af5780601f10610584576101008083540402835291602001916105af565b820191906000526020600020905b81548152906001019060200180831161059257829003601f168201915b5050505050905090565b60006105c482611269565b610603576040517f08c379a00000000000000000000000000000000000000000000000000000000081526004016105fa90612c8f565b60405180910390fd5b6004600083815260200190815260200160002060009054906101000a900473ffffffffffffffffffffffffffffffffffffffff169050919050565b600061064982610aa8565b90508073ffffffffffffffffffffffffffffffffffffffff168373ffffffffffffffffffffffffffffffffffffffff1614156106ba576040517f08c379a00000000000000000000000000000000000000000000000000000000081526004016106b190612cef565b60405180910390fd5b8073ffffffffffffffffffffffffffffffffffffffff166106d96112d5565b73ffffffffffffffffffffffffffffffffffffffff1614806107085750610707816107026112d5565b610ffb565b5b610747576040517f08c379a000000000000000000000000000000000000000000000000000000000815260040161073e90612bef565b60405180910390fd5b61075183836112dd565b505050565b600c805461076390612f89565b80601f016020809104026020016040519081016040528092919081815260200182805461078f90612f89565b80156107dc5780601f106107b1576101008083540402835291602001916107dc565b820191906000526020600020905b8154815290600101906020018083116107bf57829003601f168201915b505050505081565b6000600880549050905090565b600d5481565b600e5481565b61080e6108086112d5565b82611396565b61084d576040517f08c379a000000000000000000000000000000000000000000000000000000000815260040161084490612d2f565b60405180910390fd5b610858838383611474565b505050565b600061086883610b5a565b82106108a9576040517f08c379a00000000000000000000000000000000000000000000000000000000081526004016108a090612aef565b60405180910390fd5b600660008473ffffffffffffffffffffffffffffffffffffffff1673ffffffffffffffffffffffffffffffffffffffff168152602001908152602001600020600083815260200190815260200160002054905092915050565b600061090c6112d5565b73ffffffffffffffffffffffffffffffffffffffff1661092a610deb565b73ffffffffffffffffffffffffffffffffffffffff1614610980576040517f08c379a000000000000000000000000000000000000000000000000000000000815260040161097790612caf565b60405180910390fd5b600e548210156109c5576040517f08c379a00000000000000000000000000000000000000000000000000000000081526004016109bc90612d0f565b60405180910390fd5b6109cf600b6116db565b60006109db600b6116f1565b90506109e784826116ff565b8091505092915050565b610a0c83838360405180602001604052806000815250610ebd565b505050565b6000610a1b6107e4565b8210610a5c576040517f08c379a0000000000000000000000000000000000000000000000000000000008152600401610a5390612d4f565b60405180910390fd5b60088281548110610a96577f4e487b7100000000000000000000000000000000000000000000000000000000600052603260045260246000fd5b90600052602060002001549050919050565b6000806002600084815260200190815260200160002060009054906101000a900473ffffffffffffffffffffffffffffffffffffffff169050600073ffffffffffffffffffffffffffffffffffffffff168173ffffffffffffffffffffffffffffffffffffffff161415610b51576040517f08c379a0000000000000000000000000000000000000000000000000000000008152600401610b4890612c2f565b60405180910390fd5b80915050919050565b60008073ffffffffffffffffffffffffffffffffffffffff168273ffffffffffffffffffffffffffffffffffffffff161415610bcb576040517f08c379a0000000000000000000000000000000000000000000000000000000008152600401610bc290612c0f565b60405180910390fd5b600360008373ffffffffffffffffffffffffffffffffffffffff1673ffffffffffffffffffffffffffffffffffffffff168152602001908152602001600020549050919050565b610c1a6112d5565b73ffffffffffffffffffffffffffffffffffffffff16610c38610deb565b73ffffffffffffffffffffffffffffffffffffffff1614610c8e576040517f08c379a0000000000000000000000000000000000000000000000000000000008152600401610c8590612caf565b60405180910390fd5b610c9860006118d9565b565b600a60019054906101000a900460ff16610cc457600a60009054906101000a900460ff1615610ccd565b610ccc61199f565b5b610d0c576040517f08c379a0000000000000000000000000000000000000000000000000000000008152600401610d0390612c4f565b60405180910390fd5b6000600a60019054906101000a900460ff161590508015610d5e576001600a60016101000a81548160ff0219169083151502179055506001600a60006101000a81548160ff0219169083151502179055505b8560009080519060200190610d74929190612233565b508460019080519060200190610d8b929190612233565b5083600c9080519060200190610da2929190612233565b5082600d8190555081600e81905550610dc1610dbc6112d5565b6118d9565b8015610de3576000600a60016101000a81548160ff0219169083151502179055505b505050505050565b6000600a60029054906101000a900473ffffffffffffffffffffffffffffffffffffffff16905090565b606060018054610e2490612f89565b80601f0160208091040260200160405190810160405280929190818152602001828054610e5090612f89565b8015610e9d5780601f10610e7257610100808354040283529160200191610e9d565b820191906000526020600020905b815481529060010190602001808311610e8057829003601f168201915b5050505050905090565b610eb9610eb26112d5565b83836119b0565b5050565b610ece610ec86112d5565b83611396565b610f0d576040517f08c379a0000000000000000000000000000000000000000000000000000000008152600401610f0490612d2f565b60405180910390fd5b610f1984848484611b1d565b50505050565b6060610f2a82611269565b610f69576040517f08c379a0000000000000000000000000000000000000000000000000000000008152600401610f6090612ccf565b60405180910390fd5b600c8054610f7690612f89565b80601f0160208091040260200160405190810160405280929190818152602001828054610fa290612f89565b8015610fef5780601f10610fc457610100808354040283529160200191610fef565b820191906000526020600020905b815481529060010190602001808311610fd257829003601f168201915b50505050509050919050565b6000600560008473ffffffffffffffffffffffffffffffffffffffff1673ffffffffffffffffffffffffffffffffffffffff16815260200190815260200160002060008373ffffffffffffffffffffffffffffffffffffffff1673ffffffffffffffffffffffffffffffffffffffff16815260200190815260200160002060009054906101000a900460ff16905092915050565b6110976112d5565b73ffffffffffffffffffffffffffffffffffffffff166110b5610deb565b73ffffffffffffffffffffffffffffffffffffffff161461110b576040517f08c379a000000000000000000000000000000000000000000000000000000000815260040161110290612caf565b60405180910390fd5b600073ffffffffffffffffffffffffffffffffffffffff168173ffffffffffffffffffffffffffffffffffffffff16141561117b576040517f08c379a000000000000000000000000000000000000000000000000000000000815260040161117290612b2f565b60405180910390fd5b611184816118d9565b50565b60007f80ac58cd000000000000000000000000000000000000000000000000000000007bffffffffffffffffffffffffffffffffffffffffffffffffffffffff1916827bffffffffffffffffffffffffffffffffffffffffffffffffffffffff1916148061125257507f5b5e139f000000000000000000000000000000000000000000000000000000007bffffffffffffffffffffffffffffffffffffffffffffffffffffffff1916827bffffffffffffffffffffffffffffffffffffffffffffffffffffffff1916145b80611262575061126182611b79565b5b9050919050565b60008073ffffffffffffffffffffffffffffffffffffffff166002600084815260200190815260200160002060009054906101000a900473ffffffffffffffffffffffffffffffffffffffff1673ffffffffffffffffffffffffffffffffffffffff1614159050919050565b600033905090565b816004600083815260200190815260200160002060006101000a81548173ffffffffffffffffffffffffffffffffffffffff021916908373ffffffffffffffffffffffffffffffffffffffff160217905550808273ffffffffffffffffffffffffffffffffffffffff1661135083610aa8565b73ffffffffffffffffffffffffffffffffffffffff167f8c5be1e5ebec7d5bd14f71427d1e84f3dd0314c0f7b2291e5b200ac8c7c3b92560405160405180910390a45050565b60006113a182611269565b6113e0576040517f08c379a00000000000000000000000000000000000000000000000000000000081526004016113d790612bcf565b60405180910390fd5b60006113eb83610aa8565b90508073ffffffffffffffffffffffffffffffffffffffff168473ffffffffffffffffffffffffffffffffffffffff16148061145a57508373ffffffffffffffffffffffffffffffffffffffff16611442846105b9565b73ffffffffffffffffffffffffffffffffffffffff16145b8061146b575061146a8185610ffb565b5b91505092915050565b8273ffffffffffffffffffffffffffffffffffffffff1661149482610aa8565b73ffffffffffffffffffffffffffffffffffffffff16146114ea576040517f08c379a00000000000000000000000000000000000000000000000000000000081526004016114e190612b4f565b60405180910390fd5b600073ffffffffffffffffffffffffffffffffffffffff168273ffffffffffffffffffffffffffffffffffffffff16141561155a576040517f08c379a000000000000000000000000000000000000000000000000000000000815260040161155190612b8f565b60405180910390fd5b611565838383611be3565b6115706000826112dd565b6001600360008573ffffffffffffffffffffffffffffffffffffffff1673ffffffffffffffffffffffffffffffffffffffff16815260200190815260200160002060008282546115c09190612e9f565b925050819055506001600360008473ffffffffffffffffffffffffffffffffffffffff1673ffffffffffffffffffffffffffffffffffffffff16815260200190815260200160002060008282546116179190612e49565b92505081905550816002600083815260200190815260200160002060006101000a81548173ffffffffffffffffffffffffffffffffffffffff021916908373ffffffffffffffffffffffffffffffffffffffff160217905550808273ffffffffffffffffffffffffffffffffffffffff168473ffffffffffffffffffffffffffffffffffffffff167fddf252ad1be2c89b69c2b068fc378daa952ba7f163c4a11628f55a4df523b3ef60405160405180910390a46116d6838383611cf7565b505050565b6001816000016000828254019250508190555050565b600081600001549050919050565b600073ffffffffffffffffffffffffffffffffffffffff168273ffffffffffffffffffffffffffffffffffffffff16141561176f576040517f08c379a000000000000000000000000000000000000000000000000000000000815260040161176690612c6f565b60405180910390fd5b61177881611269565b156117b8576040517f08c379a00000000000000000000000000000000000000000000000000000000081526004016117af90612b6f565b60405180910390fd5b6117c460008383611be3565b6001600360008473ffffffffffffffffffffffffffffffffffffffff1673ffffffffffffffffffffffffffffffffffffffff16815260200190815260200160002060008282546118149190612e49565b92505081905550816002600083815260200190815260200160002060006101000a81548173ffffffffffffffffffffffffffffffffffffffff021916908373ffffffffffffffffffffffffffffffffffffffff160217905550808273ffffffffffffffffffffffffffffffffffffffff16600073ffffffffffffffffffffffffffffffffffffffff167fddf252ad1be2c89b69c2b068fc378daa952ba7f163c4a11628f55a4df523b3ef60405160405180910390a46118d560008383611cf7565b5050565b6000600a60029054906101000a900473ffffffffffffffffffffffffffffffffffffffff16905081600a60026101000a81548173ffffffffffffffffffffffffffffffffffffffff021916908373ffffffffffffffffffffffffffffffffffffffff1602179055508173ffffffffffffffffffffffffffffffffffffffff168173ffffffffffffffffffffffffffffffffffffffff167f8be0079c531659141344cd1fd0a4f28419497f9722a3daafe3b4186f6b6457e060405160405180910390a35050565b60006119aa30611cfc565b15905090565b8173ffffffffffffffffffffffffffffffffffffffff168373ffffffffffffffffffffffffffffffffffffffff161415611a1f576040517f08c379a0000000000000000000000000000000000000000000000000000000008152600401611a1690612baf565b60405180910390fd5b80600560008573ffffffffffffffffffffffffffffffffffffffff1673ffffffffffffffffffffffffffffffffffffffff16815260200190815260200160002060008473ffffffffffffffffffffffffffffffffffffffff1673ffffffffffffffffffffffffffffffffffffffff16815260200190815260200160002060006101000a81548160ff0219169083151502179055508173ffffffffffffffffffffffffffffffffffffffff168373ffffffffffffffffffffffffffffffffffffffff167f17307eab39ab6107e8899845ad3d59bd9653f200f220920489ca2b5937696c3183604051611b109190612ab2565b60405180910390a3505050565b611b28848484611474565b611b3484848484611d1f565b611b73576040517f08c379a0000000000000000000000000000000000000000000000000000000008152600401611b6a90612b0f565b60405180910390fd5b50505050565b60007f01ffc9a7000000000000000000000000000000000000000000000000000000007bffffffffffffffffffffffffffffffffffffffffffffffffffffffff1916827bffffffffffffffffffffffffffffffffffffffffffffffffffffffff1916149050919050565b611bee838383611eb6565b600073ffffffffffffffffffffffffffffffffffffffff168373ffffffffffffffffffffffffffffffffffffffff161415611c3157611c2c81611ebb565b611c70565b8173ffffffffffffffffffffffffffffffffffffffff168373ffffffffffffffffffffffffffffffffffffffff1614611c6f57611c6e8382611f04565b5b5b600073ffffffffffffffffffffffffffffffffffffffff168273ffffffffffffffffffffffffffffffffffffffff161415611cb357611cae81612071565b611cf2565b8273ffffffffffffffffffffffffffffffffffffffff168273ffffffffffffffffffffffffffffffffffffffff1614611cf157611cf082826121b4565b5b5b505050565b505050565b6000808273ffffffffffffffffffffffffffffffffffffffff163b119050919050565b6000611d408473ffffffffffffffffffffffffffffffffffffffff16611cfc565b15611ea9578373ffffffffffffffffffffffffffffffffffffffff1663150b7a02611d696112d5565b8786866040518563ffffffff1660e01b8152600401611d8b9493929190612a66565b602060405180830381600087803b158015611da557600080fd5b505af1925050508015611dd657506040513d601f19601f82011682018060405250810190611dd391906125df565b60015b611e59573d8060008114611e06576040519150601f19603f3d011682016040523d82523d6000602084013e611e0b565b606091505b50600081511415611e51576040517f08c379a0000000000000000000000000000000000000000000000000000000008152600401611e4890612b0f565b60405180910390fd5b805181602001fd5b63150b7a0260e01b7bffffffffffffffffffffffffffffffffffffffffffffffffffffffff1916817bffffffffffffffffffffffffffffffffffffffffffffffffffffffff191614915050611eae565b600190505b949350505050565b505050565b6008805490506009600083815260200190815260200160002081905550600881908060018154018082558091505060019003906000526020600020016000909190919091505550565b60006001611f1184610b5a565b611f1b9190612e9f565b9050600060076000848152602001908152602001600020549050818114612000576000600660008673ffffffffffffffffffffffffffffffffffffffff1673ffffffffffffffffffffffffffffffffffffffff168152602001908152602001600020600084815260200190815260200160002054905080600660008773ffffffffffffffffffffffffffffffffffffffff1673ffffffffffffffffffffffffffffffffffffffff168152602001908152602001600020600084815260200190815260200160002081905550816007600083815260200190815260200160002081905550505b6007600084815260200190815260200160002060009055600660008573ffffffffffffffffffffffffffffffffffffffff1673ffffffffffffffffffffffffffffffffffffffff16815260200190815260200160002060008381526020019081526020016000206000905550505050565b600060016008805490506120859190612e9f565b90506000600960008481526020019081526020016000205490506000600883815481106120db577f4e487b7100000000000000000000000000000000000000000000000000000000600052603260045260246000fd5b906000526020600020015490508060088381548110612123577f4e487b7100000000000000000000000000000000000000000000000000000000600052603260045260246000fd5b906000526020600020018190555081600960008381526020019081526020016000208190555060096000858152602001908152602001600020600090556008805480612198577f4e487b7100000000000000000000000000000000000000000000000000000000600052603160045260246000fd5b6001900381819060005260206000200160009055905550505050565b60006121bf83610b5a565b905081600660008573ffffffffffffffffffffffffffffffffffffffff1673ffffffffffffffffffffffffffffffffffffffff168152602001908152602001600020600083815260200190815260200160002081905550806007600084815260200190815260200160002081905550505050565b82805461223f90612f89565b90600052602060002090601f01602090048101928261226157600085556122a8565b82601f1061227a57805160ff19168380011785556122a8565b828001600101855582156122a8579182015b828111156122a757825182559160200191906001019061228c565b5b5090506122b591906122b9565b5090565b5b808211156122d25760008160009055506001016122ba565b5090565b60006122e96122e484612daf565b612d8a565b90508281526020810184848401111561230157600080fd5b61230c848285612f47565b509392505050565b600061232761232284612de0565b612d8a565b90508281526020810184848401111561233f57600080fd5b61234a848285612f47565b509392505050565b600081359050612361816135f8565b92915050565b6000813590506123768161360f565b92915050565b60008135905061238b81613626565b92915050565b6000815190506123a081613626565b92915050565b600082601f8301126123b757600080fd5b81356123c78482602086016122d6565b91505092915050565b600082601f8301126123e157600080fd5b81356123f1848260208601612314565b91505092915050565b6000813590506124098161363d565b92915050565b60006020828403121561242157600080fd5b600061242f84828501612352565b91505092915050565b6000806040838503121561244b57600080fd5b600061245985828601612352565b925050602061246a85828601612352565b9150509250929050565b60008060006060848603121561248957600080fd5b600061249786828701612352565b93505060206124a886828701612352565b92505060406124b9868287016123fa565b9150509250925092565b600080600080608085870312156124d957600080fd5b60006124e787828801612352565b94505060206124f887828801612352565b9350506040612509878288016123fa565b925050606085013567ffffffffffffffff81111561252657600080fd5b612532878288016123a6565b91505092959194509250565b6000806040838503121561255157600080fd5b600061255f85828601612352565b925050602061257085828601612367565b9150509250929050565b6000806040838503121561258d57600080fd5b600061259b85828601612352565b92505060206125ac858286016123fa565b9150509250929050565b6000602082840312156125c857600080fd5b60006125d68482850161237c565b91505092915050565b6000602082840312156125f157600080fd5b60006125ff84828501612391565b91505092915050565b600080600080600060a0868803121561262057600080fd5b600086013567ffffffffffffffff81111561263a57600080fd5b612646888289016123d0565b955050602086013567ffffffffffffffff81111561266357600080fd5b61266f888289016123d0565b945050604086013567ffffffffffffffff81111561268c57600080fd5b612698888289016123d0565b93505060606126a9888289016123fa565b92505060806126ba888289016123fa565b9150509295509295909350565b6000602082840312156126d957600080fd5b60006126e7848285016123fa565b91505092915050565b6126f981612ed3565b82525050565b61270881612ee5565b82525050565b600061271982612e11565b6127238185612e27565b9350612733818560208601612f56565b61273c81613079565b840191505092915050565b600061275282612e1c565b61275c8185612e38565b935061276c818560208601612f56565b61277581613079565b840191505092915050565b600061278d602b83612e38565b91506127988261308a565b604082019050919050565b60006127b0603283612e38565b91506127bb826130d9565b604082019050919050565b60006127d3602683612e38565b91506127de82613128565b604082019050919050565b60006127f6602583612e38565b915061280182613177565b604082019050919050565b6000612819601c83612e38565b9150612824826131c6565b602082019050919050565b600061283c602483612e38565b9150612847826131ef565b604082019050919050565b600061285f601983612e38565b915061286a8261323e565b602082019050919050565b6000612882602c83612e38565b915061288d82613267565b604082019050919050565b60006128a5603883612e38565b91506128b0826132b6565b604082019050919050565b60006128c8602a83612e38565b91506128d382613305565b604082019050919050565b60006128eb602983612e38565b91506128f682613354565b604082019050919050565b600061290e602e83612e38565b9150612919826133a3565b604082019050919050565b6000612931602083612e38565b915061293c826133f2565b602082019050919050565b6000612954602c83612e38565b915061295f8261341b565b604082019050919050565b6000612977602083612e38565b91506129828261346a565b602082019050919050565b600061299a602f83612e38565b91506129a582613493565b604082019050919050565b60006129bd602183612e38565b91506129c8826134e2565b604082019050919050565b60006129e0601e83612e38565b91506129eb82613531565b602082019050919050565b6000612a03603183612e38565b9150612a0e8261355a565b604082019050919050565b6000612a26602c83612e38565b9150612a31826135a9565b604082019050919050565b612a4581612f3d565b82525050565b6000602082019050612a6060008301846126f0565b92915050565b6000608082019050612a7b60008301876126f0565b612a8860208301866126f0565b612a956040830185612a3c565b8181036060830152612aa7818461270e565b905095945050505050565b6000602082019050612ac760008301846126ff565b92915050565b60006020820190508181036000830152612ae78184612747565b905092915050565b60006020820190508181036000830152612b0881612780565b9050919050565b60006020820190508181036000830152612b28816127a3565b9050919050565b60006020820190508181036000830152612b48816127c6565b9050919050565b60006020820190508181036000830152612b68816127e9565b9050919050565b60006020820190508181036000830152612b888161280c565b9050919050565b60006020820190508181036000830152612ba88161282f565b9050919050565b60006020820190508181036000830152612bc881612852565b9050919050565b60006020820190508181036000830152612be881612875565b9050919050565b60006020820190508181036000830152612c0881612898565b9050919050565b60006020820190508181036000830152612c28816128bb565b9050919050565b60006020820190508181036000830152612c48816128de565b9050919050565b60006020820190508181036000830152612c6881612901565b9050919050565b60006020820190508181036000830152612c8881612924565b9050919050565b60006020820190508181036000830152612ca881612947565b9050919050565b60006020820190508181036000830152612cc88161296a565b9050919050565b60006020820190508181036000830152612ce88161298d565b9050919050565b60006020820190508181036000830152612d08816129b0565b9050919050565b60006020820190508181036000830152612d28816129d3565b9050919050565b60006020820190508181036000830152612d48816129f6565b9050919050565b60006020820190508181036000830152612d6881612a19565b9050919050565b6000602082019050612d846000830184612a3c565b92915050565b6000612d94612da5565b9050612da08282612fbb565b919050565b6000604051905090565b600067ffffffffffffffff821115612dca57612dc961304a565b5b612dd382613079565b9050602081019050919050565b600067ffffffffffffffff821115612dfb57612dfa61304a565b5b612e0482613079565b9050602081019050919050565b600081519050919050565b600081519050919050565b600082825260208201905092915050565b600082825260208201905092915050565b6000612e5482612f3d565b9150612e5f83612f3d565b9250827fffffffffffffffffffffffffffffffffffffffffffffffffffffffffffffffff03821115612e9457612e93612fec565b5b828201905092915050565b6000612eaa82612f3d565b9150612eb583612f3d565b925082821015612ec857612ec7612fec565b5b828203905092915050565b6000612ede82612f1d565b9050919050565b60008115159050919050565b60007fffffffff0000000000000000000000000000000000000000000000000000000082169050919050565b600073ffffffffffffffffffffffffffffffffffffffff82169050919050565b6000819050919050565b82818337600083830152505050565b60005b83811015612f74578082015181840152602081019050612f59565b83811115612f83576000848401525b50505050565b60006002820490506001821680612fa157607f821691505b60208210811415612fb557612fb461301b565b5b50919050565b612fc482613079565b810181811067ffffffffffffffff82111715612fe357612fe261304a565b5b80604052505050565b7f4e487b7100000000000000000000000000000000000000000000000000000000600052601160045260246000fd5b7f4e487b7100000000000000000000000000000000000000000000000000000000600052602260045260246000fd5b7f4e487b7100000000000000000000000000000000000000000000000000000000600052604160045260246000fd5b6000601f19601f8301169050919050565b7f455243373231456e756d657261626c653a206f776e657220696e646578206f7560008201527f74206f6620626f756e6473000000000000000000000000000000000000000000602082015250565b7f4552433732313a207472616e7366657220746f206e6f6e20455243373231526560008201527f63656976657220696d706c656d656e7465720000000000000000000000000000602082015250565b7f4f776e61626c653a206e6577206f776e657220697320746865207a65726f206160008201527f6464726573730000000000000000000000000000000000000000000000000000602082015250565b7f4552433732313a207472616e736665722066726f6d20696e636f72726563742060008201527f6f776e6572000000000000000000000000000000000000000000000000000000602082015250565b7f4552433732313a20746f6b656e20616c7265616479206d696e74656400000000600082015250565b7f4552433732313a207472616e7366657220746f20746865207a65726f2061646460008201527f7265737300000000000000000000000000000000000000000000000000000000602082015250565b7f4552433732313a20617070726f766520746f2063616c6c657200000000000000600082015250565b7f4552433732313a206f70657261746f7220717565727920666f72206e6f6e657860008201527f697374656e7420746f6b656e0000000000000000000000000000000000000000602082015250565b7f4552433732313a20617070726f76652063616c6c6572206973206e6f74206f7760008201527f6e6572206e6f7220617070726f76656420666f7220616c6c0000000000000000602082015250565b7f4552433732313a2062616c616e636520717565727920666f7220746865207a6560008201527f726f206164647265737300000000000000000000000000000000000000000000602082015250565b7f4552433732313a206f776e657220717565727920666f72206e6f6e657869737460008201527f656e7420746f6b656e0000000000000000000000000000000000000000000000602082015250565b7f496e697469616c697a61626c653a20636f6e747261637420697320616c72656160008201527f647920696e697469616c697a6564000000000000000000000000000000000000602082015250565b7f4552433732313a206d696e7420746f20746865207a65726f2061646472657373600082015250565b7f4552433732313a20617070726f76656420717565727920666f72206e6f6e657860008201527f697374656e7420746f6b656e0000000000000000000000000000000000000000602082015250565b7f4f776e61626c653a2063616c6c6572206973206e6f7420746865206f776e6572600082015250565b7f4552433732314d657461646174613a2055524920717565727920666f72206e6f60008201527f6e6578697374656e7420746f6b656e0000000000000000000000000000000000602082015250565b7f4552433732313a20617070726f76616c20746f2063757272656e74206f776e6560008201527f7200000000000000000000000000000000000000000000000000000000000000602082015250565b7f546865206d696e696d756d20707269636520776173206e6f74206d6574210000600082015250565b7f4552433732313a207472616e736665722063616c6c6572206973206e6f74206f60008201527f776e6572206e6f7220617070726f766564000000000000000000000000000000602082015250565b7f455243373231456e756d657261626c653a20676c6f62616c20696e646578206f60008201527f7574206f6620626f756e64730000000000000000000000000000000000000000602082015250565b61360181612ed3565b811461360c57600080fd5b50565b61361881612ee5565b811461362357600080fd5b50565b61362f81612ef1565b811461363a57600080fd5b50565b61364681612f3d565b811461365157600080fd5b5056fea2646970667358221220a7804110ac12a248490cb1d295a9cbd5851d2a802969b197709da1863e2601f564736f6c63430008040033",
  "linkReferences": {},
  "deployedLinkReferences": {}
}