{
  "_format": "hh-sol-artifact-1",
  "contractName": "Record__721",
  "sourceName": "contracts/Record__721.sol",
  "abi": [
    {
      "anonymous": false,
      "inputs": [
        {
          "indexed": true,
          "internalType": "address",
          "name": "owner",
          "type": "address"
        },
        {
          "indexed": true,
          "internalType": "address",
          "name": "approved",
          "type": "address"
        },
        {
          "indexed": true,
          "internalType": "uint256",
          "name": "tokenId",
          "type": "uint256"
        }
      ],
      "name": "Approval",
      "type": "event"
    },
    {
      "anonymous": false,
      "inputs": [
        {
          "indexed": true,
          "internalType": "address",
          "name": "owner",
          "type": "address"
        },
        {
          "indexed": true,
          "internalType": "address",
          "name": "operator",
          "type": "address"
        },
        {
          "indexed": false,
          "internalType": "bool",
          "name": "approved",
          "type": "bool"
        }
      ],
      "name": "ApprovalForAll",
      "type": "event"
    },
    {
      "anonymous": false,
      "inputs": [
        {
          "indexed": true,
          "internalType": "address",
          "name": "from",
          "type": "address"
        },
        {
          "indexed": true,
          "internalType": "address",
          "name": "to",
          "type": "address"
        },
        {
          "indexed": true,
          "internalType": "uint256",
          "name": "tokenId",
          "type": "uint256"
        }
      ],
      "name": "Transfer",
      "type": "event"
    },
    {
      "inputs": [],
      "name": "_maxSupply",
      "outputs": [
        {
          "internalType": "uint256",
          "name": "",
          "type": "uint256"
        }
      ],
      "stateMutability": "view",
      "type": "function"
    },
    {
      "inputs": [],
      "name": "_price",
      "outputs": [
        {
          "internalType": "uint256",
          "name": "",
          "type": "uint256"
        }
      ],
      "stateMutability": "view",
      "type": "function"
    },
    {
      "inputs": [],
      "name": "_uri",
      "outputs": [
        {
          "internalType": "string",
          "name": "",
          "type": "string"
        }
      ],
      "stateMutability": "view",
      "type": "function"
    },
    {
      "inputs": [
        {
          "internalType": "address",
          "name": "to",
          "type": "address"
        },
        {
          "internalType": "uint256",
          "name": "tokenId",
          "type": "uint256"
        }
      ],
      "name": "approve",
      "outputs": [],
      "stateMutability": "nonpayable",
      "type": "function"
    },
    {
      "inputs": [
        {
          "internalType": "address",
          "name": "owner",
          "type": "address"
        }
      ],
      "name": "balanceOf",
      "outputs": [
        {
          "internalType": "uint256",
          "name": "",
          "type": "uint256"
        }
      ],
      "stateMutability": "view",
      "type": "function"
    },
    {
      "inputs": [
        {
          "internalType": "uint256",
          "name": "tokenId",
          "type": "uint256"
        }
      ],
      "name": "getApproved",
      "outputs": [
        {
          "internalType": "address",
          "name": "",
          "type": "address"
        }
      ],
      "stateMutability": "view",
      "type": "function"
    },
    {
      "inputs": [
        {
          "internalType": "string",
          "name": "name_",
          "type": "string"
        },
        {
          "internalType": "string",
          "name": "symbol_",
          "type": "string"
        },
        {
          "internalType": "string",
          "name": "uri",
          "type": "string"
        },
        {
          "internalType": "uint256",
          "name": "maxSupply",
          "type": "uint256"
        },
        {
          "internalType": "uint256",
          "name": "price",
          "type": "uint256"
        }
      ],
      "name": "initialize",
      "outputs": [],
      "stateMutability": "nonpayable",
      "type": "function"
    },
    {
      "inputs": [
        {
          "internalType": "address",
          "name": "owner",
          "type": "address"
        },
        {
          "internalType": "address",
          "name": "operator",
          "type": "address"
        }
      ],
      "name": "isApprovedForAll",
      "outputs": [
        {
          "internalType": "bool",
          "name": "",
          "type": "bool"
        }
      ],
      "stateMutability": "view",
      "type": "function"
    },
    {
      "inputs": [
        {
          "internalType": "address",
          "name": "to",
          "type": "address"
        }
      ],
      "name": "mint",
      "outputs": [
        {
          "internalType": "uint256",
          "name": "",
          "type": "uint256"
        }
      ],
      "stateMutability": "nonpayable",
      "type": "function"
    },
    {
      "inputs": [],
      "name": "name",
      "outputs": [
        {
          "internalType": "string",
          "name": "",
          "type": "string"
        }
      ],
      "stateMutability": "view",
      "type": "function"
    },
    {
      "inputs": [
        {
          "internalType": "uint256",
          "name": "tokenId",
          "type": "uint256"
        }
      ],
      "name": "ownerOf",
      "outputs": [
        {
          "internalType": "address",
          "name": "",
          "type": "address"
        }
      ],
      "stateMutability": "view",
      "type": "function"
    },
    {
      "inputs": [
        {
          "internalType": "address",
          "name": "from",
          "type": "address"
        },
        {
          "internalType": "address",
          "name": "to",
          "type": "address"
        },
        {
          "internalType": "uint256",
          "name": "tokenId",
          "type": "uint256"
        }
      ],
      "name": "safeTransferFrom",
      "outputs": [],
      "stateMutability": "nonpayable",
      "type": "function"
    },
    {
      "inputs": [
        {
          "internalType": "address",
          "name": "from",
          "type": "address"
        },
        {
          "internalType": "address",
          "name": "to",
          "type": "address"
        },
        {
          "internalType": "uint256",
          "name": "tokenId",
          "type": "uint256"
        },
        {
          "internalType": "bytes",
          "name": "_data",
          "type": "bytes"
        }
      ],
      "name": "safeTransferFrom",
      "outputs": [],
      "stateMutability": "nonpayable",
      "type": "function"
    },
    {
      "inputs": [
        {
          "internalType": "address",
          "name": "operator",
          "type": "address"
        },
        {
          "internalType": "bool",
          "name": "approved",
          "type": "bool"
        }
      ],
      "name": "setApprovalForAll",
      "outputs": [],
      "stateMutability": "nonpayable",
      "type": "function"
    },
    {
      "inputs": [
        {
          "internalType": "bytes4",
          "name": "interfaceId",
          "type": "bytes4"
        }
      ],
      "name": "supportsInterface",
      "outputs": [
        {
          "internalType": "bool",
          "name": "",
          "type": "bool"
        }
      ],
      "stateMutability": "view",
      "type": "function"
    },
    {
      "inputs": [],
      "name": "symbol",
      "outputs": [
        {
          "internalType": "string",
          "name": "",
          "type": "string"
        }
      ],
      "stateMutability": "view",
      "type": "function"
    },
    {
      "inputs": [
        {
          "internalType": "uint256",
          "name": "index",
          "type": "uint256"
        }
      ],
      "name": "tokenByIndex",
      "outputs": [
        {
          "internalType": "uint256",
          "name": "",
          "type": "uint256"
        }
      ],
      "stateMutability": "view",
      "type": "function"
    },
    {
      "inputs": [
        {
          "internalType": "address",
          "name": "owner",
          "type": "address"
        },
        {
          "internalType": "uint256",
          "name": "index",
          "type": "uint256"
        }
      ],
      "name": "tokenOfOwnerByIndex",
      "outputs": [
        {
          "internalType": "uint256",
          "name": "",
          "type": "uint256"
        }
      ],
      "stateMutability": "view",
      "type": "function"
    },
    {
      "inputs": [
        {
          "internalType": "uint256",
          "name": "tokenId",
          "type": "uint256"
        }
      ],
      "name": "tokenURI",
      "outputs": [
        {
          "internalType": "string",
          "name": "",
          "type": "string"
        }
      ],
      "stateMutability": "view",
      "type": "function"
    },
    {
      "inputs": [],
      "name": "totalSupply",
      "outputs": [
        {
          "internalType": "uint256",
          "name": "",
          "type": "uint256"
        }
      ],
      "stateMutability": "view",
      "type": "function"
    },
    {
      "inputs": [
        {
          "internalType": "address",
          "name": "from",
          "type": "address"
        },
        {
          "internalType": "address",
          "name": "to",
          "type": "address"
        },
        {
          "internalType": "uint256",
          "name": "tokenId",
          "type": "uint256"
        }
      ],
      "name": "transferFrom",
      "outputs": [],
      "stateMutability": "nonpayable",
      "type": "function"
    }
  ],
  "bytecode": "0x608060405234801561001057600080fd5b50613179806100206000396000f3fe608060405234801561001057600080fd5b50600436106101375760003560e01c806342842e0e116100b857806380ddd09f1161007c57806380ddd09f1461037657806395d89b4114610392578063a22cb465146103b0578063b88d4fde146103cc578063c87b56dd146103e8578063e985e9c51461041857610137565b806342842e0e1461029a5780634f6ccce7146102b65780636352211e146102e65780636a6278421461031657806370a082311461034657610137565b806318160ddd116100ff57806318160ddd146101f457806322f4596f14610212578063235b6ea11461023057806323b872dd1461024e5780632f745c591461026a57610137565b806301ffc9a71461013c57806306fdde031461016c578063081812fc1461018a578063095ea7b3146101ba5780630dccc9ad146101d6575b600080fd5b6101566004803603810190610151919061220f565b610448565b60405161016391906126a2565b60405180910390f35b6101746104c2565b60405161018191906126bd565b60405180910390f35b6101a4600480360381019061019f9190612320565b610554565b6040516101b1919061263b565b60405180910390f35b6101d460048036038101906101cf91906121d3565b6105d9565b005b6101de6106f1565b6040516101eb91906126bd565b60405180910390f35b6101fc61077f565b60405161020991906128ff565b60405180910390f35b61021a61078c565b60405161022791906128ff565b60405180910390f35b610238610792565b60405161024591906128ff565b60405180910390f35b610268600480360381019061026391906120cd565b610798565b005b610284600480360381019061027f91906121d3565b6107f8565b60405161029191906128ff565b60405180910390f35b6102b460048036038101906102af91906120cd565b61089d565b005b6102d060048036038101906102cb9190612320565b6108bd565b6040516102dd91906128ff565b60405180910390f35b61030060048036038101906102fb9190612320565b610954565b60405161030d919061263b565b60405180910390f35b610330600480360381019061032b9190612068565b610a06565b60405161033d91906128ff565b60405180910390f35b610360600480360381019061035b9190612068565b610a33565b60405161036d91906128ff565b60405180910390f35b610390600480360381019061038b9190612261565b610aeb565b005b61039a610c2c565b6040516103a791906126bd565b60405180910390f35b6103ca60048036038101906103c59190612197565b610cbe565b005b6103e660048036038101906103e1919061211c565b610cd4565b005b61040260048036038101906103fd9190612320565b610d36565b60405161040f91906126bd565b60405180910390f35b610432600480360381019061042d9190612091565b610e12565b60405161043f91906126a2565b60405180910390f35b60007f780e9d63000000000000000000000000000000000000000000000000000000007bffffffffffffffffffffffffffffffffffffffffffffffffffffffff1916827bffffffffffffffffffffffffffffffffffffffffffffffffffffffff191614806104bb57506104ba82610ea6565b5b9050919050565b6060600080546104d190612b19565b80601f01602080910402602001604051908101604052809291908181526020018280546104fd90612b19565b801561054a5780601f1061051f5761010080835404028352916020019161054a565b820191906000526020600020905b81548152906001019060200180831161052d57829003601f168201915b5050505050905090565b600061055f82610f88565b61059e576040517f08c379a00000000000000000000000000000000000000000000000000000000081526004016105959061285f565b60405180910390fd5b6004600083815260200190815260200160002060009054906101000a900473ffffffffffffffffffffffffffffffffffffffff169050919050565b60006105e482610954565b90508073ffffffffffffffffffffffffffffffffffffffff168373ffffffffffffffffffffffffffffffffffffffff161415610655576040517f08c379a000000000000000000000000000000000000000000000000000000000815260040161064c9061289f565b60405180910390fd5b8073ffffffffffffffffffffffffffffffffffffffff16610674610ff4565b73ffffffffffffffffffffffffffffffffffffffff1614806106a357506106a28161069d610ff4565b610e12565b5b6106e2576040517f08c379a00000000000000000000000000000000000000000000000000000000081526004016106d9906127bf565b60405180910390fd5b6106ec8383610ffc565b505050565b600c80546106fe90612b19565b80601f016020809104026020016040519081016040528092919081815260200182805461072a90612b19565b80156107775780601f1061074c57610100808354040283529160200191610777565b820191906000526020600020905b81548152906001019060200180831161075a57829003601f168201915b505050505081565b6000600880549050905090565b600d5481565b600e5481565b6107a96107a3610ff4565b826110b5565b6107e8576040517f08c379a00000000000000000000000000000000000000000000000000000000081526004016107df906128bf565b60405180910390fd5b6107f3838383611193565b505050565b600061080383610a33565b8210610844576040517f08c379a000000000000000000000000000000000000000000000000000000000815260040161083b906126df565b60405180910390fd5b600660008473ffffffffffffffffffffffffffffffffffffffff1673ffffffffffffffffffffffffffffffffffffffff168152602001908152602001600020600083815260200190815260200160002054905092915050565b6108b883838360405180602001604052806000815250610cd4565b505050565b60006108c761077f565b8210610908576040517f08c379a00000000000000000000000000000000000000000000000000000000081526004016108ff906128df565b60405180910390fd5b60088281548110610942577f4e487b7100000000000000000000000000000000000000000000000000000000600052603260045260246000fd5b90600052602060002001549050919050565b6000806002600084815260200190815260200160002060009054906101000a900473ffffffffffffffffffffffffffffffffffffffff169050600073ffffffffffffffffffffffffffffffffffffffff168173ffffffffffffffffffffffffffffffffffffffff1614156109fd576040517f08c379a00000000000000000000000000000000000000000000000000000000081526004016109f4906127ff565b60405180910390fd5b80915050919050565b6000610a12600b6113fa565b6000610a1e600b611410565b9050610a2a838261141e565b80915050919050565b60008073ffffffffffffffffffffffffffffffffffffffff168273ffffffffffffffffffffffffffffffffffffffff161415610aa4576040517f08c379a0000000000000000000000000000000000000000000000000000000008152600401610a9b906127df565b60405180910390fd5b600360008373ffffffffffffffffffffffffffffffffffffffff1673ffffffffffffffffffffffffffffffffffffffff168152602001908152602001600020549050919050565b600a60019054906101000a900460ff16610b1557600a60009054906101000a900460ff1615610b1e565b610b1d6115f8565b5b610b5d576040517f08c379a0000000000000000000000000000000000000000000000000000000008152600401610b549061281f565b60405180910390fd5b6000600a60019054906101000a900460ff161590508015610baf576001600a60016101000a81548160ff0219169083151502179055506001600a60006101000a81548160ff0219169083151502179055505b8560009080519060200190610bc5929190611e8c565b508460019080519060200190610bdc929190611e8c565b5083600c9080519060200190610bf3929190611e8c565b5082600d8190555081600e819055508015610c24576000600a60016101000a81548160ff0219169083151502179055505b505050505050565b606060018054610c3b90612b19565b80601f0160208091040260200160405190810160405280929190818152602001828054610c6790612b19565b8015610cb45780601f10610c8957610100808354040283529160200191610cb4565b820191906000526020600020905b815481529060010190602001808311610c9757829003601f168201915b5050505050905090565b610cd0610cc9610ff4565b8383611609565b5050565b610ce5610cdf610ff4565b836110b5565b610d24576040517f08c379a0000000000000000000000000000000000000000000000000000000008152600401610d1b906128bf565b60405180910390fd5b610d3084848484611776565b50505050565b6060610d4182610f88565b610d80576040517f08c379a0000000000000000000000000000000000000000000000000000000008152600401610d779061287f565b60405180910390fd5b600c8054610d8d90612b19565b80601f0160208091040260200160405190810160405280929190818152602001828054610db990612b19565b8015610e065780601f10610ddb57610100808354040283529160200191610e06565b820191906000526020600020905b815481529060010190602001808311610de957829003601f168201915b50505050509050919050565b6000600560008473ffffffffffffffffffffffffffffffffffffffff1673ffffffffffffffffffffffffffffffffffffffff16815260200190815260200160002060008373ffffffffffffffffffffffffffffffffffffffff1673ffffffffffffffffffffffffffffffffffffffff16815260200190815260200160002060009054906101000a900460ff16905092915050565b60007f80ac58cd000000000000000000000000000000000000000000000000000000007bffffffffffffffffffffffffffffffffffffffffffffffffffffffff1916827bffffffffffffffffffffffffffffffffffffffffffffffffffffffff19161480610f7157507f5b5e139f000000000000000000000000000000000000000000000000000000007bffffffffffffffffffffffffffffffffffffffffffffffffffffffff1916827bffffffffffffffffffffffffffffffffffffffffffffffffffffffff1916145b80610f815750610f80826117d2565b5b9050919050565b60008073ffffffffffffffffffffffffffffffffffffffff166002600084815260200190815260200160002060009054906101000a900473ffffffffffffffffffffffffffffffffffffffff1673ffffffffffffffffffffffffffffffffffffffff1614159050919050565b600033905090565b816004600083815260200190815260200160002060006101000a81548173ffffffffffffffffffffffffffffffffffffffff021916908373ffffffffffffffffffffffffffffffffffffffff160217905550808273ffffffffffffffffffffffffffffffffffffffff1661106f83610954565b73ffffffffffffffffffffffffffffffffffffffff167f8c5be1e5ebec7d5bd14f71427d1e84f3dd0314c0f7b2291e5b200ac8c7c3b92560405160405180910390a45050565b60006110c082610f88565b6110ff576040517f08c379a00000000000000000000000000000000000000000000000000000000081526004016110f69061279f565b60405180910390fd5b600061110a83610954565b90508073ffffffffffffffffffffffffffffffffffffffff168473ffffffffffffffffffffffffffffffffffffffff16148061117957508373ffffffffffffffffffffffffffffffffffffffff1661116184610554565b73ffffffffffffffffffffffffffffffffffffffff16145b8061118a57506111898185610e12565b5b91505092915050565b8273ffffffffffffffffffffffffffffffffffffffff166111b382610954565b73ffffffffffffffffffffffffffffffffffffffff1614611209576040517f08c379a00000000000000000000000000000000000000000000000000000000081526004016112009061271f565b60405180910390fd5b600073ffffffffffffffffffffffffffffffffffffffff168273ffffffffffffffffffffffffffffffffffffffff161415611279576040517f08c379a00000000000000000000000000000000000000000000000000000000081526004016112709061275f565b60405180910390fd5b61128483838361183c565b61128f600082610ffc565b6001600360008573ffffffffffffffffffffffffffffffffffffffff1673ffffffffffffffffffffffffffffffffffffffff16815260200190815260200160002060008282546112df9190612a2f565b925050819055506001600360008473ffffffffffffffffffffffffffffffffffffffff1673ffffffffffffffffffffffffffffffffffffffff168152602001908152602001600020600082825461133691906129d9565b92505081905550816002600083815260200190815260200160002060006101000a81548173ffffffffffffffffffffffffffffffffffffffff021916908373ffffffffffffffffffffffffffffffffffffffff160217905550808273ffffffffffffffffffffffffffffffffffffffff168473ffffffffffffffffffffffffffffffffffffffff167fddf252ad1be2c89b69c2b068fc378daa952ba7f163c4a11628f55a4df523b3ef60405160405180910390a46113f5838383611950565b505050565b6001816000016000828254019250508190555050565b600081600001549050919050565b600073ffffffffffffffffffffffffffffffffffffffff168273ffffffffffffffffffffffffffffffffffffffff16141561148e576040517f08c379a00000000000000000000000000000000000000000000000000000000081526004016114859061283f565b60405180910390fd5b61149781610f88565b156114d7576040517f08c379a00000000000000000000000000000000000000000000000000000000081526004016114ce9061273f565b60405180910390fd5b6114e36000838361183c565b6001600360008473ffffffffffffffffffffffffffffffffffffffff1673ffffffffffffffffffffffffffffffffffffffff168152602001908152602001600020600082825461153391906129d9565b92505081905550816002600083815260200190815260200160002060006101000a81548173ffffffffffffffffffffffffffffffffffffffff021916908373ffffffffffffffffffffffffffffffffffffffff160217905550808273ffffffffffffffffffffffffffffffffffffffff16600073ffffffffffffffffffffffffffffffffffffffff167fddf252ad1be2c89b69c2b068fc378daa952ba7f163c4a11628f55a4df523b3ef60405160405180910390a46115f460008383611950565b5050565b600061160330611955565b15905090565b8173ffffffffffffffffffffffffffffffffffffffff168373ffffffffffffffffffffffffffffffffffffffff161415611678576040517f08c379a000000000000000000000000000000000000000000000000000000000815260040161166f9061277f565b60405180910390fd5b80600560008573ffffffffffffffffffffffffffffffffffffffff1673ffffffffffffffffffffffffffffffffffffffff16815260200190815260200160002060008473ffffffffffffffffffffffffffffffffffffffff1673ffffffffffffffffffffffffffffffffffffffff16815260200190815260200160002060006101000a81548160ff0219169083151502179055508173ffffffffffffffffffffffffffffffffffffffff168373ffffffffffffffffffffffffffffffffffffffff167f17307eab39ab6107e8899845ad3d59bd9653f200f220920489ca2b5937696c318360405161176991906126a2565b60405180910390a3505050565b611781848484611193565b61178d84848484611978565b6117cc576040517f08c379a00000000000000000000000000000000000000000000000000000000081526004016117c3906126ff565b60405180910390fd5b50505050565b60007f01ffc9a7000000000000000000000000000000000000000000000000000000007bffffffffffffffffffffffffffffffffffffffffffffffffffffffff1916827bffffffffffffffffffffffffffffffffffffffffffffffffffffffff1916149050919050565b611847838383611b0f565b600073ffffffffffffffffffffffffffffffffffffffff168373ffffffffffffffffffffffffffffffffffffffff16141561188a5761188581611b14565b6118c9565b8173ffffffffffffffffffffffffffffffffffffffff168373ffffffffffffffffffffffffffffffffffffffff16146118c8576118c78382611b5d565b5b5b600073ffffffffffffffffffffffffffffffffffffffff168273ffffffffffffffffffffffffffffffffffffffff16141561190c5761190781611cca565b61194b565b8273ffffffffffffffffffffffffffffffffffffffff168273ffffffffffffffffffffffffffffffffffffffff161461194a576119498282611e0d565b5b5b505050565b505050565b6000808273ffffffffffffffffffffffffffffffffffffffff163b119050919050565b60006119998473ffffffffffffffffffffffffffffffffffffffff16611955565b15611b02578373ffffffffffffffffffffffffffffffffffffffff1663150b7a026119c2610ff4565b8786866040518563ffffffff1660e01b81526004016119e49493929190612656565b602060405180830381600087803b1580156119fe57600080fd5b505af1925050508015611a2f57506040513d601f19601f82011682018060405250810190611a2c9190612238565b60015b611ab2573d8060008114611a5f576040519150601f19603f3d011682016040523d82523d6000602084013e611a64565b606091505b50600081511415611aaa576040517f08c379a0000000000000000000000000000000000000000000000000000000008152600401611aa1906126ff565b60405180910390fd5b805181602001fd5b63150b7a0260e01b7bffffffffffffffffffffffffffffffffffffffffffffffffffffffff1916817bffffffffffffffffffffffffffffffffffffffffffffffffffffffff191614915050611b07565b600190505b949350505050565b505050565b6008805490506009600083815260200190815260200160002081905550600881908060018154018082558091505060019003906000526020600020016000909190919091505550565b60006001611b6a84610a33565b611b749190612a2f565b9050600060076000848152602001908152602001600020549050818114611c59576000600660008673ffffffffffffffffffffffffffffffffffffffff1673ffffffffffffffffffffffffffffffffffffffff168152602001908152602001600020600084815260200190815260200160002054905080600660008773ffffffffffffffffffffffffffffffffffffffff1673ffffffffffffffffffffffffffffffffffffffff168152602001908152602001600020600084815260200190815260200160002081905550816007600083815260200190815260200160002081905550505b6007600084815260200190815260200160002060009055600660008573ffffffffffffffffffffffffffffffffffffffff1673ffffffffffffffffffffffffffffffffffffffff16815260200190815260200160002060008381526020019081526020016000206000905550505050565b60006001600880549050611cde9190612a2f565b9050600060096000848152602001908152602001600020549050600060088381548110611d34577f4e487b7100000000000000000000000000000000000000000000000000000000600052603260045260246000fd5b906000526020600020015490508060088381548110611d7c577f4e487b7100000000000000000000000000000000000000000000000000000000600052603260045260246000fd5b906000526020600020018190555081600960008381526020019081526020016000208190555060096000858152602001908152602001600020600090556008805480611df1577f4e487b7100000000000000000000000000000000000000000000000000000000600052603160045260246000fd5b6001900381819060005260206000200160009055905550505050565b6000611e1883610a33565b905081600660008573ffffffffffffffffffffffffffffffffffffffff1673ffffffffffffffffffffffffffffffffffffffff168152602001908152602001600020600083815260200190815260200160002081905550806007600084815260200190815260200160002081905550505050565b828054611e9890612b19565b90600052602060002090601f016020900481019282611eba5760008555611f01565b82601f10611ed357805160ff1916838001178555611f01565b82800160010185558215611f01579182015b82811115611f00578251825591602001919060010190611ee5565b5b509050611f0e9190611f12565b5090565b5b80821115611f2b576000816000905550600101611f13565b5090565b6000611f42611f3d8461293f565b61291a565b905082815260208101848484011115611f5a57600080fd5b611f65848285612ad7565b509392505050565b6000611f80611f7b84612970565b61291a565b905082815260208101848484011115611f9857600080fd5b611fa3848285612ad7565b509392505050565b600081359050611fba816130e7565b92915050565b600081359050611fcf816130fe565b92915050565b600081359050611fe481613115565b92915050565b600081519050611ff981613115565b92915050565b600082601f83011261201057600080fd5b8135612020848260208601611f2f565b91505092915050565b600082601f83011261203a57600080fd5b813561204a848260208601611f6d565b91505092915050565b6000813590506120628161312c565b92915050565b60006020828403121561207a57600080fd5b600061208884828501611fab565b91505092915050565b600080604083850312156120a457600080fd5b60006120b285828601611fab565b92505060206120c385828601611fab565b9150509250929050565b6000806000606084860312156120e257600080fd5b60006120f086828701611fab565b935050602061210186828701611fab565b925050604061211286828701612053565b9150509250925092565b6000806000806080858703121561213257600080fd5b600061214087828801611fab565b945050602061215187828801611fab565b935050604061216287828801612053565b925050606085013567ffffffffffffffff81111561217f57600080fd5b61218b87828801611fff565b91505092959194509250565b600080604083850312156121aa57600080fd5b60006121b885828601611fab565b92505060206121c985828601611fc0565b9150509250929050565b600080604083850312156121e657600080fd5b60006121f485828601611fab565b925050602061220585828601612053565b9150509250929050565b60006020828403121561222157600080fd5b600061222f84828501611fd5565b91505092915050565b60006020828403121561224a57600080fd5b600061225884828501611fea565b91505092915050565b600080600080600060a0868803121561227957600080fd5b600086013567ffffffffffffffff81111561229357600080fd5b61229f88828901612029565b955050602086013567ffffffffffffffff8111156122bc57600080fd5b6122c888828901612029565b945050604086013567ffffffffffffffff8111156122e557600080fd5b6122f188828901612029565b935050606061230288828901612053565b925050608061231388828901612053565b9150509295509295909350565b60006020828403121561233257600080fd5b600061234084828501612053565b91505092915050565b61235281612a63565b82525050565b61236181612a75565b82525050565b6000612372826129a1565b61237c81856129b7565b935061238c818560208601612ae6565b61239581612c09565b840191505092915050565b60006123ab826129ac565b6123b581856129c8565b93506123c5818560208601612ae6565b6123ce81612c09565b840191505092915050565b60006123e6602b836129c8565b91506123f182612c1a565b604082019050919050565b60006124096032836129c8565b915061241482612c69565b604082019050919050565b600061242c6025836129c8565b915061243782612cb8565b604082019050919050565b600061244f601c836129c8565b915061245a82612d07565b602082019050919050565b60006124726024836129c8565b915061247d82612d30565b604082019050919050565b60006124956019836129c8565b91506124a082612d7f565b602082019050919050565b60006124b8602c836129c8565b91506124c382612da8565b604082019050919050565b60006124db6038836129c8565b91506124e682612df7565b604082019050919050565b60006124fe602a836129c8565b915061250982612e46565b604082019050919050565b60006125216029836129c8565b915061252c82612e95565b604082019050919050565b6000612544602e836129c8565b915061254f82612ee4565b604082019050919050565b60006125676020836129c8565b915061257282612f33565b602082019050919050565b600061258a602c836129c8565b915061259582612f5c565b604082019050919050565b60006125ad602f836129c8565b91506125b882612fab565b604082019050919050565b60006125d06021836129c8565b91506125db82612ffa565b604082019050919050565b60006125f36031836129c8565b91506125fe82613049565b604082019050919050565b6000612616602c836129c8565b915061262182613098565b604082019050919050565b61263581612acd565b82525050565b60006020820190506126506000830184612349565b92915050565b600060808201905061266b6000830187612349565b6126786020830186612349565b612685604083018561262c565b81810360608301526126978184612367565b905095945050505050565b60006020820190506126b76000830184612358565b92915050565b600060208201905081810360008301526126d781846123a0565b905092915050565b600060208201905081810360008301526126f8816123d9565b9050919050565b60006020820190508181036000830152612718816123fc565b9050919050565b600060208201905081810360008301526127388161241f565b9050919050565b6000602082019050818103600083015261275881612442565b9050919050565b6000602082019050818103600083015261277881612465565b9050919050565b6000602082019050818103600083015261279881612488565b9050919050565b600060208201905081810360008301526127b8816124ab565b9050919050565b600060208201905081810360008301526127d8816124ce565b9050919050565b600060208201905081810360008301526127f8816124f1565b9050919050565b6000602082019050818103600083015261281881612514565b9050919050565b6000602082019050818103600083015261283881612537565b9050919050565b600060208201905081810360008301526128588161255a565b9050919050565b600060208201905081810360008301526128788161257d565b9050919050565b60006020820190508181036000830152612898816125a0565b9050919050565b600060208201905081810360008301526128b8816125c3565b9050919050565b600060208201905081810360008301526128d8816125e6565b9050919050565b600060208201905081810360008301526128f881612609565b9050919050565b6000602082019050612914600083018461262c565b92915050565b6000612924612935565b90506129308282612b4b565b919050565b6000604051905090565b600067ffffffffffffffff82111561295a57612959612bda565b5b61296382612c09565b9050602081019050919050565b600067ffffffffffffffff82111561298b5761298a612bda565b5b61299482612c09565b9050602081019050919050565b600081519050919050565b600081519050919050565b600082825260208201905092915050565b600082825260208201905092915050565b60006129e482612acd565b91506129ef83612acd565b9250827fffffffffffffffffffffffffffffffffffffffffffffffffffffffffffffffff03821115612a2457612a23612b7c565b5b828201905092915050565b6000612a3a82612acd565b9150612a4583612acd565b925082821015612a5857612a57612b7c565b5b828203905092915050565b6000612a6e82612aad565b9050919050565b60008115159050919050565b60007fffffffff0000000000000000000000000000000000000000000000000000000082169050919050565b600073ffffffffffffffffffffffffffffffffffffffff82169050919050565b6000819050919050565b82818337600083830152505050565b60005b83811015612b04578082015181840152602081019050612ae9565b83811115612b13576000848401525b50505050565b60006002820490506001821680612b3157607f821691505b60208210811415612b4557612b44612bab565b5b50919050565b612b5482612c09565b810181811067ffffffffffffffff82111715612b7357612b72612bda565b5b80604052505050565b7f4e487b7100000000000000000000000000000000000000000000000000000000600052601160045260246000fd5b7f4e487b7100000000000000000000000000000000000000000000000000000000600052602260045260246000fd5b7f4e487b7100000000000000000000000000000000000000000000000000000000600052604160045260246000fd5b6000601f19601f8301169050919050565b7f455243373231456e756d657261626c653a206f776e657220696e646578206f7560008201527f74206f6620626f756e6473000000000000000000000000000000000000000000602082015250565b7f4552433732313a207472616e7366657220746f206e6f6e20455243373231526560008201527f63656976657220696d706c656d656e7465720000000000000000000000000000602082015250565b7f4552433732313a207472616e736665722066726f6d20696e636f72726563742060008201527f6f776e6572000000000000000000000000000000000000000000000000000000602082015250565b7f4552433732313a20746f6b656e20616c7265616479206d696e74656400000000600082015250565b7f4552433732313a207472616e7366657220746f20746865207a65726f2061646460008201527f7265737300000000000000000000000000000000000000000000000000000000602082015250565b7f4552433732313a20617070726f766520746f2063616c6c657200000000000000600082015250565b7f4552433732313a206f70657261746f7220717565727920666f72206e6f6e657860008201527f697374656e7420746f6b656e0000000000000000000000000000000000000000602082015250565b7f4552433732313a20617070726f76652063616c6c6572206973206e6f74206f7760008201527f6e6572206e6f7220617070726f76656420666f7220616c6c0000000000000000602082015250565b7f4552433732313a2062616c616e636520717565727920666f7220746865207a6560008201527f726f206164647265737300000000000000000000000000000000000000000000602082015250565b7f4552433732313a206f776e657220717565727920666f72206e6f6e657869737460008201527f656e7420746f6b656e0000000000000000000000000000000000000000000000602082015250565b7f496e697469616c697a61626c653a20636f6e747261637420697320616c72656160008201527f647920696e697469616c697a6564000000000000000000000000000000000000602082015250565b7f4552433732313a206d696e7420746f20746865207a65726f2061646472657373600082015250565b7f4552433732313a20617070726f76656420717565727920666f72206e6f6e657860008201527f697374656e7420746f6b656e0000000000000000000000000000000000000000602082015250565b7f4552433732314d657461646174613a2055524920717565727920666f72206e6f60008201527f6e6578697374656e7420746f6b656e0000000000000000000000000000000000602082015250565b7f4552433732313a20617070726f76616c20746f2063757272656e74206f776e6560008201527f7200000000000000000000000000000000000000000000000000000000000000602082015250565b7f4552433732313a207472616e736665722063616c6c6572206973206e6f74206f60008201527f776e6572206e6f7220617070726f766564000000000000000000000000000000602082015250565b7f455243373231456e756d657261626c653a20676c6f62616c20696e646578206f60008201527f7574206f6620626f756e64730000000000000000000000000000000000000000602082015250565b6130f081612a63565b81146130fb57600080fd5b50565b61310781612a75565b811461311257600080fd5b50565b61311e81612a81565b811461312957600080fd5b50565b61313581612acd565b811461314057600080fd5b5056fea2646970667358221220bb8dd6fbc6fb73354f6884c33f37eb91ee9696b30d35d393e80bf7f7b3fc1b5164736f6c63430008040033",
  "linkReferences": {},
  "deployedLinkReferences": {}
}