{
  "_format": "hh-sol-artifact-1",
  "contractName": "Record__721",
  "sourceName": "contracts/Record__721.sol",
  "abi": [
    {
      "anonymous": false,
      "inputs": [
        {
          "indexed": true,
          "internalType": "address",
          "name": "owner",
          "type": "address"
        },
        {
          "indexed": true,
          "internalType": "address",
          "name": "approved",
          "type": "address"
        },
        {
          "indexed": true,
          "internalType": "uint256",
          "name": "tokenId",
          "type": "uint256"
        }
      ],
      "name": "Approval",
      "type": "event"
    },
    {
      "anonymous": false,
      "inputs": [
        {
          "indexed": true,
          "internalType": "address",
          "name": "owner",
          "type": "address"
        },
        {
          "indexed": true,
          "internalType": "address",
          "name": "operator",
          "type": "address"
        },
        {
          "indexed": false,
          "internalType": "bool",
          "name": "approved",
          "type": "bool"
        }
      ],
      "name": "ApprovalForAll",
      "type": "event"
    },
    {
      "anonymous": false,
      "inputs": [
        {
          "indexed": true,
          "internalType": "address",
          "name": "from",
          "type": "address"
        },
        {
          "indexed": true,
          "internalType": "address",
          "name": "to",
          "type": "address"
        },
        {
          "indexed": true,
          "internalType": "uint256",
          "name": "tokenId",
          "type": "uint256"
        }
      ],
      "name": "Transfer",
      "type": "event"
    },
    {
      "inputs": [],
      "name": "_maxSupply",
      "outputs": [
        {
          "internalType": "uint256",
          "name": "",
          "type": "uint256"
        }
      ],
      "stateMutability": "view",
      "type": "function"
    },
    {
      "inputs": [],
      "name": "_price",
      "outputs": [
        {
          "internalType": "uint256",
          "name": "",
          "type": "uint256"
        }
      ],
      "stateMutability": "view",
      "type": "function"
    },
    {
      "inputs": [],
      "name": "_uri",
      "outputs": [
        {
          "internalType": "string",
          "name": "",
          "type": "string"
        }
      ],
      "stateMutability": "view",
      "type": "function"
    },
    {
      "inputs": [
        {
          "internalType": "address",
          "name": "to",
          "type": "address"
        },
        {
          "internalType": "uint256",
          "name": "tokenId",
          "type": "uint256"
        }
      ],
      "name": "approve",
      "outputs": [],
      "stateMutability": "nonpayable",
      "type": "function"
    },
    {
      "inputs": [
        {
          "internalType": "address",
          "name": "owner",
          "type": "address"
        }
      ],
      "name": "balanceOf",
      "outputs": [
        {
          "internalType": "uint256",
          "name": "",
          "type": "uint256"
        }
      ],
      "stateMutability": "view",
      "type": "function"
    },
    {
      "inputs": [
        {
          "internalType": "uint256",
          "name": "tokenId",
          "type": "uint256"
        }
      ],
      "name": "getApproved",
      "outputs": [
        {
          "internalType": "address",
          "name": "",
          "type": "address"
        }
      ],
      "stateMutability": "view",
      "type": "function"
    },
    {
      "inputs": [
        {
          "internalType": "string",
          "name": "name_",
          "type": "string"
        },
        {
          "internalType": "string",
          "name": "symbol_",
          "type": "string"
        },
        {
          "internalType": "string",
          "name": "uri",
          "type": "string"
        },
        {
          "internalType": "uint256",
          "name": "maxSupply",
          "type": "uint256"
        },
        {
          "internalType": "uint256",
          "name": "price",
          "type": "uint256"
        }
      ],
      "name": "initialize",
      "outputs": [],
      "stateMutability": "nonpayable",
      "type": "function"
    },
    {
      "inputs": [
        {
          "internalType": "address",
          "name": "owner",
          "type": "address"
        },
        {
          "internalType": "address",
          "name": "operator",
          "type": "address"
        }
      ],
      "name": "isApprovedForAll",
      "outputs": [
        {
          "internalType": "bool",
          "name": "",
          "type": "bool"
        }
      ],
      "stateMutability": "view",
      "type": "function"
    },
    {
      "inputs": [
        {
          "internalType": "address",
          "name": "to",
          "type": "address"
        },
        {
          "internalType": "uint256",
          "name": "price",
          "type": "uint256"
        }
      ],
      "name": "mint",
      "outputs": [
        {
          "internalType": "uint256",
          "name": "",
          "type": "uint256"
        }
      ],
      "stateMutability": "nonpayable",
      "type": "function"
    },
    {
      "inputs": [],
      "name": "name",
      "outputs": [
        {
          "internalType": "string",
          "name": "",
          "type": "string"
        }
      ],
      "stateMutability": "view",
      "type": "function"
    },
    {
      "inputs": [
        {
          "internalType": "uint256",
          "name": "tokenId",
          "type": "uint256"
        }
      ],
      "name": "ownerOf",
      "outputs": [
        {
          "internalType": "address",
          "name": "",
          "type": "address"
        }
      ],
      "stateMutability": "view",
      "type": "function"
    },
    {
      "inputs": [
        {
          "internalType": "address",
          "name": "from",
          "type": "address"
        },
        {
          "internalType": "address",
          "name": "to",
          "type": "address"
        },
        {
          "internalType": "uint256",
          "name": "tokenId",
          "type": "uint256"
        }
      ],
      "name": "safeTransferFrom",
      "outputs": [],
      "stateMutability": "nonpayable",
      "type": "function"
    },
    {
      "inputs": [
        {
          "internalType": "address",
          "name": "from",
          "type": "address"
        },
        {
          "internalType": "address",
          "name": "to",
          "type": "address"
        },
        {
          "internalType": "uint256",
          "name": "tokenId",
          "type": "uint256"
        },
        {
          "internalType": "bytes",
          "name": "_data",
          "type": "bytes"
        }
      ],
      "name": "safeTransferFrom",
      "outputs": [],
      "stateMutability": "nonpayable",
      "type": "function"
    },
    {
      "inputs": [
        {
          "internalType": "address",
          "name": "operator",
          "type": "address"
        },
        {
          "internalType": "bool",
          "name": "approved",
          "type": "bool"
        }
      ],
      "name": "setApprovalForAll",
      "outputs": [],
      "stateMutability": "nonpayable",
      "type": "function"
    },
    {
      "inputs": [
        {
          "internalType": "bytes4",
          "name": "interfaceId",
          "type": "bytes4"
        }
      ],
      "name": "supportsInterface",
      "outputs": [
        {
          "internalType": "bool",
          "name": "",
          "type": "bool"
        }
      ],
      "stateMutability": "view",
      "type": "function"
    },
    {
      "inputs": [],
      "name": "symbol",
      "outputs": [
        {
          "internalType": "string",
          "name": "",
          "type": "string"
        }
      ],
      "stateMutability": "view",
      "type": "function"
    },
    {
      "inputs": [
        {
          "internalType": "uint256",
          "name": "index",
          "type": "uint256"
        }
      ],
      "name": "tokenByIndex",
      "outputs": [
        {
          "internalType": "uint256",
          "name": "",
          "type": "uint256"
        }
      ],
      "stateMutability": "view",
      "type": "function"
    },
    {
      "inputs": [
        {
          "internalType": "address",
          "name": "owner",
          "type": "address"
        },
        {
          "internalType": "uint256",
          "name": "index",
          "type": "uint256"
        }
      ],
      "name": "tokenOfOwnerByIndex",
      "outputs": [
        {
          "internalType": "uint256",
          "name": "",
          "type": "uint256"
        }
      ],
      "stateMutability": "view",
      "type": "function"
    },
    {
      "inputs": [
        {
          "internalType": "uint256",
          "name": "tokenId",
          "type": "uint256"
        }
      ],
      "name": "tokenURI",
      "outputs": [
        {
          "internalType": "string",
          "name": "",
          "type": "string"
        }
      ],
      "stateMutability": "view",
      "type": "function"
    },
    {
      "inputs": [],
      "name": "totalSupply",
      "outputs": [
        {
          "internalType": "uint256",
          "name": "",
          "type": "uint256"
        }
      ],
      "stateMutability": "view",
      "type": "function"
    },
    {
      "inputs": [
        {
          "internalType": "address",
          "name": "from",
          "type": "address"
        },
        {
          "internalType": "address",
          "name": "to",
          "type": "address"
        },
        {
          "internalType": "uint256",
          "name": "tokenId",
          "type": "uint256"
        }
      ],
      "name": "transferFrom",
      "outputs": [],
      "stateMutability": "nonpayable",
      "type": "function"
    }
  ],
  "bytecode": "0x608060405234801561001057600080fd5b5061322b806100206000396000f3fe608060405234801561001057600080fd5b50600436106101375760003560e01c806340c10f19116100b857806380ddd09f1161007c57806380ddd09f1461037657806395d89b4114610392578063a22cb465146103b0578063b88d4fde146103cc578063c87b56dd146103e8578063e985e9c51461041857610137565b806340c10f191461029a57806342842e0e146102ca5780634f6ccce7146102e65780636352211e1461031657806370a082311461034657610137565b806318160ddd116100ff57806318160ddd146101f457806322f4596f14610212578063235b6ea11461023057806323b872dd1461024e5780632f745c591461026a57610137565b806301ffc9a71461013c57806306fdde031461016c578063081812fc1461018a578063095ea7b3146101ba5780630dccc9ad146101d6575b600080fd5b61015660048036038101906101519190612255565b610448565b604051610163919061270b565b60405180910390f35b6101746104c2565b6040516101819190612726565b60405180910390f35b6101a4600480360381019061019f9190612366565b610554565b6040516101b191906126a4565b60405180910390f35b6101d460048036038101906101cf9190612219565b6105d9565b005b6101de6106f1565b6040516101eb9190612726565b60405180910390f35b6101fc61077f565b6040516102099190612988565b60405180910390f35b61021a61078c565b6040516102279190612988565b60405180910390f35b610238610792565b6040516102459190612988565b60405180910390f35b61026860048036038101906102639190612113565b610798565b005b610284600480360381019061027f9190612219565b6107f8565b6040516102919190612988565b60405180910390f35b6102b460048036038101906102af9190612219565b61089d565b6040516102c19190612988565b60405180910390f35b6102e460048036038101906102df9190612113565b610910565b005b61030060048036038101906102fb9190612366565b610930565b60405161030d9190612988565b60405180910390f35b610330600480360381019061032b9190612366565b6109c7565b60405161033d91906126a4565b60405180910390f35b610360600480360381019061035b91906120ae565b610a79565b60405161036d9190612988565b60405180910390f35b610390600480360381019061038b91906122a7565b610b31565b005b61039a610c72565b6040516103a79190612726565b60405180910390f35b6103ca60048036038101906103c591906121dd565b610d04565b005b6103e660048036038101906103e19190612162565b610d1a565b005b61040260048036038101906103fd9190612366565b610d7c565b60405161040f9190612726565b60405180910390f35b610432600480360381019061042d91906120d7565b610e58565b60405161043f919061270b565b60405180910390f35b60007f780e9d63000000000000000000000000000000000000000000000000000000007bffffffffffffffffffffffffffffffffffffffffffffffffffffffff1916827bffffffffffffffffffffffffffffffffffffffffffffffffffffffff191614806104bb57506104ba82610eec565b5b9050919050565b6060600080546104d190612ba2565b80601f01602080910402602001604051908101604052809291908181526020018280546104fd90612ba2565b801561054a5780601f1061051f5761010080835404028352916020019161054a565b820191906000526020600020905b81548152906001019060200180831161052d57829003601f168201915b5050505050905090565b600061055f82610fce565b61059e576040517f08c379a0000000000000000000000000000000000000000000000000000000008152600401610595906128c8565b60405180910390fd5b6004600083815260200190815260200160002060009054906101000a900473ffffffffffffffffffffffffffffffffffffffff169050919050565b60006105e4826109c7565b90508073ffffffffffffffffffffffffffffffffffffffff168373ffffffffffffffffffffffffffffffffffffffff161415610655576040517f08c379a000000000000000000000000000000000000000000000000000000000815260040161064c90612908565b60405180910390fd5b8073ffffffffffffffffffffffffffffffffffffffff1661067461103a565b73ffffffffffffffffffffffffffffffffffffffff1614806106a357506106a28161069d61103a565b610e58565b5b6106e2576040517f08c379a00000000000000000000000000000000000000000000000000000000081526004016106d990612828565b60405180910390fd5b6106ec8383611042565b505050565b600c80546106fe90612ba2565b80601f016020809104026020016040519081016040528092919081815260200182805461072a90612ba2565b80156107775780601f1061074c57610100808354040283529160200191610777565b820191906000526020600020905b81548152906001019060200180831161075a57829003601f168201915b505050505081565b6000600880549050905090565b600d5481565b600e5481565b6107a96107a361103a565b826110fb565b6107e8576040517f08c379a00000000000000000000000000000000000000000000000000000000081526004016107df90612948565b60405180910390fd5b6107f38383836111d9565b505050565b600061080383610a79565b8210610844576040517f08c379a000000000000000000000000000000000000000000000000000000000815260040161083b90612748565b60405180910390fd5b600660008473ffffffffffffffffffffffffffffffffffffffff1673ffffffffffffffffffffffffffffffffffffffff168152602001908152602001600020600083815260200190815260200160002054905092915050565b6000600e548210156108e4576040517f08c379a00000000000000000000000000000000000000000000000000000000081526004016108db90612928565b60405180910390fd5b6108ee600b611440565b60006108fa600b611456565b90506109068482611464565b8091505092915050565b61092b83838360405180602001604052806000815250610d1a565b505050565b600061093a61077f565b821061097b576040517f08c379a000000000000000000000000000000000000000000000000000000000815260040161097290612968565b60405180910390fd5b600882815481106109b5577f4e487b7100000000000000000000000000000000000000000000000000000000600052603260045260246000fd5b90600052602060002001549050919050565b6000806002600084815260200190815260200160002060009054906101000a900473ffffffffffffffffffffffffffffffffffffffff169050600073ffffffffffffffffffffffffffffffffffffffff168173ffffffffffffffffffffffffffffffffffffffff161415610a70576040517f08c379a0000000000000000000000000000000000000000000000000000000008152600401610a6790612868565b60405180910390fd5b80915050919050565b60008073ffffffffffffffffffffffffffffffffffffffff168273ffffffffffffffffffffffffffffffffffffffff161415610aea576040517f08c379a0000000000000000000000000000000000000000000000000000000008152600401610ae190612848565b60405180910390fd5b600360008373ffffffffffffffffffffffffffffffffffffffff1673ffffffffffffffffffffffffffffffffffffffff168152602001908152602001600020549050919050565b600a60019054906101000a900460ff16610b5b57600a60009054906101000a900460ff1615610b64565b610b6361163e565b5b610ba3576040517f08c379a0000000000000000000000000000000000000000000000000000000008152600401610b9a90612888565b60405180910390fd5b6000600a60019054906101000a900460ff161590508015610bf5576001600a60016101000a81548160ff0219169083151502179055506001600a60006101000a81548160ff0219169083151502179055505b8560009080519060200190610c0b929190611ed2565b508460019080519060200190610c22929190611ed2565b5083600c9080519060200190610c39929190611ed2565b5082600d8190555081600e819055508015610c6a576000600a60016101000a81548160ff0219169083151502179055505b505050505050565b606060018054610c8190612ba2565b80601f0160208091040260200160405190810160405280929190818152602001828054610cad90612ba2565b8015610cfa5780601f10610ccf57610100808354040283529160200191610cfa565b820191906000526020600020905b815481529060010190602001808311610cdd57829003601f168201915b5050505050905090565b610d16610d0f61103a565b838361164f565b5050565b610d2b610d2561103a565b836110fb565b610d6a576040517f08c379a0000000000000000000000000000000000000000000000000000000008152600401610d6190612948565b60405180910390fd5b610d76848484846117bc565b50505050565b6060610d8782610fce565b610dc6576040517f08c379a0000000000000000000000000000000000000000000000000000000008152600401610dbd906128e8565b60405180910390fd5b600c8054610dd390612ba2565b80601f0160208091040260200160405190810160405280929190818152602001828054610dff90612ba2565b8015610e4c5780601f10610e2157610100808354040283529160200191610e4c565b820191906000526020600020905b815481529060010190602001808311610e2f57829003601f168201915b50505050509050919050565b6000600560008473ffffffffffffffffffffffffffffffffffffffff1673ffffffffffffffffffffffffffffffffffffffff16815260200190815260200160002060008373ffffffffffffffffffffffffffffffffffffffff1673ffffffffffffffffffffffffffffffffffffffff16815260200190815260200160002060009054906101000a900460ff16905092915050565b60007f80ac58cd000000000000000000000000000000000000000000000000000000007bffffffffffffffffffffffffffffffffffffffffffffffffffffffff1916827bffffffffffffffffffffffffffffffffffffffffffffffffffffffff19161480610fb757507f5b5e139f000000000000000000000000000000000000000000000000000000007bffffffffffffffffffffffffffffffffffffffffffffffffffffffff1916827bffffffffffffffffffffffffffffffffffffffffffffffffffffffff1916145b80610fc75750610fc682611818565b5b9050919050565b60008073ffffffffffffffffffffffffffffffffffffffff166002600084815260200190815260200160002060009054906101000a900473ffffffffffffffffffffffffffffffffffffffff1673ffffffffffffffffffffffffffffffffffffffff1614159050919050565b600033905090565b816004600083815260200190815260200160002060006101000a81548173ffffffffffffffffffffffffffffffffffffffff021916908373ffffffffffffffffffffffffffffffffffffffff160217905550808273ffffffffffffffffffffffffffffffffffffffff166110b5836109c7565b73ffffffffffffffffffffffffffffffffffffffff167f8c5be1e5ebec7d5bd14f71427d1e84f3dd0314c0f7b2291e5b200ac8c7c3b92560405160405180910390a45050565b600061110682610fce565b611145576040517f08c379a000000000000000000000000000000000000000000000000000000000815260040161113c90612808565b60405180910390fd5b6000611150836109c7565b90508073ffffffffffffffffffffffffffffffffffffffff168473ffffffffffffffffffffffffffffffffffffffff1614806111bf57508373ffffffffffffffffffffffffffffffffffffffff166111a784610554565b73ffffffffffffffffffffffffffffffffffffffff16145b806111d057506111cf8185610e58565b5b91505092915050565b8273ffffffffffffffffffffffffffffffffffffffff166111f9826109c7565b73ffffffffffffffffffffffffffffffffffffffff161461124f576040517f08c379a000000000000000000000000000000000000000000000000000000000815260040161124690612788565b60405180910390fd5b600073ffffffffffffffffffffffffffffffffffffffff168273ffffffffffffffffffffffffffffffffffffffff1614156112bf576040517f08c379a00000000000000000000000000000000000000000000000000000000081526004016112b6906127c8565b60405180910390fd5b6112ca838383611882565b6112d5600082611042565b6001600360008573ffffffffffffffffffffffffffffffffffffffff1673ffffffffffffffffffffffffffffffffffffffff16815260200190815260200160002060008282546113259190612ab8565b925050819055506001600360008473ffffffffffffffffffffffffffffffffffffffff1673ffffffffffffffffffffffffffffffffffffffff168152602001908152602001600020600082825461137c9190612a62565b92505081905550816002600083815260200190815260200160002060006101000a81548173ffffffffffffffffffffffffffffffffffffffff021916908373ffffffffffffffffffffffffffffffffffffffff160217905550808273ffffffffffffffffffffffffffffffffffffffff168473ffffffffffffffffffffffffffffffffffffffff167fddf252ad1be2c89b69c2b068fc378daa952ba7f163c4a11628f55a4df523b3ef60405160405180910390a461143b838383611996565b505050565b6001816000016000828254019250508190555050565b600081600001549050919050565b600073ffffffffffffffffffffffffffffffffffffffff168273ffffffffffffffffffffffffffffffffffffffff1614156114d4576040517f08c379a00000000000000000000000000000000000000000000000000000000081526004016114cb906128a8565b60405180910390fd5b6114dd81610fce565b1561151d576040517f08c379a0000000000000000000000000000000000000000000000000000000008152600401611514906127a8565b60405180910390fd5b61152960008383611882565b6001600360008473ffffffffffffffffffffffffffffffffffffffff1673ffffffffffffffffffffffffffffffffffffffff16815260200190815260200160002060008282546115799190612a62565b92505081905550816002600083815260200190815260200160002060006101000a81548173ffffffffffffffffffffffffffffffffffffffff021916908373ffffffffffffffffffffffffffffffffffffffff160217905550808273ffffffffffffffffffffffffffffffffffffffff16600073ffffffffffffffffffffffffffffffffffffffff167fddf252ad1be2c89b69c2b068fc378daa952ba7f163c4a11628f55a4df523b3ef60405160405180910390a461163a60008383611996565b5050565b60006116493061199b565b15905090565b8173ffffffffffffffffffffffffffffffffffffffff168373ffffffffffffffffffffffffffffffffffffffff1614156116be576040517f08c379a00000000000000000000000000000000000000000000000000000000081526004016116b5906127e8565b60405180910390fd5b80600560008573ffffffffffffffffffffffffffffffffffffffff1673ffffffffffffffffffffffffffffffffffffffff16815260200190815260200160002060008473ffffffffffffffffffffffffffffffffffffffff1673ffffffffffffffffffffffffffffffffffffffff16815260200190815260200160002060006101000a81548160ff0219169083151502179055508173ffffffffffffffffffffffffffffffffffffffff168373ffffffffffffffffffffffffffffffffffffffff167f17307eab39ab6107e8899845ad3d59bd9653f200f220920489ca2b5937696c31836040516117af919061270b565b60405180910390a3505050565b6117c78484846111d9565b6117d3848484846119be565b611812576040517f08c379a000000000000000000000000000000000000000000000000000000000815260040161180990612768565b60405180910390fd5b50505050565b60007f01ffc9a7000000000000000000000000000000000000000000000000000000007bffffffffffffffffffffffffffffffffffffffffffffffffffffffff1916827bffffffffffffffffffffffffffffffffffffffffffffffffffffffff1916149050919050565b61188d838383611b55565b600073ffffffffffffffffffffffffffffffffffffffff168373ffffffffffffffffffffffffffffffffffffffff1614156118d0576118cb81611b5a565b61190f565b8173ffffffffffffffffffffffffffffffffffffffff168373ffffffffffffffffffffffffffffffffffffffff161461190e5761190d8382611ba3565b5b5b600073ffffffffffffffffffffffffffffffffffffffff168273ffffffffffffffffffffffffffffffffffffffff1614156119525761194d81611d10565b611991565b8273ffffffffffffffffffffffffffffffffffffffff168273ffffffffffffffffffffffffffffffffffffffff16146119905761198f8282611e53565b5b5b505050565b505050565b6000808273ffffffffffffffffffffffffffffffffffffffff163b119050919050565b60006119df8473ffffffffffffffffffffffffffffffffffffffff1661199b565b15611b48578373ffffffffffffffffffffffffffffffffffffffff1663150b7a02611a0861103a565b8786866040518563ffffffff1660e01b8152600401611a2a94939291906126bf565b602060405180830381600087803b158015611a4457600080fd5b505af1925050508015611a7557506040513d601f19601f82011682018060405250810190611a72919061227e565b60015b611af8573d8060008114611aa5576040519150601f19603f3d011682016040523d82523d6000602084013e611aaa565b606091505b50600081511415611af0576040517f08c379a0000000000000000000000000000000000000000000000000000000008152600401611ae790612768565b60405180910390fd5b805181602001fd5b63150b7a0260e01b7bffffffffffffffffffffffffffffffffffffffffffffffffffffffff1916817bffffffffffffffffffffffffffffffffffffffffffffffffffffffff191614915050611b4d565b600190505b949350505050565b505050565b6008805490506009600083815260200190815260200160002081905550600881908060018154018082558091505060019003906000526020600020016000909190919091505550565b60006001611bb084610a79565b611bba9190612ab8565b9050600060076000848152602001908152602001600020549050818114611c9f576000600660008673ffffffffffffffffffffffffffffffffffffffff1673ffffffffffffffffffffffffffffffffffffffff168152602001908152602001600020600084815260200190815260200160002054905080600660008773ffffffffffffffffffffffffffffffffffffffff1673ffffffffffffffffffffffffffffffffffffffff168152602001908152602001600020600084815260200190815260200160002081905550816007600083815260200190815260200160002081905550505b6007600084815260200190815260200160002060009055600660008573ffffffffffffffffffffffffffffffffffffffff1673ffffffffffffffffffffffffffffffffffffffff16815260200190815260200160002060008381526020019081526020016000206000905550505050565b60006001600880549050611d249190612ab8565b9050600060096000848152602001908152602001600020549050600060088381548110611d7a577f4e487b7100000000000000000000000000000000000000000000000000000000600052603260045260246000fd5b906000526020600020015490508060088381548110611dc2577f4e487b7100000000000000000000000000000000000000000000000000000000600052603260045260246000fd5b906000526020600020018190555081600960008381526020019081526020016000208190555060096000858152602001908152602001600020600090556008805480611e37577f4e487b7100000000000000000000000000000000000000000000000000000000600052603160045260246000fd5b6001900381819060005260206000200160009055905550505050565b6000611e5e83610a79565b905081600660008573ffffffffffffffffffffffffffffffffffffffff1673ffffffffffffffffffffffffffffffffffffffff168152602001908152602001600020600083815260200190815260200160002081905550806007600084815260200190815260200160002081905550505050565b828054611ede90612ba2565b90600052602060002090601f016020900481019282611f005760008555611f47565b82601f10611f1957805160ff1916838001178555611f47565b82800160010185558215611f47579182015b82811115611f46578251825591602001919060010190611f2b565b5b509050611f549190611f58565b5090565b5b80821115611f71576000816000905550600101611f59565b5090565b6000611f88611f83846129c8565b6129a3565b905082815260208101848484011115611fa057600080fd5b611fab848285612b60565b509392505050565b6000611fc6611fc1846129f9565b6129a3565b905082815260208101848484011115611fde57600080fd5b611fe9848285612b60565b509392505050565b60008135905061200081613199565b92915050565b600081359050612015816131b0565b92915050565b60008135905061202a816131c7565b92915050565b60008151905061203f816131c7565b92915050565b600082601f83011261205657600080fd5b8135612066848260208601611f75565b91505092915050565b600082601f83011261208057600080fd5b8135612090848260208601611fb3565b91505092915050565b6000813590506120a8816131de565b92915050565b6000602082840312156120c057600080fd5b60006120ce84828501611ff1565b91505092915050565b600080604083850312156120ea57600080fd5b60006120f885828601611ff1565b925050602061210985828601611ff1565b9150509250929050565b60008060006060848603121561212857600080fd5b600061213686828701611ff1565b935050602061214786828701611ff1565b925050604061215886828701612099565b9150509250925092565b6000806000806080858703121561217857600080fd5b600061218687828801611ff1565b945050602061219787828801611ff1565b93505060406121a887828801612099565b925050606085013567ffffffffffffffff8111156121c557600080fd5b6121d187828801612045565b91505092959194509250565b600080604083850312156121f057600080fd5b60006121fe85828601611ff1565b925050602061220f85828601612006565b9150509250929050565b6000806040838503121561222c57600080fd5b600061223a85828601611ff1565b925050602061224b85828601612099565b9150509250929050565b60006020828403121561226757600080fd5b60006122758482850161201b565b91505092915050565b60006020828403121561229057600080fd5b600061229e84828501612030565b91505092915050565b600080600080600060a086880312156122bf57600080fd5b600086013567ffffffffffffffff8111156122d957600080fd5b6122e58882890161206f565b955050602086013567ffffffffffffffff81111561230257600080fd5b61230e8882890161206f565b945050604086013567ffffffffffffffff81111561232b57600080fd5b6123378882890161206f565b935050606061234888828901612099565b925050608061235988828901612099565b9150509295509295909350565b60006020828403121561237857600080fd5b600061238684828501612099565b91505092915050565b61239881612aec565b82525050565b6123a781612afe565b82525050565b60006123b882612a2a565b6123c28185612a40565b93506123d2818560208601612b6f565b6123db81612c92565b840191505092915050565b60006123f182612a35565b6123fb8185612a51565b935061240b818560208601612b6f565b61241481612c92565b840191505092915050565b600061242c602b83612a51565b915061243782612ca3565b604082019050919050565b600061244f603283612a51565b915061245a82612cf2565b604082019050919050565b6000612472602583612a51565b915061247d82612d41565b604082019050919050565b6000612495601c83612a51565b91506124a082612d90565b602082019050919050565b60006124b8602483612a51565b91506124c382612db9565b604082019050919050565b60006124db601983612a51565b91506124e682612e08565b602082019050919050565b60006124fe602c83612a51565b915061250982612e31565b604082019050919050565b6000612521603883612a51565b915061252c82612e80565b604082019050919050565b6000612544602a83612a51565b915061254f82612ecf565b604082019050919050565b6000612567602983612a51565b915061257282612f1e565b604082019050919050565b600061258a602e83612a51565b915061259582612f6d565b604082019050919050565b60006125ad602083612a51565b91506125b882612fbc565b602082019050919050565b60006125d0602c83612a51565b91506125db82612fe5565b604082019050919050565b60006125f3602f83612a51565b91506125fe82613034565b604082019050919050565b6000612616602183612a51565b915061262182613083565b604082019050919050565b6000612639601e83612a51565b9150612644826130d2565b602082019050919050565b600061265c603183612a51565b9150612667826130fb565b604082019050919050565b600061267f602c83612a51565b915061268a8261314a565b604082019050919050565b61269e81612b56565b82525050565b60006020820190506126b9600083018461238f565b92915050565b60006080820190506126d4600083018761238f565b6126e1602083018661238f565b6126ee6040830185612695565b818103606083015261270081846123ad565b905095945050505050565b6000602082019050612720600083018461239e565b92915050565b6000602082019050818103600083015261274081846123e6565b905092915050565b600060208201905081810360008301526127618161241f565b9050919050565b6000602082019050818103600083015261278181612442565b9050919050565b600060208201905081810360008301526127a181612465565b9050919050565b600060208201905081810360008301526127c181612488565b9050919050565b600060208201905081810360008301526127e1816124ab565b9050919050565b60006020820190508181036000830152612801816124ce565b9050919050565b60006020820190508181036000830152612821816124f1565b9050919050565b6000602082019050818103600083015261284181612514565b9050919050565b6000602082019050818103600083015261286181612537565b9050919050565b600060208201905081810360008301526128818161255a565b9050919050565b600060208201905081810360008301526128a18161257d565b9050919050565b600060208201905081810360008301526128c1816125a0565b9050919050565b600060208201905081810360008301526128e1816125c3565b9050919050565b60006020820190508181036000830152612901816125e6565b9050919050565b6000602082019050818103600083015261292181612609565b9050919050565b600060208201905081810360008301526129418161262c565b9050919050565b600060208201905081810360008301526129618161264f565b9050919050565b6000602082019050818103600083015261298181612672565b9050919050565b600060208201905061299d6000830184612695565b92915050565b60006129ad6129be565b90506129b98282612bd4565b919050565b6000604051905090565b600067ffffffffffffffff8211156129e3576129e2612c63565b5b6129ec82612c92565b9050602081019050919050565b600067ffffffffffffffff821115612a1457612a13612c63565b5b612a1d82612c92565b9050602081019050919050565b600081519050919050565b600081519050919050565b600082825260208201905092915050565b600082825260208201905092915050565b6000612a6d82612b56565b9150612a7883612b56565b9250827fffffffffffffffffffffffffffffffffffffffffffffffffffffffffffffffff03821115612aad57612aac612c05565b5b828201905092915050565b6000612ac382612b56565b9150612ace83612b56565b925082821015612ae157612ae0612c05565b5b828203905092915050565b6000612af782612b36565b9050919050565b60008115159050919050565b60007fffffffff0000000000000000000000000000000000000000000000000000000082169050919050565b600073ffffffffffffffffffffffffffffffffffffffff82169050919050565b6000819050919050565b82818337600083830152505050565b60005b83811015612b8d578082015181840152602081019050612b72565b83811115612b9c576000848401525b50505050565b60006002820490506001821680612bba57607f821691505b60208210811415612bce57612bcd612c34565b5b50919050565b612bdd82612c92565b810181811067ffffffffffffffff82111715612bfc57612bfb612c63565b5b80604052505050565b7f4e487b7100000000000000000000000000000000000000000000000000000000600052601160045260246000fd5b7f4e487b7100000000000000000000000000000000000000000000000000000000600052602260045260246000fd5b7f4e487b7100000000000000000000000000000000000000000000000000000000600052604160045260246000fd5b6000601f19601f8301169050919050565b7f455243373231456e756d657261626c653a206f776e657220696e646578206f7560008201527f74206f6620626f756e6473000000000000000000000000000000000000000000602082015250565b7f4552433732313a207472616e7366657220746f206e6f6e20455243373231526560008201527f63656976657220696d706c656d656e7465720000000000000000000000000000602082015250565b7f4552433732313a207472616e736665722066726f6d20696e636f72726563742060008201527f6f776e6572000000000000000000000000000000000000000000000000000000602082015250565b7f4552433732313a20746f6b656e20616c7265616479206d696e74656400000000600082015250565b7f4552433732313a207472616e7366657220746f20746865207a65726f2061646460008201527f7265737300000000000000000000000000000000000000000000000000000000602082015250565b7f4552433732313a20617070726f766520746f2063616c6c657200000000000000600082015250565b7f4552433732313a206f70657261746f7220717565727920666f72206e6f6e657860008201527f697374656e7420746f6b656e0000000000000000000000000000000000000000602082015250565b7f4552433732313a20617070726f76652063616c6c6572206973206e6f74206f7760008201527f6e6572206e6f7220617070726f76656420666f7220616c6c0000000000000000602082015250565b7f4552433732313a2062616c616e636520717565727920666f7220746865207a6560008201527f726f206164647265737300000000000000000000000000000000000000000000602082015250565b7f4552433732313a206f776e657220717565727920666f72206e6f6e657869737460008201527f656e7420746f6b656e0000000000000000000000000000000000000000000000602082015250565b7f496e697469616c697a61626c653a20636f6e747261637420697320616c72656160008201527f647920696e697469616c697a6564000000000000000000000000000000000000602082015250565b7f4552433732313a206d696e7420746f20746865207a65726f2061646472657373600082015250565b7f4552433732313a20617070726f76656420717565727920666f72206e6f6e657860008201527f697374656e7420746f6b656e0000000000000000000000000000000000000000602082015250565b7f4552433732314d657461646174613a2055524920717565727920666f72206e6f60008201527f6e6578697374656e7420746f6b656e0000000000000000000000000000000000602082015250565b7f4552433732313a20617070726f76616c20746f2063757272656e74206f776e6560008201527f7200000000000000000000000000000000000000000000000000000000000000602082015250565b7f546865206d696e696d756d20707269636520776173206e6f74206d6574210000600082015250565b7f4552433732313a207472616e736665722063616c6c6572206973206e6f74206f60008201527f776e6572206e6f7220617070726f766564000000000000000000000000000000602082015250565b7f455243373231456e756d657261626c653a20676c6f62616c20696e646578206f60008201527f7574206f6620626f756e64730000000000000000000000000000000000000000602082015250565b6131a281612aec565b81146131ad57600080fd5b50565b6131b981612afe565b81146131c457600080fd5b50565b6131d081612b0a565b81146131db57600080fd5b50565b6131e781612b56565b81146131f257600080fd5b5056fea264697066735822122018cd3ebd417b38f9cb6c0864efcff85210bfe34883b2956e6b6989569ad156a964736f6c63430008040033",
  "linkReferences": {},
  "deployedLinkReferences": {}
}