{
  "_format": "hh-sol-artifact-1",
  "contractName": "Record__1155",
  "sourceName": "contracts/Record__1155.sol",
  "abi": [
    {
      "anonymous": false,
      "inputs": [
        {
          "indexed": true,
          "internalType": "address",
          "name": "account",
          "type": "address"
        },
        {
          "indexed": true,
          "internalType": "address",
          "name": "operator",
          "type": "address"
        },
        {
          "indexed": false,
          "internalType": "bool",
          "name": "approved",
          "type": "bool"
        }
      ],
      "name": "ApprovalForAll",
      "type": "event"
    },
    {
      "anonymous": false,
      "inputs": [
        {
          "indexed": true,
          "internalType": "address",
          "name": "operator",
          "type": "address"
        },
        {
          "indexed": true,
          "internalType": "address",
          "name": "from",
          "type": "address"
        },
        {
          "indexed": true,
          "internalType": "address",
          "name": "to",
          "type": "address"
        },
        {
          "indexed": false,
          "internalType": "uint256[]",
          "name": "ids",
          "type": "uint256[]"
        },
        {
          "indexed": false,
          "internalType": "uint256[]",
          "name": "values",
          "type": "uint256[]"
        }
      ],
      "name": "TransferBatch",
      "type": "event"
    },
    {
      "anonymous": false,
      "inputs": [
        {
          "indexed": true,
          "internalType": "address",
          "name": "operator",
          "type": "address"
        },
        {
          "indexed": true,
          "internalType": "address",
          "name": "from",
          "type": "address"
        },
        {
          "indexed": true,
          "internalType": "address",
          "name": "to",
          "type": "address"
        },
        {
          "indexed": false,
          "internalType": "uint256",
          "name": "id",
          "type": "uint256"
        },
        {
          "indexed": false,
          "internalType": "uint256",
          "name": "value",
          "type": "uint256"
        }
      ],
      "name": "TransferSingle",
      "type": "event"
    },
    {
      "anonymous": false,
      "inputs": [
        {
          "indexed": false,
          "internalType": "string",
          "name": "value",
          "type": "string"
        },
        {
          "indexed": true,
          "internalType": "uint256",
          "name": "id",
          "type": "uint256"
        }
      ],
      "name": "URI",
      "type": "event"
    },
    {
      "inputs": [],
      "name": "_price",
      "outputs": [
        {
          "internalType": "uint256",
          "name": "",
          "type": "uint256"
        }
      ],
      "stateMutability": "view",
      "type": "function"
    },
    {
      "inputs": [],
      "name": "_uri",
      "outputs": [
        {
          "internalType": "string",
          "name": "",
          "type": "string"
        }
      ],
      "stateMutability": "view",
      "type": "function"
    },
    {
      "inputs": [
        {
          "internalType": "address",
          "name": "account",
          "type": "address"
        },
        {
          "internalType": "uint256",
          "name": "id",
          "type": "uint256"
        }
      ],
      "name": "balanceOf",
      "outputs": [
        {
          "internalType": "uint256",
          "name": "",
          "type": "uint256"
        }
      ],
      "stateMutability": "view",
      "type": "function"
    },
    {
      "inputs": [
        {
          "internalType": "address[]",
          "name": "accounts",
          "type": "address[]"
        },
        {
          "internalType": "uint256[]",
          "name": "ids",
          "type": "uint256[]"
        }
      ],
      "name": "balanceOfBatch",
      "outputs": [
        {
          "internalType": "uint256[]",
          "name": "",
          "type": "uint256[]"
        }
      ],
      "stateMutability": "view",
      "type": "function"
    },
    {
      "inputs": [
        {
          "internalType": "string",
          "name": "name_",
          "type": "string"
        },
        {
          "internalType": "string",
          "name": "symbol_",
          "type": "string"
        },
        {
          "internalType": "string",
          "name": "uri_",
          "type": "string"
        },
        {
          "internalType": "uint256",
          "name": "price",
          "type": "uint256"
        }
      ],
      "name": "initialize",
      "outputs": [],
      "stateMutability": "nonpayable",
      "type": "function"
    },
    {
      "inputs": [
        {
          "internalType": "address",
          "name": "account",
          "type": "address"
        },
        {
          "internalType": "address",
          "name": "operator",
          "type": "address"
        }
      ],
      "name": "isApprovedForAll",
      "outputs": [
        {
          "internalType": "bool",
          "name": "",
          "type": "bool"
        }
      ],
      "stateMutability": "view",
      "type": "function"
    },
    {
      "inputs": [
        {
          "internalType": "address",
          "name": "to",
          "type": "address"
        },
        {
          "internalType": "uint256",
          "name": "price",
          "type": "uint256"
        }
      ],
      "name": "mint",
      "outputs": [
        {
          "internalType": "uint256",
          "name": "",
          "type": "uint256"
        }
      ],
      "stateMutability": "nonpayable",
      "type": "function"
    },
    {
      "inputs": [],
      "name": "name",
      "outputs": [
        {
          "internalType": "string",
          "name": "",
          "type": "string"
        }
      ],
      "stateMutability": "view",
      "type": "function"
    },
    {
      "inputs": [
        {
          "internalType": "address",
          "name": "from",
          "type": "address"
        },
        {
          "internalType": "address",
          "name": "to",
          "type": "address"
        },
        {
          "internalType": "uint256[]",
          "name": "ids",
          "type": "uint256[]"
        },
        {
          "internalType": "uint256[]",
          "name": "amounts",
          "type": "uint256[]"
        },
        {
          "internalType": "bytes",
          "name": "data",
          "type": "bytes"
        }
      ],
      "name": "safeBatchTransferFrom",
      "outputs": [],
      "stateMutability": "nonpayable",
      "type": "function"
    },
    {
      "inputs": [
        {
          "internalType": "address",
          "name": "from",
          "type": "address"
        },
        {
          "internalType": "address",
          "name": "to",
          "type": "address"
        },
        {
          "internalType": "uint256",
          "name": "id",
          "type": "uint256"
        },
        {
          "internalType": "uint256",
          "name": "amount",
          "type": "uint256"
        },
        {
          "internalType": "bytes",
          "name": "data",
          "type": "bytes"
        }
      ],
      "name": "safeTransferFrom",
      "outputs": [],
      "stateMutability": "nonpayable",
      "type": "function"
    },
    {
      "inputs": [
        {
          "internalType": "address",
          "name": "operator",
          "type": "address"
        },
        {
          "internalType": "bool",
          "name": "approved",
          "type": "bool"
        }
      ],
      "name": "setApprovalForAll",
      "outputs": [],
      "stateMutability": "nonpayable",
      "type": "function"
    },
    {
      "inputs": [
        {
          "internalType": "bytes4",
          "name": "interfaceId",
          "type": "bytes4"
        }
      ],
      "name": "supportsInterface",
      "outputs": [
        {
          "internalType": "bool",
          "name": "",
          "type": "bool"
        }
      ],
      "stateMutability": "view",
      "type": "function"
    },
    {
      "inputs": [],
      "name": "symbol",
      "outputs": [
        {
          "internalType": "string",
          "name": "",
          "type": "string"
        }
      ],
      "stateMutability": "view",
      "type": "function"
    },
    {
      "inputs": [
        {
          "internalType": "uint256",
          "name": "",
          "type": "uint256"
        }
      ],
      "name": "uri",
      "outputs": [
        {
          "internalType": "string",
          "name": "",
          "type": "string"
        }
      ],
      "stateMutability": "view",
      "type": "function"
    }
  ],
  "bytecode": "0x608060405234801561001057600080fd5b50613034806100206000396000f3fe608060405234801561001057600080fd5b50600436106100e95760003560e01c80632eb2c2d61161008c57806395d89b411161006657806395d89b4114610270578063a22cb4651461028e578063e985e9c5146102aa578063f242432a146102da576100e9565b80632eb2c2d6146101f457806340c10f19146102105780634e1273f414610240576100e9565b80630dccc9ad116100c85780630dccc9ad1461016c5780630e89341c1461018a5780631c5d2b49146101ba578063235b6ea1146101d6576100e9565b8062fdd58e146100ee57806301ffc9a71461011e57806306fdde031461014e575b600080fd5b61010860048036038101906101039190611f65565b6102f6565b6040516101159190612716565b60405180910390f35b6101386004803603810190610133919061200d565b6103bf565b6040516101459190612539565b60405180910390f35b6101566104a1565b6040516101639190612554565b60405180910390f35b61017461052f565b6040516101819190612554565b60405180910390f35b6101a4600480360381019061019f919061210a565b6105bd565b6040516101b19190612554565b60405180910390f35b6101d460048036038101906101cf919061205f565b610651565b005b6101de61077c565b6040516101eb9190612716565b60405180910390f35b61020e60048036038101906102099190611ddb565b610782565b005b61022a60048036038101906102259190611f65565b610823565b6040516102379190612716565b60405180910390f35b61025a60048036038101906102559190611fa1565b6108a8565b60405161026791906124e0565b60405180910390f35b610278610a59565b6040516102859190612554565b60405180910390f35b6102a860048036038101906102a39190611f29565b610ae7565b005b6102c460048036038101906102bf9190611d9f565b610afd565b6040516102d19190612539565b60405180910390f35b6102f460048036038101906102ef9190611e9a565b610b91565b005b60008073ffffffffffffffffffffffffffffffffffffffff168373ffffffffffffffffffffffffffffffffffffffff161415610367576040517f08c379a000000000000000000000000000000000000000000000000000000000815260040161035e906125b6565b60405180910390fd5b60008083815260200190815260200160002060008473ffffffffffffffffffffffffffffffffffffffff1673ffffffffffffffffffffffffffffffffffffffff16815260200190815260200160002054905092915050565b60007fd9b67a26000000000000000000000000000000000000000000000000000000007bffffffffffffffffffffffffffffffffffffffffffffffffffffffff1916827bffffffffffffffffffffffffffffffffffffffffffffffffffffffff1916148061048a57507f0e89341c000000000000000000000000000000000000000000000000000000007bffffffffffffffffffffffffffffffffffffffffffffffffffffffff1916827bffffffffffffffffffffffffffffffffffffffffffffffffffffffff1916145b8061049a575061049982610c32565b5b9050919050565b600580546104ae906129b6565b80601f01602080910402602001604051908101604052809291908181526020018280546104da906129b6565b80156105275780601f106104fc57610100808354040283529160200191610527565b820191906000526020600020905b81548152906001019060200180831161050a57829003601f168201915b505050505081565b6007805461053c906129b6565b80601f0160208091040260200160405190810160405280929190818152602001828054610568906129b6565b80156105b55780601f1061058a576101008083540402835291602001916105b5565b820191906000526020600020905b81548152906001019060200180831161059857829003601f168201915b505050505081565b6060600780546105cc906129b6565b80601f01602080910402602001604051908101604052809291908181526020018280546105f8906129b6565b80156106455780601f1061061a57610100808354040283529160200191610645565b820191906000526020600020905b81548152906001019060200180831161062857829003601f168201915b50505050509050919050565b600360019054906101000a900460ff1661067b57600360009054906101000a900460ff1615610684565b610683610c9c565b5b6106c3576040517f08c379a00000000000000000000000000000000000000000000000000000000081526004016106ba90612636565b60405180910390fd5b6000600360019054906101000a900460ff161590508015610715576001600360016101000a81548160ff0219169083151502179055506001600360006101000a81548160ff0219169083151502179055505b846005908051906020019061072b929190611a97565b508360069080519060200190610742929190611a97565b5061074c83610cad565b816008819055508015610775576000600360016101000a81548160ff0219169083151502179055505b5050505050565b60085481565b61078a610cc7565b73ffffffffffffffffffffffffffffffffffffffff168573ffffffffffffffffffffffffffffffffffffffff1614806107d057506107cf856107ca610cc7565b610afd565b5b61080f576040517f08c379a000000000000000000000000000000000000000000000000000000000815260040161080690612616565b60405180910390fd5b61081c8585858585610ccf565b5050505050565b600060085482101561086a576040517f08c379a000000000000000000000000000000000000000000000000000000000815260040161086190612676565b60405180910390fd5b610874600461102f565b60006108806004611045565b905061089e8482600160405180602001604052806000815250611053565b8091505092915050565b606081518351146108ee576040517f08c379a00000000000000000000000000000000000000000000000000000000081526004016108e5906126b6565b60405180910390fd5b6000835167ffffffffffffffff811115610931577f4e487b7100000000000000000000000000000000000000000000000000000000600052604160045260246000fd5b60405190808252806020026020018201604052801561095f5781602001602082028036833780820191505090505b50905060005b8451811015610a4e576109f88582815181106109aa577f4e487b7100000000000000000000000000000000000000000000000000000000600052603260045260246000fd5b60200260200101518583815181106109eb577f4e487b7100000000000000000000000000000000000000000000000000000000600052603260045260246000fd5b60200260200101516102f6565b828281518110610a31577f4e487b7100000000000000000000000000000000000000000000000000000000600052603260045260246000fd5b60200260200101818152505080610a4790612a19565b9050610965565b508091505092915050565b60068054610a66906129b6565b80601f0160208091040260200160405190810160405280929190818152602001828054610a92906129b6565b8015610adf5780601f10610ab457610100808354040283529160200191610adf565b820191906000526020600020905b815481529060010190602001808311610ac257829003601f168201915b505050505081565b610af9610af2610cc7565b83836111e9565b5050565b6000600160008473ffffffffffffffffffffffffffffffffffffffff1673ffffffffffffffffffffffffffffffffffffffff16815260200190815260200160002060008373ffffffffffffffffffffffffffffffffffffffff1673ffffffffffffffffffffffffffffffffffffffff16815260200190815260200160002060009054906101000a900460ff16905092915050565b610b99610cc7565b73ffffffffffffffffffffffffffffffffffffffff168573ffffffffffffffffffffffffffffffffffffffff161480610bdf5750610bde85610bd9610cc7565b610afd565b5b610c1e576040517f08c379a0000000000000000000000000000000000000000000000000000000008152600401610c15906125d6565b60405180910390fd5b610c2b8585858585611356565b5050505050565b60007f01ffc9a7000000000000000000000000000000000000000000000000000000007bffffffffffffffffffffffffffffffffffffffffffffffffffffffff1916827bffffffffffffffffffffffffffffffffffffffffffffffffffffffff1916149050919050565b6000610ca7306115d8565b15905090565b8060079080519060200190610cc3929190611a97565b5050565b600033905090565b8151835114610d13576040517f08c379a0000000000000000000000000000000000000000000000000000000008152600401610d0a906126d6565b60405180910390fd5b600073ffffffffffffffffffffffffffffffffffffffff168473ffffffffffffffffffffffffffffffffffffffff161415610d83576040517f08c379a0000000000000000000000000000000000000000000000000000000008152600401610d7a906125f6565b60405180910390fd5b6000610d8d610cc7565b9050610d9d8187878787876115fb565b60005b8451811015610f9a576000858281518110610de4577f4e487b7100000000000000000000000000000000000000000000000000000000600052603260045260246000fd5b602002602001015190506000858381518110610e29577f4e487b7100000000000000000000000000000000000000000000000000000000600052603260045260246000fd5b60200260200101519050600080600084815260200190815260200160002060008b73ffffffffffffffffffffffffffffffffffffffff1673ffffffffffffffffffffffffffffffffffffffff16815260200190815260200160002054905081811015610eca576040517f08c379a0000000000000000000000000000000000000000000000000000000008152600401610ec190612656565b60405180910390fd5b81810360008085815260200190815260200160002060008c73ffffffffffffffffffffffffffffffffffffffff1673ffffffffffffffffffffffffffffffffffffffff168152602001908152602001600020819055508160008085815260200190815260200160002060008b73ffffffffffffffffffffffffffffffffffffffff1673ffffffffffffffffffffffffffffffffffffffff1681526020019081526020016000206000828254610f7f91906128aa565b9250508190555050505080610f9390612a19565b9050610da0565b508473ffffffffffffffffffffffffffffffffffffffff168673ffffffffffffffffffffffffffffffffffffffff168273ffffffffffffffffffffffffffffffffffffffff167f4a39dc06d4c0dbc64b70af90fd698a233a518aa5d07e595d983b8c0526c8f7fb8787604051611011929190612502565b60405180910390a4611027818787878787611603565b505050505050565b6001816000016000828254019250508190555050565b600081600001549050919050565b600073ffffffffffffffffffffffffffffffffffffffff168473ffffffffffffffffffffffffffffffffffffffff1614156110c3576040517f08c379a00000000000000000000000000000000000000000000000000000000081526004016110ba906126f6565b60405180910390fd5b60006110cd610cc7565b90506110ee816000876110df886117ea565b6110e8886117ea565b876115fb565b8260008086815260200190815260200160002060008773ffffffffffffffffffffffffffffffffffffffff1673ffffffffffffffffffffffffffffffffffffffff168152602001908152602001600020600082825461114d91906128aa565b925050819055508473ffffffffffffffffffffffffffffffffffffffff16600073ffffffffffffffffffffffffffffffffffffffff168273ffffffffffffffffffffffffffffffffffffffff167fc3d58168c5ae7397731d063d5bbf3d657854427343f4c083240f7aacaa2d0f6287876040516111cb929190612731565b60405180910390a46111e2816000878787876118b0565b5050505050565b8173ffffffffffffffffffffffffffffffffffffffff168373ffffffffffffffffffffffffffffffffffffffff161415611258576040517f08c379a000000000000000000000000000000000000000000000000000000000815260040161124f90612696565b60405180910390fd5b80600160008573ffffffffffffffffffffffffffffffffffffffff1673ffffffffffffffffffffffffffffffffffffffff16815260200190815260200160002060008473ffffffffffffffffffffffffffffffffffffffff1673ffffffffffffffffffffffffffffffffffffffff16815260200190815260200160002060006101000a81548160ff0219169083151502179055508173ffffffffffffffffffffffffffffffffffffffff168373ffffffffffffffffffffffffffffffffffffffff167f17307eab39ab6107e8899845ad3d59bd9653f200f220920489ca2b5937696c31836040516113499190612539565b60405180910390a3505050565b600073ffffffffffffffffffffffffffffffffffffffff168473ffffffffffffffffffffffffffffffffffffffff1614156113c6576040517f08c379a00000000000000000000000000000000000000000000000000000000081526004016113bd906125f6565b60405180910390fd5b60006113d0610cc7565b90506113f08187876113e1886117ea565b6113ea886117ea565b876115fb565b600080600086815260200190815260200160002060008873ffffffffffffffffffffffffffffffffffffffff1673ffffffffffffffffffffffffffffffffffffffff16815260200190815260200160002054905083811015611487576040517f08c379a000000000000000000000000000000000000000000000000000000000815260040161147e90612656565b60405180910390fd5b83810360008087815260200190815260200160002060008973ffffffffffffffffffffffffffffffffffffffff1673ffffffffffffffffffffffffffffffffffffffff168152602001908152602001600020819055508360008087815260200190815260200160002060008873ffffffffffffffffffffffffffffffffffffffff1673ffffffffffffffffffffffffffffffffffffffff168152602001908152602001600020600082825461153c91906128aa565b925050819055508573ffffffffffffffffffffffffffffffffffffffff168773ffffffffffffffffffffffffffffffffffffffff168373ffffffffffffffffffffffffffffffffffffffff167fc3d58168c5ae7397731d063d5bbf3d657854427343f4c083240f7aacaa2d0f6288886040516115b9929190612731565b60405180910390a46115cf8288888888886118b0565b50505050505050565b6000808273ffffffffffffffffffffffffffffffffffffffff163b119050919050565b505050505050565b6116228473ffffffffffffffffffffffffffffffffffffffff166115d8565b156117e2578373ffffffffffffffffffffffffffffffffffffffff1663bc197c8187878686866040518663ffffffff1660e01b815260040161166895949392919061241e565b602060405180830381600087803b15801561168257600080fd5b505af19250505080156116b357506040513d601f19601f820116820180604052508101906116b09190612036565b60015b611759576116bf612aef565b806308c379a0141561171c57506116d4612f0c565b806116df575061171e565b806040517f08c379a00000000000000000000000000000000000000000000000000000000081526004016117139190612554565b60405180910390fd5b505b6040517f08c379a000000000000000000000000000000000000000000000000000000000815260040161175090612576565b60405180910390fd5b63bc197c8160e01b7bffffffffffffffffffffffffffffffffffffffffffffffffffffffff1916817bffffffffffffffffffffffffffffffffffffffffffffffffffffffff1916146117e0576040517f08c379a00000000000000000000000000000000000000000000000000000000081526004016117d790612596565b60405180910390fd5b505b505050505050565b60606000600167ffffffffffffffff81111561182f577f4e487b7100000000000000000000000000000000000000000000000000000000600052604160045260246000fd5b60405190808252806020026020018201604052801561185d5781602001602082028036833780820191505090505b509050828160008151811061189b577f4e487b7100000000000000000000000000000000000000000000000000000000600052603260045260246000fd5b60200260200101818152505080915050919050565b6118cf8473ffffffffffffffffffffffffffffffffffffffff166115d8565b15611a8f578373ffffffffffffffffffffffffffffffffffffffff1663f23a6e6187878686866040518663ffffffff1660e01b8152600401611915959493929190612486565b602060405180830381600087803b15801561192f57600080fd5b505af192505050801561196057506040513d601f19601f8201168201806040525081019061195d9190612036565b60015b611a065761196c612aef565b806308c379a014156119c95750611981612f0c565b8061198c57506119cb565b806040517f08c379a00000000000000000000000000000000000000000000000000000000081526004016119c09190612554565b60405180910390fd5b505b6040517f08c379a00000000000000000000000000000000000000000000000000000000081526004016119fd90612576565b60405180910390fd5b63f23a6e6160e01b7bffffffffffffffffffffffffffffffffffffffffffffffffffffffff1916817bffffffffffffffffffffffffffffffffffffffffffffffffffffffff191614611a8d576040517f08c379a0000000000000000000000000000000000000000000000000000000008152600401611a8490612596565b60405180910390fd5b505b505050505050565b828054611aa3906129b6565b90600052602060002090601f016020900481019282611ac55760008555611b0c565b82601f10611ade57805160ff1916838001178555611b0c565b82800160010185558215611b0c579182015b82811115611b0b578251825591602001919060010190611af0565b5b509050611b199190611b1d565b5090565b5b80821115611b36576000816000905550600101611b1e565b5090565b6000611b4d611b488461277f565b61275a565b90508083825260208201905082856020860282011115611b6c57600080fd5b60005b85811015611b9c5781611b828882611c8e565b845260208401935060208301925050600181019050611b6f565b5050509392505050565b6000611bb9611bb4846127ab565b61275a565b90508083825260208201905082856020860282011115611bd857600080fd5b60005b85811015611c085781611bee8882611d8a565b845260208401935060208301925050600181019050611bdb565b5050509392505050565b6000611c25611c20846127d7565b61275a565b905082815260208101848484011115611c3d57600080fd5b611c48848285612974565b509392505050565b6000611c63611c5e84612808565b61275a565b905082815260208101848484011115611c7b57600080fd5b611c86848285612974565b509392505050565b600081359050611c9d81612fa2565b92915050565b600082601f830112611cb457600080fd5b8135611cc4848260208601611b3a565b91505092915050565b600082601f830112611cde57600080fd5b8135611cee848260208601611ba6565b91505092915050565b600081359050611d0681612fb9565b92915050565b600081359050611d1b81612fd0565b92915050565b600081519050611d3081612fd0565b92915050565b600082601f830112611d4757600080fd5b8135611d57848260208601611c12565b91505092915050565b600082601f830112611d7157600080fd5b8135611d81848260208601611c50565b91505092915050565b600081359050611d9981612fe7565b92915050565b60008060408385031215611db257600080fd5b6000611dc085828601611c8e565b9250506020611dd185828601611c8e565b9150509250929050565b600080600080600060a08688031215611df357600080fd5b6000611e0188828901611c8e565b9550506020611e1288828901611c8e565b945050604086013567ffffffffffffffff811115611e2f57600080fd5b611e3b88828901611ccd565b935050606086013567ffffffffffffffff811115611e5857600080fd5b611e6488828901611ccd565b925050608086013567ffffffffffffffff811115611e8157600080fd5b611e8d88828901611d36565b9150509295509295909350565b600080600080600060a08688031215611eb257600080fd5b6000611ec088828901611c8e565b9550506020611ed188828901611c8e565b9450506040611ee288828901611d8a565b9350506060611ef388828901611d8a565b925050608086013567ffffffffffffffff811115611f1057600080fd5b611f1c88828901611d36565b9150509295509295909350565b60008060408385031215611f3c57600080fd5b6000611f4a85828601611c8e565b9250506020611f5b85828601611cf7565b9150509250929050565b60008060408385031215611f7857600080fd5b6000611f8685828601611c8e565b9250506020611f9785828601611d8a565b9150509250929050565b60008060408385031215611fb457600080fd5b600083013567ffffffffffffffff811115611fce57600080fd5b611fda85828601611ca3565b925050602083013567ffffffffffffffff811115611ff757600080fd5b61200385828601611ccd565b9150509250929050565b60006020828403121561201f57600080fd5b600061202d84828501611d0c565b91505092915050565b60006020828403121561204857600080fd5b600061205684828501611d21565b91505092915050565b6000806000806080858703121561207557600080fd5b600085013567ffffffffffffffff81111561208f57600080fd5b61209b87828801611d60565b945050602085013567ffffffffffffffff8111156120b857600080fd5b6120c487828801611d60565b935050604085013567ffffffffffffffff8111156120e157600080fd5b6120ed87828801611d60565b92505060606120fe87828801611d8a565b91505092959194509250565b60006020828403121561211c57600080fd5b600061212a84828501611d8a565b91505092915050565b600061213f8383612400565b60208301905092915050565b61215481612900565b82525050565b600061216582612849565b61216f8185612877565b935061217a83612839565b8060005b838110156121ab5781516121928882612133565b975061219d8361286a565b92505060018101905061217e565b5085935050505092915050565b6121c181612912565b82525050565b60006121d282612854565b6121dc8185612888565b93506121ec818560208601612983565b6121f581612b11565b840191505092915050565b600061220b8261285f565b6122158185612899565b9350612225818560208601612983565b61222e81612b11565b840191505092915050565b6000612246603483612899565b915061225182612b2f565b604082019050919050565b6000612269602883612899565b915061227482612b7e565b604082019050919050565b600061228c602b83612899565b915061229782612bcd565b604082019050919050565b60006122af602983612899565b91506122ba82612c1c565b604082019050919050565b60006122d2602583612899565b91506122dd82612c6b565b604082019050919050565b60006122f5603283612899565b915061230082612cba565b604082019050919050565b6000612318602e83612899565b915061232382612d09565b604082019050919050565b600061233b602a83612899565b915061234682612d58565b604082019050919050565b600061235e601e83612899565b915061236982612da7565b602082019050919050565b6000612381602983612899565b915061238c82612dd0565b604082019050919050565b60006123a4602983612899565b91506123af82612e1f565b604082019050919050565b60006123c7602883612899565b91506123d282612e6e565b604082019050919050565b60006123ea602183612899565b91506123f582612ebd565b604082019050919050565b6124098161296a565b82525050565b6124188161296a565b82525050565b600060a082019050612433600083018861214b565b612440602083018761214b565b8181036040830152612452818661215a565b90508181036060830152612466818561215a565b9050818103608083015261247a81846121c7565b90509695505050505050565b600060a08201905061249b600083018861214b565b6124a8602083018761214b565b6124b5604083018661240f565b6124c2606083018561240f565b81810360808301526124d481846121c7565b90509695505050505050565b600060208201905081810360008301526124fa818461215a565b905092915050565b6000604082019050818103600083015261251c818561215a565b90508181036020830152612530818461215a565b90509392505050565b600060208201905061254e60008301846121b8565b92915050565b6000602082019050818103600083015261256e8184612200565b905092915050565b6000602082019050818103600083015261258f81612239565b9050919050565b600060208201905081810360008301526125af8161225c565b9050919050565b600060208201905081810360008301526125cf8161227f565b9050919050565b600060208201905081810360008301526125ef816122a2565b9050919050565b6000602082019050818103600083015261260f816122c5565b9050919050565b6000602082019050818103600083015261262f816122e8565b9050919050565b6000602082019050818103600083015261264f8161230b565b9050919050565b6000602082019050818103600083015261266f8161232e565b9050919050565b6000602082019050818103600083015261268f81612351565b9050919050565b600060208201905081810360008301526126af81612374565b9050919050565b600060208201905081810360008301526126cf81612397565b9050919050565b600060208201905081810360008301526126ef816123ba565b9050919050565b6000602082019050818103600083015261270f816123dd565b9050919050565b600060208201905061272b600083018461240f565b92915050565b6000604082019050612746600083018561240f565b612753602083018461240f565b9392505050565b6000612764612775565b905061277082826129e8565b919050565b6000604051905090565b600067ffffffffffffffff82111561279a57612799612ac0565b5b602082029050602081019050919050565b600067ffffffffffffffff8211156127c6576127c5612ac0565b5b602082029050602081019050919050565b600067ffffffffffffffff8211156127f2576127f1612ac0565b5b6127fb82612b11565b9050602081019050919050565b600067ffffffffffffffff82111561282357612822612ac0565b5b61282c82612b11565b9050602081019050919050565b6000819050602082019050919050565b600081519050919050565b600081519050919050565b600081519050919050565b6000602082019050919050565b600082825260208201905092915050565b600082825260208201905092915050565b600082825260208201905092915050565b60006128b58261296a565b91506128c08361296a565b9250827fffffffffffffffffffffffffffffffffffffffffffffffffffffffffffffffff038211156128f5576128f4612a62565b5b828201905092915050565b600061290b8261294a565b9050919050565b60008115159050919050565b60007fffffffff0000000000000000000000000000000000000000000000000000000082169050919050565b600073ffffffffffffffffffffffffffffffffffffffff82169050919050565b6000819050919050565b82818337600083830152505050565b60005b838110156129a1578082015181840152602081019050612986565b838111156129b0576000848401525b50505050565b600060028204905060018216806129ce57607f821691505b602082108114156129e2576129e1612a91565b5b50919050565b6129f182612b11565b810181811067ffffffffffffffff82111715612a1057612a0f612ac0565b5b80604052505050565b6000612a248261296a565b91507fffffffffffffffffffffffffffffffffffffffffffffffffffffffffffffffff821415612a5757612a56612a62565b5b600182019050919050565b7f4e487b7100000000000000000000000000000000000000000000000000000000600052601160045260246000fd5b7f4e487b7100000000000000000000000000000000000000000000000000000000600052602260045260246000fd5b7f4e487b7100000000000000000000000000000000000000000000000000000000600052604160045260246000fd5b600060033d1115612b0e5760046000803e612b0b600051612b22565b90505b90565b6000601f19601f8301169050919050565b60008160e01c9050919050565b7f455243313135353a207472616e7366657220746f206e6f6e204552433131353560008201527f526563656976657220696d706c656d656e746572000000000000000000000000602082015250565b7f455243313135353a204552433131353552656365697665722072656a6563746560008201527f6420746f6b656e73000000000000000000000000000000000000000000000000602082015250565b7f455243313135353a2062616c616e636520717565727920666f7220746865207a60008201527f65726f2061646472657373000000000000000000000000000000000000000000602082015250565b7f455243313135353a2063616c6c6572206973206e6f74206f776e6572206e6f7260008201527f20617070726f7665640000000000000000000000000000000000000000000000602082015250565b7f455243313135353a207472616e7366657220746f20746865207a65726f20616460008201527f6472657373000000000000000000000000000000000000000000000000000000602082015250565b7f455243313135353a207472616e736665722063616c6c6572206973206e6f742060008201527f6f776e6572206e6f7220617070726f7665640000000000000000000000000000602082015250565b7f496e697469616c697a61626c653a20636f6e747261637420697320616c72656160008201527f647920696e697469616c697a6564000000000000000000000000000000000000602082015250565b7f455243313135353a20696e73756666696369656e742062616c616e636520666f60008201527f72207472616e7366657200000000000000000000000000000000000000000000602082015250565b7f546865206d696e696d756d20707269636520776173206e6f74206d6574210000600082015250565b7f455243313135353a2073657474696e6720617070726f76616c2073746174757360008201527f20666f722073656c660000000000000000000000000000000000000000000000602082015250565b7f455243313135353a206163636f756e747320616e6420696473206c656e67746860008201527f206d69736d617463680000000000000000000000000000000000000000000000602082015250565b7f455243313135353a2069647320616e6420616d6f756e7473206c656e6774682060008201527f6d69736d61746368000000000000000000000000000000000000000000000000602082015250565b7f455243313135353a206d696e7420746f20746865207a65726f2061646472657360008201527f7300000000000000000000000000000000000000000000000000000000000000602082015250565b600060443d1015612f1c57612f9f565b612f24612775565b60043d036004823e80513d602482011167ffffffffffffffff82111715612f4c575050612f9f565b808201805167ffffffffffffffff811115612f6a5750505050612f9f565b80602083010160043d038501811115612f87575050505050612f9f565b612f96826020018501866129e8565b82955050505050505b90565b612fab81612900565b8114612fb657600080fd5b50565b612fc281612912565b8114612fcd57600080fd5b50565b612fd98161291e565b8114612fe457600080fd5b50565b612ff08161296a565b8114612ffb57600080fd5b5056fea264697066735822122067f16c65a2f2761559f1c4191ae8deab414d67abec7a7eb1a9254ae40ef7490464736f6c63430008040033",
  "linkReferences": {},
  "deployedLinkReferences": {}
}