{
  "_format": "hh-sol-artifact-1",
  "contractName": "Record__1155",
  "sourceName": "contracts/Record__1155.sol",
  "abi": [
    {
      "anonymous": false,
      "inputs": [
        {
          "indexed": true,
          "internalType": "address",
          "name": "account",
          "type": "address"
        },
        {
          "indexed": true,
          "internalType": "address",
          "name": "operator",
          "type": "address"
        },
        {
          "indexed": false,
          "internalType": "bool",
          "name": "approved",
          "type": "bool"
        }
      ],
      "name": "ApprovalForAll",
      "type": "event"
    },
    {
      "anonymous": false,
      "inputs": [
        {
          "indexed": true,
          "internalType": "address",
          "name": "operator",
          "type": "address"
        },
        {
          "indexed": true,
          "internalType": "address",
          "name": "from",
          "type": "address"
        },
        {
          "indexed": true,
          "internalType": "address",
          "name": "to",
          "type": "address"
        },
        {
          "indexed": false,
          "internalType": "uint256[]",
          "name": "ids",
          "type": "uint256[]"
        },
        {
          "indexed": false,
          "internalType": "uint256[]",
          "name": "values",
          "type": "uint256[]"
        }
      ],
      "name": "TransferBatch",
      "type": "event"
    },
    {
      "anonymous": false,
      "inputs": [
        {
          "indexed": true,
          "internalType": "address",
          "name": "operator",
          "type": "address"
        },
        {
          "indexed": true,
          "internalType": "address",
          "name": "from",
          "type": "address"
        },
        {
          "indexed": true,
          "internalType": "address",
          "name": "to",
          "type": "address"
        },
        {
          "indexed": false,
          "internalType": "uint256",
          "name": "id",
          "type": "uint256"
        },
        {
          "indexed": false,
          "internalType": "uint256",
          "name": "value",
          "type": "uint256"
        }
      ],
      "name": "TransferSingle",
      "type": "event"
    },
    {
      "anonymous": false,
      "inputs": [
        {
          "indexed": false,
          "internalType": "string",
          "name": "value",
          "type": "string"
        },
        {
          "indexed": true,
          "internalType": "uint256",
          "name": "id",
          "type": "uint256"
        }
      ],
      "name": "URI",
      "type": "event"
    },
    {
      "inputs": [],
      "name": "_price",
      "outputs": [
        {
          "internalType": "uint256",
          "name": "",
          "type": "uint256"
        }
      ],
      "stateMutability": "view",
      "type": "function"
    },
    {
      "inputs": [],
      "name": "_uri",
      "outputs": [
        {
          "internalType": "string",
          "name": "",
          "type": "string"
        }
      ],
      "stateMutability": "view",
      "type": "function"
    },
    {
      "inputs": [
        {
          "internalType": "address",
          "name": "account",
          "type": "address"
        },
        {
          "internalType": "uint256",
          "name": "id",
          "type": "uint256"
        }
      ],
      "name": "balanceOf",
      "outputs": [
        {
          "internalType": "uint256",
          "name": "",
          "type": "uint256"
        }
      ],
      "stateMutability": "view",
      "type": "function"
    },
    {
      "inputs": [
        {
          "internalType": "address[]",
          "name": "accounts",
          "type": "address[]"
        },
        {
          "internalType": "uint256[]",
          "name": "ids",
          "type": "uint256[]"
        }
      ],
      "name": "balanceOfBatch",
      "outputs": [
        {
          "internalType": "uint256[]",
          "name": "",
          "type": "uint256[]"
        }
      ],
      "stateMutability": "view",
      "type": "function"
    },
    {
      "inputs": [
        {
          "internalType": "string",
          "name": "name_",
          "type": "string"
        },
        {
          "internalType": "string",
          "name": "symbol_",
          "type": "string"
        },
        {
          "internalType": "string",
          "name": "uri_",
          "type": "string"
        },
        {
          "internalType": "uint256",
          "name": "price",
          "type": "uint256"
        }
      ],
      "name": "initialize",
      "outputs": [],
      "stateMutability": "nonpayable",
      "type": "function"
    },
    {
      "inputs": [
        {
          "internalType": "address",
          "name": "account",
          "type": "address"
        },
        {
          "internalType": "address",
          "name": "operator",
          "type": "address"
        }
      ],
      "name": "isApprovedForAll",
      "outputs": [
        {
          "internalType": "bool",
          "name": "",
          "type": "bool"
        }
      ],
      "stateMutability": "view",
      "type": "function"
    },
    {
      "inputs": [
        {
          "internalType": "address",
          "name": "to",
          "type": "address"
        }
      ],
      "name": "mint",
      "outputs": [
        {
          "internalType": "uint256",
          "name": "",
          "type": "uint256"
        }
      ],
      "stateMutability": "nonpayable",
      "type": "function"
    },
    {
      "inputs": [],
      "name": "name",
      "outputs": [
        {
          "internalType": "string",
          "name": "",
          "type": "string"
        }
      ],
      "stateMutability": "view",
      "type": "function"
    },
    {
      "inputs": [
        {
          "internalType": "address",
          "name": "from",
          "type": "address"
        },
        {
          "internalType": "address",
          "name": "to",
          "type": "address"
        },
        {
          "internalType": "uint256[]",
          "name": "ids",
          "type": "uint256[]"
        },
        {
          "internalType": "uint256[]",
          "name": "amounts",
          "type": "uint256[]"
        },
        {
          "internalType": "bytes",
          "name": "data",
          "type": "bytes"
        }
      ],
      "name": "safeBatchTransferFrom",
      "outputs": [],
      "stateMutability": "nonpayable",
      "type": "function"
    },
    {
      "inputs": [
        {
          "internalType": "address",
          "name": "from",
          "type": "address"
        },
        {
          "internalType": "address",
          "name": "to",
          "type": "address"
        },
        {
          "internalType": "uint256",
          "name": "id",
          "type": "uint256"
        },
        {
          "internalType": "uint256",
          "name": "amount",
          "type": "uint256"
        },
        {
          "internalType": "bytes",
          "name": "data",
          "type": "bytes"
        }
      ],
      "name": "safeTransferFrom",
      "outputs": [],
      "stateMutability": "nonpayable",
      "type": "function"
    },
    {
      "inputs": [
        {
          "internalType": "address",
          "name": "operator",
          "type": "address"
        },
        {
          "internalType": "bool",
          "name": "approved",
          "type": "bool"
        }
      ],
      "name": "setApprovalForAll",
      "outputs": [],
      "stateMutability": "nonpayable",
      "type": "function"
    },
    {
      "inputs": [
        {
          "internalType": "bytes4",
          "name": "interfaceId",
          "type": "bytes4"
        }
      ],
      "name": "supportsInterface",
      "outputs": [
        {
          "internalType": "bool",
          "name": "",
          "type": "bool"
        }
      ],
      "stateMutability": "view",
      "type": "function"
    },
    {
      "inputs": [],
      "name": "symbol",
      "outputs": [
        {
          "internalType": "string",
          "name": "",
          "type": "string"
        }
      ],
      "stateMutability": "view",
      "type": "function"
    },
    {
      "inputs": [
        {
          "internalType": "uint256",
          "name": "",
          "type": "uint256"
        }
      ],
      "name": "uri",
      "outputs": [
        {
          "internalType": "string",
          "name": "",
          "type": "string"
        }
      ],
      "stateMutability": "view",
      "type": "function"
    }
  ],
  "bytecode": "0x608060405234801561001057600080fd5b50612fab806100206000396000f3fe608060405234801561001057600080fd5b50600436106100e95760003560e01c80632eb2c2d61161008c57806395d89b411161006657806395d89b4114610270578063a22cb4651461028e578063e985e9c5146102aa578063f242432a146102da576100e9565b80632eb2c2d6146101f45780634e1273f4146102105780636a62784214610240576100e9565b80630dccc9ad116100c85780630dccc9ad1461016c5780630e89341c1461018a5780631c5d2b49146101ba578063235b6ea1146101d6576100e9565b8062fdd58e146100ee57806301ffc9a71461011e57806306fdde031461014e575b600080fd5b61010860048036038101906101039190611f48565b6102f6565b60405161011591906126b6565b60405180910390f35b61013860048036038101906101339190611ff0565b6103bf565b60405161014591906124f9565b60405180910390f35b6101566104a1565b6040516101639190612514565b60405180910390f35b61017461052f565b6040516101819190612514565b60405180910390f35b6101a4600480360381019061019f91906120ed565b6105bd565b6040516101b19190612514565b60405180910390f35b6101d460048036038101906101cf9190612042565b610651565b005b6101de61077c565b6040516101eb91906126b6565b60405180910390f35b61020e60048036038101906102099190611dbe565b610782565b005b61022a60048036038101906102259190611f84565b610823565b60405161023791906124a0565b60405180910390f35b61025a60048036038101906102559190611d59565b6109d4565b60405161026791906126b6565b60405180910390f35b610278610a13565b6040516102859190612514565b60405180910390f35b6102a860048036038101906102a39190611f0c565b610aa1565b005b6102c460048036038101906102bf9190611d82565b610ab7565b6040516102d191906124f9565b60405180910390f35b6102f460048036038101906102ef9190611e7d565b610b4b565b005b60008073ffffffffffffffffffffffffffffffffffffffff168373ffffffffffffffffffffffffffffffffffffffff161415610367576040517f08c379a000000000000000000000000000000000000000000000000000000000815260040161035e90612576565b60405180910390fd5b60008083815260200190815260200160002060008473ffffffffffffffffffffffffffffffffffffffff1673ffffffffffffffffffffffffffffffffffffffff16815260200190815260200160002054905092915050565b60007fd9b67a26000000000000000000000000000000000000000000000000000000007bffffffffffffffffffffffffffffffffffffffffffffffffffffffff1916827bffffffffffffffffffffffffffffffffffffffffffffffffffffffff1916148061048a57507f0e89341c000000000000000000000000000000000000000000000000000000007bffffffffffffffffffffffffffffffffffffffffffffffffffffffff1916827bffffffffffffffffffffffffffffffffffffffffffffffffffffffff1916145b8061049a575061049982610bec565b5b9050919050565b600580546104ae90612956565b80601f01602080910402602001604051908101604052809291908181526020018280546104da90612956565b80156105275780601f106104fc57610100808354040283529160200191610527565b820191906000526020600020905b81548152906001019060200180831161050a57829003601f168201915b505050505081565b6007805461053c90612956565b80601f016020809104026020016040519081016040528092919081815260200182805461056890612956565b80156105b55780601f1061058a576101008083540402835291602001916105b5565b820191906000526020600020905b81548152906001019060200180831161059857829003601f168201915b505050505081565b6060600780546105cc90612956565b80601f01602080910402602001604051908101604052809291908181526020018280546105f890612956565b80156106455780601f1061061a57610100808354040283529160200191610645565b820191906000526020600020905b81548152906001019060200180831161062857829003601f168201915b50505050509050919050565b600360019054906101000a900460ff1661067b57600360009054906101000a900460ff1615610684565b610683610c56565b5b6106c3576040517f08c379a00000000000000000000000000000000000000000000000000000000081526004016106ba906125f6565b60405180910390fd5b6000600360019054906101000a900460ff161590508015610715576001600360016101000a81548160ff0219169083151502179055506001600360006101000a81548160ff0219169083151502179055505b846005908051906020019061072b929190611a51565b508360069080519060200190610742929190611a51565b5061074c83610c67565b816008819055508015610775576000600360016101000a81548160ff0219169083151502179055505b5050505050565b60085481565b61078a610c81565b73ffffffffffffffffffffffffffffffffffffffff168573ffffffffffffffffffffffffffffffffffffffff1614806107d057506107cf856107ca610c81565b610ab7565b5b61080f576040517f08c379a0000000000000000000000000000000000000000000000000000000008152600401610806906125d6565b60405180910390fd5b61081c8585858585610c89565b5050505050565b60608151835114610869576040517f08c379a000000000000000000000000000000000000000000000000000000000815260040161086090612656565b60405180910390fd5b6000835167ffffffffffffffff8111156108ac577f4e487b7100000000000000000000000000000000000000000000000000000000600052604160045260246000fd5b6040519080825280602002602001820160405280156108da5781602001602082028036833780820191505090505b50905060005b84518110156109c957610973858281518110610925577f4e487b7100000000000000000000000000000000000000000000000000000000600052603260045260246000fd5b6020026020010151858381518110610966577f4e487b7100000000000000000000000000000000000000000000000000000000600052603260045260246000fd5b60200260200101516102f6565b8282815181106109ac577f4e487b7100000000000000000000000000000000000000000000000000000000600052603260045260246000fd5b602002602001018181525050806109c2906129b9565b90506108e0565b508091505092915050565b60006109e06004610fe9565b60006109ec6004610fff565b9050610a0a838260016040518060200160405280600081525061100d565b80915050919050565b60068054610a2090612956565b80601f0160208091040260200160405190810160405280929190818152602001828054610a4c90612956565b8015610a995780601f10610a6e57610100808354040283529160200191610a99565b820191906000526020600020905b815481529060010190602001808311610a7c57829003601f168201915b505050505081565b610ab3610aac610c81565b83836111a3565b5050565b6000600160008473ffffffffffffffffffffffffffffffffffffffff1673ffffffffffffffffffffffffffffffffffffffff16815260200190815260200160002060008373ffffffffffffffffffffffffffffffffffffffff1673ffffffffffffffffffffffffffffffffffffffff16815260200190815260200160002060009054906101000a900460ff16905092915050565b610b53610c81565b73ffffffffffffffffffffffffffffffffffffffff168573ffffffffffffffffffffffffffffffffffffffff161480610b995750610b9885610b93610c81565b610ab7565b5b610bd8576040517f08c379a0000000000000000000000000000000000000000000000000000000008152600401610bcf90612596565b60405180910390fd5b610be58585858585611310565b5050505050565b60007f01ffc9a7000000000000000000000000000000000000000000000000000000007bffffffffffffffffffffffffffffffffffffffffffffffffffffffff1916827bffffffffffffffffffffffffffffffffffffffffffffffffffffffff1916149050919050565b6000610c6130611592565b15905090565b8060079080519060200190610c7d929190611a51565b5050565b600033905090565b8151835114610ccd576040517f08c379a0000000000000000000000000000000000000000000000000000000008152600401610cc490612676565b60405180910390fd5b600073ffffffffffffffffffffffffffffffffffffffff168473ffffffffffffffffffffffffffffffffffffffff161415610d3d576040517f08c379a0000000000000000000000000000000000000000000000000000000008152600401610d34906125b6565b60405180910390fd5b6000610d47610c81565b9050610d578187878787876115b5565b60005b8451811015610f54576000858281518110610d9e577f4e487b7100000000000000000000000000000000000000000000000000000000600052603260045260246000fd5b602002602001015190506000858381518110610de3577f4e487b7100000000000000000000000000000000000000000000000000000000600052603260045260246000fd5b60200260200101519050600080600084815260200190815260200160002060008b73ffffffffffffffffffffffffffffffffffffffff1673ffffffffffffffffffffffffffffffffffffffff16815260200190815260200160002054905081811015610e84576040517f08c379a0000000000000000000000000000000000000000000000000000000008152600401610e7b90612616565b60405180910390fd5b81810360008085815260200190815260200160002060008c73ffffffffffffffffffffffffffffffffffffffff1673ffffffffffffffffffffffffffffffffffffffff168152602001908152602001600020819055508160008085815260200190815260200160002060008b73ffffffffffffffffffffffffffffffffffffffff1673ffffffffffffffffffffffffffffffffffffffff1681526020019081526020016000206000828254610f39919061284a565b9250508190555050505080610f4d906129b9565b9050610d5a565b508473ffffffffffffffffffffffffffffffffffffffff168673ffffffffffffffffffffffffffffffffffffffff168273ffffffffffffffffffffffffffffffffffffffff167f4a39dc06d4c0dbc64b70af90fd698a233a518aa5d07e595d983b8c0526c8f7fb8787604051610fcb9291906124c2565b60405180910390a4610fe18187878787876115bd565b505050505050565b6001816000016000828254019250508190555050565b600081600001549050919050565b600073ffffffffffffffffffffffffffffffffffffffff168473ffffffffffffffffffffffffffffffffffffffff16141561107d576040517f08c379a000000000000000000000000000000000000000000000000000000000815260040161107490612696565b60405180910390fd5b6000611087610c81565b90506110a881600087611099886117a4565b6110a2886117a4565b876115b5565b8260008086815260200190815260200160002060008773ffffffffffffffffffffffffffffffffffffffff1673ffffffffffffffffffffffffffffffffffffffff1681526020019081526020016000206000828254611107919061284a565b925050819055508473ffffffffffffffffffffffffffffffffffffffff16600073ffffffffffffffffffffffffffffffffffffffff168273ffffffffffffffffffffffffffffffffffffffff167fc3d58168c5ae7397731d063d5bbf3d657854427343f4c083240f7aacaa2d0f6287876040516111859291906126d1565b60405180910390a461119c8160008787878761186a565b5050505050565b8173ffffffffffffffffffffffffffffffffffffffff168373ffffffffffffffffffffffffffffffffffffffff161415611212576040517f08c379a000000000000000000000000000000000000000000000000000000000815260040161120990612636565b60405180910390fd5b80600160008573ffffffffffffffffffffffffffffffffffffffff1673ffffffffffffffffffffffffffffffffffffffff16815260200190815260200160002060008473ffffffffffffffffffffffffffffffffffffffff1673ffffffffffffffffffffffffffffffffffffffff16815260200190815260200160002060006101000a81548160ff0219169083151502179055508173ffffffffffffffffffffffffffffffffffffffff168373ffffffffffffffffffffffffffffffffffffffff167f17307eab39ab6107e8899845ad3d59bd9653f200f220920489ca2b5937696c318360405161130391906124f9565b60405180910390a3505050565b600073ffffffffffffffffffffffffffffffffffffffff168473ffffffffffffffffffffffffffffffffffffffff161415611380576040517f08c379a0000000000000000000000000000000000000000000000000000000008152600401611377906125b6565b60405180910390fd5b600061138a610c81565b90506113aa81878761139b886117a4565b6113a4886117a4565b876115b5565b600080600086815260200190815260200160002060008873ffffffffffffffffffffffffffffffffffffffff1673ffffffffffffffffffffffffffffffffffffffff16815260200190815260200160002054905083811015611441576040517f08c379a000000000000000000000000000000000000000000000000000000000815260040161143890612616565b60405180910390fd5b83810360008087815260200190815260200160002060008973ffffffffffffffffffffffffffffffffffffffff1673ffffffffffffffffffffffffffffffffffffffff168152602001908152602001600020819055508360008087815260200190815260200160002060008873ffffffffffffffffffffffffffffffffffffffff1673ffffffffffffffffffffffffffffffffffffffff16815260200190815260200160002060008282546114f6919061284a565b925050819055508573ffffffffffffffffffffffffffffffffffffffff168773ffffffffffffffffffffffffffffffffffffffff168373ffffffffffffffffffffffffffffffffffffffff167fc3d58168c5ae7397731d063d5bbf3d657854427343f4c083240f7aacaa2d0f6288886040516115739291906126d1565b60405180910390a461158982888888888861186a565b50505050505050565b6000808273ffffffffffffffffffffffffffffffffffffffff163b119050919050565b505050505050565b6115dc8473ffffffffffffffffffffffffffffffffffffffff16611592565b1561179c578373ffffffffffffffffffffffffffffffffffffffff1663bc197c8187878686866040518663ffffffff1660e01b81526004016116229594939291906123de565b602060405180830381600087803b15801561163c57600080fd5b505af192505050801561166d57506040513d601f19601f8201168201806040525081019061166a9190612019565b60015b61171357611679612a8f565b806308c379a014156116d6575061168e612e83565b8061169957506116d8565b806040517f08c379a00000000000000000000000000000000000000000000000000000000081526004016116cd9190612514565b60405180910390fd5b505b6040517f08c379a000000000000000000000000000000000000000000000000000000000815260040161170a90612536565b60405180910390fd5b63bc197c8160e01b7bffffffffffffffffffffffffffffffffffffffffffffffffffffffff1916817bffffffffffffffffffffffffffffffffffffffffffffffffffffffff19161461179a576040517f08c379a000000000000000000000000000000000000000000000000000000000815260040161179190612556565b60405180910390fd5b505b505050505050565b60606000600167ffffffffffffffff8111156117e9577f4e487b7100000000000000000000000000000000000000000000000000000000600052604160045260246000fd5b6040519080825280602002602001820160405280156118175781602001602082028036833780820191505090505b5090508281600081518110611855577f4e487b7100000000000000000000000000000000000000000000000000000000600052603260045260246000fd5b60200260200101818152505080915050919050565b6118898473ffffffffffffffffffffffffffffffffffffffff16611592565b15611a49578373ffffffffffffffffffffffffffffffffffffffff1663f23a6e6187878686866040518663ffffffff1660e01b81526004016118cf959493929190612446565b602060405180830381600087803b1580156118e957600080fd5b505af192505050801561191a57506040513d601f19601f820116820180604052508101906119179190612019565b60015b6119c057611926612a8f565b806308c379a01415611983575061193b612e83565b806119465750611985565b806040517f08c379a000000000000000000000000000000000000000000000000000000000815260040161197a9190612514565b60405180910390fd5b505b6040517f08c379a00000000000000000000000000000000000000000000000000000000081526004016119b790612536565b60405180910390fd5b63f23a6e6160e01b7bffffffffffffffffffffffffffffffffffffffffffffffffffffffff1916817bffffffffffffffffffffffffffffffffffffffffffffffffffffffff191614611a47576040517f08c379a0000000000000000000000000000000000000000000000000000000008152600401611a3e90612556565b60405180910390fd5b505b505050505050565b828054611a5d90612956565b90600052602060002090601f016020900481019282611a7f5760008555611ac6565b82601f10611a9857805160ff1916838001178555611ac6565b82800160010185558215611ac6579182015b82811115611ac5578251825591602001919060010190611aaa565b5b509050611ad39190611ad7565b5090565b5b80821115611af0576000816000905550600101611ad8565b5090565b6000611b07611b028461271f565b6126fa565b90508083825260208201905082856020860282011115611b2657600080fd5b60005b85811015611b565781611b3c8882611c48565b845260208401935060208301925050600181019050611b29565b5050509392505050565b6000611b73611b6e8461274b565b6126fa565b90508083825260208201905082856020860282011115611b9257600080fd5b60005b85811015611bc25781611ba88882611d44565b845260208401935060208301925050600181019050611b95565b5050509392505050565b6000611bdf611bda84612777565b6126fa565b905082815260208101848484011115611bf757600080fd5b611c02848285612914565b509392505050565b6000611c1d611c18846127a8565b6126fa565b905082815260208101848484011115611c3557600080fd5b611c40848285612914565b509392505050565b600081359050611c5781612f19565b92915050565b600082601f830112611c6e57600080fd5b8135611c7e848260208601611af4565b91505092915050565b600082601f830112611c9857600080fd5b8135611ca8848260208601611b60565b91505092915050565b600081359050611cc081612f30565b92915050565b600081359050611cd581612f47565b92915050565b600081519050611cea81612f47565b92915050565b600082601f830112611d0157600080fd5b8135611d11848260208601611bcc565b91505092915050565b600082601f830112611d2b57600080fd5b8135611d3b848260208601611c0a565b91505092915050565b600081359050611d5381612f5e565b92915050565b600060208284031215611d6b57600080fd5b6000611d7984828501611c48565b91505092915050565b60008060408385031215611d9557600080fd5b6000611da385828601611c48565b9250506020611db485828601611c48565b9150509250929050565b600080600080600060a08688031215611dd657600080fd5b6000611de488828901611c48565b9550506020611df588828901611c48565b945050604086013567ffffffffffffffff811115611e1257600080fd5b611e1e88828901611c87565b935050606086013567ffffffffffffffff811115611e3b57600080fd5b611e4788828901611c87565b925050608086013567ffffffffffffffff811115611e6457600080fd5b611e7088828901611cf0565b9150509295509295909350565b600080600080600060a08688031215611e9557600080fd5b6000611ea388828901611c48565b9550506020611eb488828901611c48565b9450506040611ec588828901611d44565b9350506060611ed688828901611d44565b925050608086013567ffffffffffffffff811115611ef357600080fd5b611eff88828901611cf0565b9150509295509295909350565b60008060408385031215611f1f57600080fd5b6000611f2d85828601611c48565b9250506020611f3e85828601611cb1565b9150509250929050565b60008060408385031215611f5b57600080fd5b6000611f6985828601611c48565b9250506020611f7a85828601611d44565b9150509250929050565b60008060408385031215611f9757600080fd5b600083013567ffffffffffffffff811115611fb157600080fd5b611fbd85828601611c5d565b925050602083013567ffffffffffffffff811115611fda57600080fd5b611fe685828601611c87565b9150509250929050565b60006020828403121561200257600080fd5b600061201084828501611cc6565b91505092915050565b60006020828403121561202b57600080fd5b600061203984828501611cdb565b91505092915050565b6000806000806080858703121561205857600080fd5b600085013567ffffffffffffffff81111561207257600080fd5b61207e87828801611d1a565b945050602085013567ffffffffffffffff81111561209b57600080fd5b6120a787828801611d1a565b935050604085013567ffffffffffffffff8111156120c457600080fd5b6120d087828801611d1a565b92505060606120e187828801611d44565b91505092959194509250565b6000602082840312156120ff57600080fd5b600061210d84828501611d44565b91505092915050565b600061212283836123c0565b60208301905092915050565b612137816128a0565b82525050565b6000612148826127e9565b6121528185612817565b935061215d836127d9565b8060005b8381101561218e5781516121758882612116565b97506121808361280a565b925050600181019050612161565b5085935050505092915050565b6121a4816128b2565b82525050565b60006121b5826127f4565b6121bf8185612828565b93506121cf818560208601612923565b6121d881612ab1565b840191505092915050565b60006121ee826127ff565b6121f88185612839565b9350612208818560208601612923565b61221181612ab1565b840191505092915050565b6000612229603483612839565b915061223482612acf565b604082019050919050565b600061224c602883612839565b915061225782612b1e565b604082019050919050565b600061226f602b83612839565b915061227a82612b6d565b604082019050919050565b6000612292602983612839565b915061229d82612bbc565b604082019050919050565b60006122b5602583612839565b91506122c082612c0b565b604082019050919050565b60006122d8603283612839565b91506122e382612c5a565b604082019050919050565b60006122fb602e83612839565b915061230682612ca9565b604082019050919050565b600061231e602a83612839565b915061232982612cf8565b604082019050919050565b6000612341602983612839565b915061234c82612d47565b604082019050919050565b6000612364602983612839565b915061236f82612d96565b604082019050919050565b6000612387602883612839565b915061239282612de5565b604082019050919050565b60006123aa602183612839565b91506123b582612e34565b604082019050919050565b6123c98161290a565b82525050565b6123d88161290a565b82525050565b600060a0820190506123f3600083018861212e565b612400602083018761212e565b8181036040830152612412818661213d565b90508181036060830152612426818561213d565b9050818103608083015261243a81846121aa565b90509695505050505050565b600060a08201905061245b600083018861212e565b612468602083018761212e565b61247560408301866123cf565b61248260608301856123cf565b818103608083015261249481846121aa565b90509695505050505050565b600060208201905081810360008301526124ba818461213d565b905092915050565b600060408201905081810360008301526124dc818561213d565b905081810360208301526124f0818461213d565b90509392505050565b600060208201905061250e600083018461219b565b92915050565b6000602082019050818103600083015261252e81846121e3565b905092915050565b6000602082019050818103600083015261254f8161221c565b9050919050565b6000602082019050818103600083015261256f8161223f565b9050919050565b6000602082019050818103600083015261258f81612262565b9050919050565b600060208201905081810360008301526125af81612285565b9050919050565b600060208201905081810360008301526125cf816122a8565b9050919050565b600060208201905081810360008301526125ef816122cb565b9050919050565b6000602082019050818103600083015261260f816122ee565b9050919050565b6000602082019050818103600083015261262f81612311565b9050919050565b6000602082019050818103600083015261264f81612334565b9050919050565b6000602082019050818103600083015261266f81612357565b9050919050565b6000602082019050818103600083015261268f8161237a565b9050919050565b600060208201905081810360008301526126af8161239d565b9050919050565b60006020820190506126cb60008301846123cf565b92915050565b60006040820190506126e660008301856123cf565b6126f360208301846123cf565b9392505050565b6000612704612715565b90506127108282612988565b919050565b6000604051905090565b600067ffffffffffffffff82111561273a57612739612a60565b5b602082029050602081019050919050565b600067ffffffffffffffff82111561276657612765612a60565b5b602082029050602081019050919050565b600067ffffffffffffffff82111561279257612791612a60565b5b61279b82612ab1565b9050602081019050919050565b600067ffffffffffffffff8211156127c3576127c2612a60565b5b6127cc82612ab1565b9050602081019050919050565b6000819050602082019050919050565b600081519050919050565b600081519050919050565b600081519050919050565b6000602082019050919050565b600082825260208201905092915050565b600082825260208201905092915050565b600082825260208201905092915050565b60006128558261290a565b91506128608361290a565b9250827fffffffffffffffffffffffffffffffffffffffffffffffffffffffffffffffff0382111561289557612894612a02565b5b828201905092915050565b60006128ab826128ea565b9050919050565b60008115159050919050565b60007fffffffff0000000000000000000000000000000000000000000000000000000082169050919050565b600073ffffffffffffffffffffffffffffffffffffffff82169050919050565b6000819050919050565b82818337600083830152505050565b60005b83811015612941578082015181840152602081019050612926565b83811115612950576000848401525b50505050565b6000600282049050600182168061296e57607f821691505b6020821081141561298257612981612a31565b5b50919050565b61299182612ab1565b810181811067ffffffffffffffff821117156129b0576129af612a60565b5b80604052505050565b60006129c48261290a565b91507fffffffffffffffffffffffffffffffffffffffffffffffffffffffffffffffff8214156129f7576129f6612a02565b5b600182019050919050565b7f4e487b7100000000000000000000000000000000000000000000000000000000600052601160045260246000fd5b7f4e487b7100000000000000000000000000000000000000000000000000000000600052602260045260246000fd5b7f4e487b7100000000000000000000000000000000000000000000000000000000600052604160045260246000fd5b600060033d1115612aae5760046000803e612aab600051612ac2565b90505b90565b6000601f19601f8301169050919050565b60008160e01c9050919050565b7f455243313135353a207472616e7366657220746f206e6f6e204552433131353560008201527f526563656976657220696d706c656d656e746572000000000000000000000000602082015250565b7f455243313135353a204552433131353552656365697665722072656a6563746560008201527f6420746f6b656e73000000000000000000000000000000000000000000000000602082015250565b7f455243313135353a2062616c616e636520717565727920666f7220746865207a60008201527f65726f2061646472657373000000000000000000000000000000000000000000602082015250565b7f455243313135353a2063616c6c6572206973206e6f74206f776e6572206e6f7260008201527f20617070726f7665640000000000000000000000000000000000000000000000602082015250565b7f455243313135353a207472616e7366657220746f20746865207a65726f20616460008201527f6472657373000000000000000000000000000000000000000000000000000000602082015250565b7f455243313135353a207472616e736665722063616c6c6572206973206e6f742060008201527f6f776e6572206e6f7220617070726f7665640000000000000000000000000000602082015250565b7f496e697469616c697a61626c653a20636f6e747261637420697320616c72656160008201527f647920696e697469616c697a6564000000000000000000000000000000000000602082015250565b7f455243313135353a20696e73756666696369656e742062616c616e636520666f60008201527f72207472616e7366657200000000000000000000000000000000000000000000602082015250565b7f455243313135353a2073657474696e6720617070726f76616c2073746174757360008201527f20666f722073656c660000000000000000000000000000000000000000000000602082015250565b7f455243313135353a206163636f756e747320616e6420696473206c656e67746860008201527f206d69736d617463680000000000000000000000000000000000000000000000602082015250565b7f455243313135353a2069647320616e6420616d6f756e7473206c656e6774682060008201527f6d69736d61746368000000000000000000000000000000000000000000000000602082015250565b7f455243313135353a206d696e7420746f20746865207a65726f2061646472657360008201527f7300000000000000000000000000000000000000000000000000000000000000602082015250565b600060443d1015612e9357612f16565b612e9b612715565b60043d036004823e80513d602482011167ffffffffffffffff82111715612ec3575050612f16565b808201805167ffffffffffffffff811115612ee15750505050612f16565b80602083010160043d038501811115612efe575050505050612f16565b612f0d82602001850186612988565b82955050505050505b90565b612f22816128a0565b8114612f2d57600080fd5b50565b612f39816128b2565b8114612f4457600080fd5b50565b612f50816128be565b8114612f5b57600080fd5b50565b612f678161290a565b8114612f7257600080fd5b5056fea2646970667358221220b518c61a662684fce8f861a55930c9265b4c1a950c35ee64cde1e4678ff7eaec64736f6c63430008040033",
  "linkReferences": {},
  "deployedLinkReferences": {}
}