{
  "_format": "hh-sol-artifact-1",
  "contractName": "Record__1155",
  "sourceName": "contracts/Record__1155.sol",
  "abi": [
    {
      "anonymous": false,
      "inputs": [
        {
          "indexed": true,
          "internalType": "address",
          "name": "account",
          "type": "address"
        },
        {
          "indexed": true,
          "internalType": "address",
          "name": "operator",
          "type": "address"
        },
        {
          "indexed": false,
          "internalType": "bool",
          "name": "approved",
          "type": "bool"
        }
      ],
      "name": "ApprovalForAll",
      "type": "event"
    },
    {
      "anonymous": false,
      "inputs": [
        {
          "indexed": true,
          "internalType": "address",
          "name": "previousOwner",
          "type": "address"
        },
        {
          "indexed": true,
          "internalType": "address",
          "name": "newOwner",
          "type": "address"
        }
      ],
      "name": "OwnershipTransferred",
      "type": "event"
    },
    {
      "anonymous": false,
      "inputs": [
        {
          "indexed": true,
          "internalType": "address",
          "name": "operator",
          "type": "address"
        },
        {
          "indexed": true,
          "internalType": "address",
          "name": "from",
          "type": "address"
        },
        {
          "indexed": true,
          "internalType": "address",
          "name": "to",
          "type": "address"
        },
        {
          "indexed": false,
          "internalType": "uint256[]",
          "name": "ids",
          "type": "uint256[]"
        },
        {
          "indexed": false,
          "internalType": "uint256[]",
          "name": "values",
          "type": "uint256[]"
        }
      ],
      "name": "TransferBatch",
      "type": "event"
    },
    {
      "anonymous": false,
      "inputs": [
        {
          "indexed": true,
          "internalType": "address",
          "name": "operator",
          "type": "address"
        },
        {
          "indexed": true,
          "internalType": "address",
          "name": "from",
          "type": "address"
        },
        {
          "indexed": true,
          "internalType": "address",
          "name": "to",
          "type": "address"
        },
        {
          "indexed": false,
          "internalType": "uint256",
          "name": "id",
          "type": "uint256"
        },
        {
          "indexed": false,
          "internalType": "uint256",
          "name": "value",
          "type": "uint256"
        }
      ],
      "name": "TransferSingle",
      "type": "event"
    },
    {
      "anonymous": false,
      "inputs": [
        {
          "indexed": false,
          "internalType": "string",
          "name": "value",
          "type": "string"
        },
        {
          "indexed": true,
          "internalType": "uint256",
          "name": "id",
          "type": "uint256"
        }
      ],
      "name": "URI",
      "type": "event"
    },
    {
      "inputs": [],
      "name": "_price",
      "outputs": [
        {
          "internalType": "uint256",
          "name": "",
          "type": "uint256"
        }
      ],
      "stateMutability": "view",
      "type": "function"
    },
    {
      "inputs": [],
      "name": "_uri",
      "outputs": [
        {
          "internalType": "string",
          "name": "",
          "type": "string"
        }
      ],
      "stateMutability": "view",
      "type": "function"
    },
    {
      "inputs": [
        {
          "internalType": "address",
          "name": "account",
          "type": "address"
        },
        {
          "internalType": "uint256",
          "name": "id",
          "type": "uint256"
        }
      ],
      "name": "balanceOf",
      "outputs": [
        {
          "internalType": "uint256",
          "name": "",
          "type": "uint256"
        }
      ],
      "stateMutability": "view",
      "type": "function"
    },
    {
      "inputs": [
        {
          "internalType": "address[]",
          "name": "accounts",
          "type": "address[]"
        },
        {
          "internalType": "uint256[]",
          "name": "ids",
          "type": "uint256[]"
        }
      ],
      "name": "balanceOfBatch",
      "outputs": [
        {
          "internalType": "uint256[]",
          "name": "",
          "type": "uint256[]"
        }
      ],
      "stateMutability": "view",
      "type": "function"
    },
    {
      "inputs": [
        {
          "internalType": "string",
          "name": "name_",
          "type": "string"
        },
        {
          "internalType": "string",
          "name": "symbol_",
          "type": "string"
        },
        {
          "internalType": "string",
          "name": "uri_",
          "type": "string"
        },
        {
          "internalType": "uint256",
          "name": "price",
          "type": "uint256"
        }
      ],
      "name": "initialize",
      "outputs": [],
      "stateMutability": "nonpayable",
      "type": "function"
    },
    {
      "inputs": [
        {
          "internalType": "address",
          "name": "account",
          "type": "address"
        },
        {
          "internalType": "address",
          "name": "operator",
          "type": "address"
        }
      ],
      "name": "isApprovedForAll",
      "outputs": [
        {
          "internalType": "bool",
          "name": "",
          "type": "bool"
        }
      ],
      "stateMutability": "view",
      "type": "function"
    },
    {
      "inputs": [
        {
          "internalType": "address",
          "name": "",
          "type": "address"
        }
      ],
      "name": "isOwner",
      "outputs": [
        {
          "internalType": "bool",
          "name": "",
          "type": "bool"
        }
      ],
      "stateMutability": "view",
      "type": "function"
    },
    {
      "inputs": [
        {
          "internalType": "address",
          "name": "to",
          "type": "address"
        },
        {
          "internalType": "uint256",
          "name": "price",
          "type": "uint256"
        }
      ],
      "name": "mint",
      "outputs": [
        {
          "internalType": "uint256",
          "name": "",
          "type": "uint256"
        }
      ],
      "stateMutability": "nonpayable",
      "type": "function"
    },
    {
      "inputs": [],
      "name": "name",
      "outputs": [
        {
          "internalType": "string",
          "name": "",
          "type": "string"
        }
      ],
      "stateMutability": "view",
      "type": "function"
    },
    {
      "inputs": [],
      "name": "owner",
      "outputs": [
        {
          "internalType": "address",
          "name": "",
          "type": "address"
        }
      ],
      "stateMutability": "view",
      "type": "function"
    },
    {
      "inputs": [],
      "name": "renounceOwnership",
      "outputs": [],
      "stateMutability": "nonpayable",
      "type": "function"
    },
    {
      "inputs": [
        {
          "internalType": "address",
          "name": "from",
          "type": "address"
        },
        {
          "internalType": "address",
          "name": "to",
          "type": "address"
        },
        {
          "internalType": "uint256[]",
          "name": "ids",
          "type": "uint256[]"
        },
        {
          "internalType": "uint256[]",
          "name": "amounts",
          "type": "uint256[]"
        },
        {
          "internalType": "bytes",
          "name": "data",
          "type": "bytes"
        }
      ],
      "name": "safeBatchTransferFrom",
      "outputs": [],
      "stateMutability": "nonpayable",
      "type": "function"
    },
    {
      "inputs": [
        {
          "internalType": "address",
          "name": "from",
          "type": "address"
        },
        {
          "internalType": "address",
          "name": "to",
          "type": "address"
        },
        {
          "internalType": "uint256",
          "name": "id",
          "type": "uint256"
        },
        {
          "internalType": "uint256",
          "name": "amount",
          "type": "uint256"
        },
        {
          "internalType": "bytes",
          "name": "data",
          "type": "bytes"
        }
      ],
      "name": "safeTransferFrom",
      "outputs": [],
      "stateMutability": "nonpayable",
      "type": "function"
    },
    {
      "inputs": [
        {
          "internalType": "address",
          "name": "operator",
          "type": "address"
        },
        {
          "internalType": "bool",
          "name": "approved",
          "type": "bool"
        }
      ],
      "name": "setApprovalForAll",
      "outputs": [],
      "stateMutability": "nonpayable",
      "type": "function"
    },
    {
      "inputs": [
        {
          "internalType": "bytes4",
          "name": "interfaceId",
          "type": "bytes4"
        }
      ],
      "name": "supportsInterface",
      "outputs": [
        {
          "internalType": "bool",
          "name": "",
          "type": "bool"
        }
      ],
      "stateMutability": "view",
      "type": "function"
    },
    {
      "inputs": [],
      "name": "symbol",
      "outputs": [
        {
          "internalType": "string",
          "name": "",
          "type": "string"
        }
      ],
      "stateMutability": "view",
      "type": "function"
    },
    {
      "inputs": [
        {
          "internalType": "address",
          "name": "newOwner",
          "type": "address"
        }
      ],
      "name": "transferOwnership",
      "outputs": [],
      "stateMutability": "nonpayable",
      "type": "function"
    },
    {
      "inputs": [
        {
          "internalType": "uint256",
          "name": "",
          "type": "uint256"
        }
      ],
      "name": "uri",
      "outputs": [
        {
          "internalType": "string",
          "name": "",
          "type": "string"
        }
      ],
      "stateMutability": "view",
      "type": "function"
    }
  ],
  "bytecode": "0x60806040523480156200001157600080fd5b5062000032620000266200003860201b60201c565b6200004060201b60201c565b62000106565b600033905090565b6000600360029054906101000a900473ffffffffffffffffffffffffffffffffffffffff16905081600360026101000a81548173ffffffffffffffffffffffffffffffffffffffff021916908373ffffffffffffffffffffffffffffffffffffffff1602179055508173ffffffffffffffffffffffffffffffffffffffff168173ffffffffffffffffffffffffffffffffffffffff167f8be0079c531659141344cd1fd0a4f28419497f9722a3daafe3b4186f6b6457e060405160405180910390a35050565b61358a80620001166000396000f3fe608060405234801561001057600080fd5b50600436106101155760003560e01c806340c10f19116100a257806395d89b411161007157806395d89b41146102f4578063a22cb46514610312578063e985e9c51461032e578063f242432a1461035e578063f2fde38b1461037a57610115565b806340c10f191461026c5780634e1273f41461029c578063715018a6146102cc5780638da5cb5b146102d657610115565b80630e89341c116100e95780630e89341c146101b65780631c5d2b49146101e6578063235b6ea1146102025780632eb2c2d6146102205780632f54bf6e1461023c57610115565b8062fdd58e1461011a57806301ffc9a71461014a57806306fdde031461017a5780630dccc9ad14610198575b600080fd5b610134600480360381019061012f91906123a2565b610396565b6040516101419190612bf4565b60405180910390f35b610164600480360381019061015f919061244a565b61045f565b60405161017191906129d7565b60405180910390f35b610182610541565b60405161018f91906129f2565b60405180910390f35b6101a06105cf565b6040516101ad91906129f2565b60405180910390f35b6101d060048036038101906101cb9190612547565b61065d565b6040516101dd91906129f2565b60405180910390f35b61020060048036038101906101fb919061249c565b6106f1565b005b61020a61082c565b6040516102179190612bf4565b60405180910390f35b61023a60048036038101906102359190612218565b610832565b005b610256600480360381019061025191906121b3565b6108d3565b60405161026391906129d7565b60405180910390f35b610286600480360381019061028191906123a2565b6108f3565b6040516102939190612bf4565b60405180910390f35b6102b660048036038101906102b191906123de565b610a4c565b6040516102c3919061297e565b60405180910390f35b6102d4610bfd565b005b6102de610c85565b6040516102eb91906128a1565b60405180910390f35b6102fc610caf565b60405161030991906129f2565b60405180910390f35b61032c60048036038101906103279190612366565b610d3d565b005b610348600480360381019061034391906121dc565b610d53565b60405161035591906129d7565b60405180910390f35b610378600480360381019061037391906122d7565b610de7565b005b610394600480360381019061038f91906121b3565b610e88565b005b60008073ffffffffffffffffffffffffffffffffffffffff168373ffffffffffffffffffffffffffffffffffffffff161415610407576040517f08c379a00000000000000000000000000000000000000000000000000000000081526004016103fe90612a54565b60405180910390fd5b60008083815260200190815260200160002060008473ffffffffffffffffffffffffffffffffffffffff1673ffffffffffffffffffffffffffffffffffffffff16815260200190815260200160002054905092915050565b60007fd9b67a26000000000000000000000000000000000000000000000000000000007bffffffffffffffffffffffffffffffffffffffffffffffffffffffff1916827bffffffffffffffffffffffffffffffffffffffffffffffffffffffff1916148061052a57507f0e89341c000000000000000000000000000000000000000000000000000000007bffffffffffffffffffffffffffffffffffffffffffffffffffffffff1916827bffffffffffffffffffffffffffffffffffffffffffffffffffffffff1916145b8061053a575061053982610f80565b5b9050919050565b6005805461054e90612e94565b80601f016020809104026020016040519081016040528092919081815260200182805461057a90612e94565b80156105c75780601f1061059c576101008083540402835291602001916105c7565b820191906000526020600020905b8154815290600101906020018083116105aa57829003601f168201915b505050505081565b600780546105dc90612e94565b80601f016020809104026020016040519081016040528092919081815260200182805461060890612e94565b80156106555780601f1061062a57610100808354040283529160200191610655565b820191906000526020600020905b81548152906001019060200180831161063857829003601f168201915b505050505081565b60606007805461066c90612e94565b80601f016020809104026020016040519081016040528092919081815260200182805461069890612e94565b80156106e55780601f106106ba576101008083540402835291602001916106e5565b820191906000526020600020905b8154815290600101906020018083116106c857829003601f168201915b50505050509050919050565b600360019054906101000a900460ff1661071b57600360009054906101000a900460ff1615610724565b610723610fea565b5b610763576040517f08c379a000000000000000000000000000000000000000000000000000000000815260040161075a90612af4565b60405180910390fd5b6000600360019054906101000a900460ff1615905080156107b5576001600360016101000a81548160ff0219169083151502179055506001600360006101000a81548160ff0219169083151502179055505b84600590805190602001906107cb929190611eab565b5083600690805190602001906107e2929190611eab565b506107ec83610ffb565b816008819055506108036107fe611015565b61101d565b8015610825576000600360016101000a81548160ff0219169083151502179055505b5050505050565b60085481565b61083a611015565b73ffffffffffffffffffffffffffffffffffffffff168573ffffffffffffffffffffffffffffffffffffffff161480610880575061087f8561087a611015565b610d53565b5b6108bf576040517f08c379a00000000000000000000000000000000000000000000000000000000081526004016108b690612ad4565b60405180910390fd5b6108cc85858585856110e3565b5050505050565b60096020528060005260406000206000915054906101000a900460ff1681565b60006108fd611015565b73ffffffffffffffffffffffffffffffffffffffff1661091b610c85565b73ffffffffffffffffffffffffffffffffffffffff1614610971576040517f08c379a000000000000000000000000000000000000000000000000000000000815260040161096890612b34565b60405180910390fd5b6008548210156109b6576040517f08c379a00000000000000000000000000000000000000000000000000000000081526004016109ad90612b54565b60405180910390fd5b6109c06004611443565b60006109cc6004611459565b90506109ea8482600160405180602001604052806000815250611467565b6001600960008673ffffffffffffffffffffffffffffffffffffffff1673ffffffffffffffffffffffffffffffffffffffff16815260200190815260200160002060006101000a81548160ff0219169083151502179055508091505092915050565b60608151835114610a92576040517f08c379a0000000000000000000000000000000000000000000000000000000008152600401610a8990612b94565b60405180910390fd5b6000835167ffffffffffffffff811115610ad5577f4e487b7100000000000000000000000000000000000000000000000000000000600052604160045260246000fd5b604051908082528060200260200182016040528015610b035781602001602082028036833780820191505090505b50905060005b8451811015610bf257610b9c858281518110610b4e577f4e487b7100000000000000000000000000000000000000000000000000000000600052603260045260246000fd5b6020026020010151858381518110610b8f577f4e487b7100000000000000000000000000000000000000000000000000000000600052603260045260246000fd5b6020026020010151610396565b828281518110610bd5577f4e487b7100000000000000000000000000000000000000000000000000000000600052603260045260246000fd5b60200260200101818152505080610beb90612ef7565b9050610b09565b508091505092915050565b610c05611015565b73ffffffffffffffffffffffffffffffffffffffff16610c23610c85565b73ffffffffffffffffffffffffffffffffffffffff1614610c79576040517f08c379a0000000000000000000000000000000000000000000000000000000008152600401610c7090612b34565b60405180910390fd5b610c83600061101d565b565b6000600360029054906101000a900473ffffffffffffffffffffffffffffffffffffffff16905090565b60068054610cbc90612e94565b80601f0160208091040260200160405190810160405280929190818152602001828054610ce890612e94565b8015610d355780601f10610d0a57610100808354040283529160200191610d35565b820191906000526020600020905b815481529060010190602001808311610d1857829003601f168201915b505050505081565b610d4f610d48611015565b83836115fd565b5050565b6000600160008473ffffffffffffffffffffffffffffffffffffffff1673ffffffffffffffffffffffffffffffffffffffff16815260200190815260200160002060008373ffffffffffffffffffffffffffffffffffffffff1673ffffffffffffffffffffffffffffffffffffffff16815260200190815260200160002060009054906101000a900460ff16905092915050565b610def611015565b73ffffffffffffffffffffffffffffffffffffffff168573ffffffffffffffffffffffffffffffffffffffff161480610e355750610e3485610e2f611015565b610d53565b5b610e74576040517f08c379a0000000000000000000000000000000000000000000000000000000008152600401610e6b90612a94565b60405180910390fd5b610e81858585858561176a565b5050505050565b610e90611015565b73ffffffffffffffffffffffffffffffffffffffff16610eae610c85565b73ffffffffffffffffffffffffffffffffffffffff1614610f04576040517f08c379a0000000000000000000000000000000000000000000000000000000008152600401610efb90612b34565b60405180910390fd5b600073ffffffffffffffffffffffffffffffffffffffff168173ffffffffffffffffffffffffffffffffffffffff161415610f74576040517f08c379a0000000000000000000000000000000000000000000000000000000008152600401610f6b90612a74565b60405180910390fd5b610f7d8161101d565b50565b60007f01ffc9a7000000000000000000000000000000000000000000000000000000007bffffffffffffffffffffffffffffffffffffffffffffffffffffffff1916827bffffffffffffffffffffffffffffffffffffffffffffffffffffffff1916149050919050565b6000610ff5306119ec565b15905090565b8060079080519060200190611011929190611eab565b5050565b600033905090565b6000600360029054906101000a900473ffffffffffffffffffffffffffffffffffffffff16905081600360026101000a81548173ffffffffffffffffffffffffffffffffffffffff021916908373ffffffffffffffffffffffffffffffffffffffff1602179055508173ffffffffffffffffffffffffffffffffffffffff168173ffffffffffffffffffffffffffffffffffffffff167f8be0079c531659141344cd1fd0a4f28419497f9722a3daafe3b4186f6b6457e060405160405180910390a35050565b8151835114611127576040517f08c379a000000000000000000000000000000000000000000000000000000000815260040161111e90612bb4565b60405180910390fd5b600073ffffffffffffffffffffffffffffffffffffffff168473ffffffffffffffffffffffffffffffffffffffff161415611197576040517f08c379a000000000000000000000000000000000000000000000000000000000815260040161118e90612ab4565b60405180910390fd5b60006111a1611015565b90506111b1818787878787611a0f565b60005b84518110156113ae5760008582815181106111f8577f4e487b7100000000000000000000000000000000000000000000000000000000600052603260045260246000fd5b60200260200101519050600085838151811061123d577f4e487b7100000000000000000000000000000000000000000000000000000000600052603260045260246000fd5b60200260200101519050600080600084815260200190815260200160002060008b73ffffffffffffffffffffffffffffffffffffffff1673ffffffffffffffffffffffffffffffffffffffff168152602001908152602001600020549050818110156112de576040517f08c379a00000000000000000000000000000000000000000000000000000000081526004016112d590612b14565b60405180910390fd5b81810360008085815260200190815260200160002060008c73ffffffffffffffffffffffffffffffffffffffff1673ffffffffffffffffffffffffffffffffffffffff168152602001908152602001600020819055508160008085815260200190815260200160002060008b73ffffffffffffffffffffffffffffffffffffffff1673ffffffffffffffffffffffffffffffffffffffff16815260200190815260200160002060008282546113939190612d88565b92505081905550505050806113a790612ef7565b90506111b4565b508473ffffffffffffffffffffffffffffffffffffffff168673ffffffffffffffffffffffffffffffffffffffff168273ffffffffffffffffffffffffffffffffffffffff167f4a39dc06d4c0dbc64b70af90fd698a233a518aa5d07e595d983b8c0526c8f7fb87876040516114259291906129a0565b60405180910390a461143b818787878787611a17565b505050505050565b6001816000016000828254019250508190555050565b600081600001549050919050565b600073ffffffffffffffffffffffffffffffffffffffff168473ffffffffffffffffffffffffffffffffffffffff1614156114d7576040517f08c379a00000000000000000000000000000000000000000000000000000000081526004016114ce90612bd4565b60405180910390fd5b60006114e1611015565b9050611502816000876114f388611bfe565b6114fc88611bfe565b87611a0f565b8260008086815260200190815260200160002060008773ffffffffffffffffffffffffffffffffffffffff1673ffffffffffffffffffffffffffffffffffffffff16815260200190815260200160002060008282546115619190612d88565b925050819055508473ffffffffffffffffffffffffffffffffffffffff16600073ffffffffffffffffffffffffffffffffffffffff168273ffffffffffffffffffffffffffffffffffffffff167fc3d58168c5ae7397731d063d5bbf3d657854427343f4c083240f7aacaa2d0f6287876040516115df929190612c0f565b60405180910390a46115f681600087878787611cc4565b5050505050565b8173ffffffffffffffffffffffffffffffffffffffff168373ffffffffffffffffffffffffffffffffffffffff16141561166c576040517f08c379a000000000000000000000000000000000000000000000000000000000815260040161166390612b74565b60405180910390fd5b80600160008573ffffffffffffffffffffffffffffffffffffffff1673ffffffffffffffffffffffffffffffffffffffff16815260200190815260200160002060008473ffffffffffffffffffffffffffffffffffffffff1673ffffffffffffffffffffffffffffffffffffffff16815260200190815260200160002060006101000a81548160ff0219169083151502179055508173ffffffffffffffffffffffffffffffffffffffff168373ffffffffffffffffffffffffffffffffffffffff167f17307eab39ab6107e8899845ad3d59bd9653f200f220920489ca2b5937696c318360405161175d91906129d7565b60405180910390a3505050565b600073ffffffffffffffffffffffffffffffffffffffff168473ffffffffffffffffffffffffffffffffffffffff1614156117da576040517f08c379a00000000000000000000000000000000000000000000000000000000081526004016117d190612ab4565b60405180910390fd5b60006117e4611015565b90506118048187876117f588611bfe565b6117fe88611bfe565b87611a0f565b600080600086815260200190815260200160002060008873ffffffffffffffffffffffffffffffffffffffff1673ffffffffffffffffffffffffffffffffffffffff1681526020019081526020016000205490508381101561189b576040517f08c379a000000000000000000000000000000000000000000000000000000000815260040161189290612b14565b60405180910390fd5b83810360008087815260200190815260200160002060008973ffffffffffffffffffffffffffffffffffffffff1673ffffffffffffffffffffffffffffffffffffffff168152602001908152602001600020819055508360008087815260200190815260200160002060008873ffffffffffffffffffffffffffffffffffffffff1673ffffffffffffffffffffffffffffffffffffffff16815260200190815260200160002060008282546119509190612d88565b925050819055508573ffffffffffffffffffffffffffffffffffffffff168773ffffffffffffffffffffffffffffffffffffffff168373ffffffffffffffffffffffffffffffffffffffff167fc3d58168c5ae7397731d063d5bbf3d657854427343f4c083240f7aacaa2d0f6288886040516119cd929190612c0f565b60405180910390a46119e3828888888888611cc4565b50505050505050565b6000808273ffffffffffffffffffffffffffffffffffffffff163b119050919050565b505050505050565b611a368473ffffffffffffffffffffffffffffffffffffffff166119ec565b15611bf6578373ffffffffffffffffffffffffffffffffffffffff1663bc197c8187878686866040518663ffffffff1660e01b8152600401611a7c9594939291906128bc565b602060405180830381600087803b158015611a9657600080fd5b505af1925050508015611ac757506040513d601f19601f82011682018060405250810190611ac49190612473565b60015b611b6d57611ad3612fcd565b806308c379a01415611b305750611ae8613462565b80611af35750611b32565b806040517f08c379a0000000000000000000000000000000000000000000000000000000008152600401611b2791906129f2565b60405180910390fd5b505b6040517f08c379a0000000000000000000000000000000000000000000000000000000008152600401611b6490612a14565b60405180910390fd5b63bc197c8160e01b7bffffffffffffffffffffffffffffffffffffffffffffffffffffffff1916817bffffffffffffffffffffffffffffffffffffffffffffffffffffffff191614611bf4576040517f08c379a0000000000000000000000000000000000000000000000000000000008152600401611beb90612a34565b60405180910390fd5b505b505050505050565b60606000600167ffffffffffffffff811115611c43577f4e487b7100000000000000000000000000000000000000000000000000000000600052604160045260246000fd5b604051908082528060200260200182016040528015611c715781602001602082028036833780820191505090505b5090508281600081518110611caf577f4e487b7100000000000000000000000000000000000000000000000000000000600052603260045260246000fd5b60200260200101818152505080915050919050565b611ce38473ffffffffffffffffffffffffffffffffffffffff166119ec565b15611ea3578373ffffffffffffffffffffffffffffffffffffffff1663f23a6e6187878686866040518663ffffffff1660e01b8152600401611d29959493929190612924565b602060405180830381600087803b158015611d4357600080fd5b505af1925050508015611d7457506040513d601f19601f82011682018060405250810190611d719190612473565b60015b611e1a57611d80612fcd565b806308c379a01415611ddd5750611d95613462565b80611da05750611ddf565b806040517f08c379a0000000000000000000000000000000000000000000000000000000008152600401611dd491906129f2565b60405180910390fd5b505b6040517f08c379a0000000000000000000000000000000000000000000000000000000008152600401611e1190612a14565b60405180910390fd5b63f23a6e6160e01b7bffffffffffffffffffffffffffffffffffffffffffffffffffffffff1916817bffffffffffffffffffffffffffffffffffffffffffffffffffffffff191614611ea1576040517f08c379a0000000000000000000000000000000000000000000000000000000008152600401611e9890612a34565b60405180910390fd5b505b505050505050565b828054611eb790612e94565b90600052602060002090601f016020900481019282611ed95760008555611f20565b82601f10611ef257805160ff1916838001178555611f20565b82800160010185558215611f20579182015b82811115611f1f578251825591602001919060010190611f04565b5b509050611f2d9190611f31565b5090565b5b80821115611f4a576000816000905550600101611f32565b5090565b6000611f61611f5c84612c5d565b612c38565b90508083825260208201905082856020860282011115611f8057600080fd5b60005b85811015611fb05781611f9688826120a2565b845260208401935060208301925050600181019050611f83565b5050509392505050565b6000611fcd611fc884612c89565b612c38565b90508083825260208201905082856020860282011115611fec57600080fd5b60005b8581101561201c5781612002888261219e565b845260208401935060208301925050600181019050611fef565b5050509392505050565b600061203961203484612cb5565b612c38565b90508281526020810184848401111561205157600080fd5b61205c848285612e52565b509392505050565b600061207761207284612ce6565b612c38565b90508281526020810184848401111561208f57600080fd5b61209a848285612e52565b509392505050565b6000813590506120b1816134f8565b92915050565b600082601f8301126120c857600080fd5b81356120d8848260208601611f4e565b91505092915050565b600082601f8301126120f257600080fd5b8135612102848260208601611fba565b91505092915050565b60008135905061211a8161350f565b92915050565b60008135905061212f81613526565b92915050565b60008151905061214481613526565b92915050565b600082601f83011261215b57600080fd5b813561216b848260208601612026565b91505092915050565b600082601f83011261218557600080fd5b8135612195848260208601612064565b91505092915050565b6000813590506121ad8161353d565b92915050565b6000602082840312156121c557600080fd5b60006121d3848285016120a2565b91505092915050565b600080604083850312156121ef57600080fd5b60006121fd858286016120a2565b925050602061220e858286016120a2565b9150509250929050565b600080600080600060a0868803121561223057600080fd5b600061223e888289016120a2565b955050602061224f888289016120a2565b945050604086013567ffffffffffffffff81111561226c57600080fd5b612278888289016120e1565b935050606086013567ffffffffffffffff81111561229557600080fd5b6122a1888289016120e1565b925050608086013567ffffffffffffffff8111156122be57600080fd5b6122ca8882890161214a565b9150509295509295909350565b600080600080600060a086880312156122ef57600080fd5b60006122fd888289016120a2565b955050602061230e888289016120a2565b945050604061231f8882890161219e565b93505060606123308882890161219e565b925050608086013567ffffffffffffffff81111561234d57600080fd5b6123598882890161214a565b9150509295509295909350565b6000806040838503121561237957600080fd5b6000612387858286016120a2565b92505060206123988582860161210b565b9150509250929050565b600080604083850312156123b557600080fd5b60006123c3858286016120a2565b92505060206123d48582860161219e565b9150509250929050565b600080604083850312156123f157600080fd5b600083013567ffffffffffffffff81111561240b57600080fd5b612417858286016120b7565b925050602083013567ffffffffffffffff81111561243457600080fd5b612440858286016120e1565b9150509250929050565b60006020828403121561245c57600080fd5b600061246a84828501612120565b91505092915050565b60006020828403121561248557600080fd5b600061249384828501612135565b91505092915050565b600080600080608085870312156124b257600080fd5b600085013567ffffffffffffffff8111156124cc57600080fd5b6124d887828801612174565b945050602085013567ffffffffffffffff8111156124f557600080fd5b61250187828801612174565b935050604085013567ffffffffffffffff81111561251e57600080fd5b61252a87828801612174565b925050606061253b8782880161219e565b91505092959194509250565b60006020828403121561255957600080fd5b60006125678482850161219e565b91505092915050565b600061257c8383612883565b60208301905092915050565b61259181612dde565b82525050565b60006125a282612d27565b6125ac8185612d55565b93506125b783612d17565b8060005b838110156125e85781516125cf8882612570565b97506125da83612d48565b9250506001810190506125bb565b5085935050505092915050565b6125fe81612df0565b82525050565b600061260f82612d32565b6126198185612d66565b9350612629818560208601612e61565b61263281612fef565b840191505092915050565b600061264882612d3d565b6126528185612d77565b9350612662818560208601612e61565b61266b81612fef565b840191505092915050565b6000612683603483612d77565b915061268e8261300d565b604082019050919050565b60006126a6602883612d77565b91506126b18261305c565b604082019050919050565b60006126c9602b83612d77565b91506126d4826130ab565b604082019050919050565b60006126ec602683612d77565b91506126f7826130fa565b604082019050919050565b600061270f602983612d77565b915061271a82613149565b604082019050919050565b6000612732602583612d77565b915061273d82613198565b604082019050919050565b6000612755603283612d77565b9150612760826131e7565b604082019050919050565b6000612778602e83612d77565b915061278382613236565b604082019050919050565b600061279b602a83612d77565b91506127a682613285565b604082019050919050565b60006127be602083612d77565b91506127c9826132d4565b602082019050919050565b60006127e1601e83612d77565b91506127ec826132fd565b602082019050919050565b6000612804602983612d77565b915061280f82613326565b604082019050919050565b6000612827602983612d77565b915061283282613375565b604082019050919050565b600061284a602883612d77565b9150612855826133c4565b604082019050919050565b600061286d602183612d77565b915061287882613413565b604082019050919050565b61288c81612e48565b82525050565b61289b81612e48565b82525050565b60006020820190506128b66000830184612588565b92915050565b600060a0820190506128d16000830188612588565b6128de6020830187612588565b81810360408301526128f08186612597565b905081810360608301526129048185612597565b905081810360808301526129188184612604565b90509695505050505050565b600060a0820190506129396000830188612588565b6129466020830187612588565b6129536040830186612892565b6129606060830185612892565b81810360808301526129728184612604565b90509695505050505050565b600060208201905081810360008301526129988184612597565b905092915050565b600060408201905081810360008301526129ba8185612597565b905081810360208301526129ce8184612597565b90509392505050565b60006020820190506129ec60008301846125f5565b92915050565b60006020820190508181036000830152612a0c818461263d565b905092915050565b60006020820190508181036000830152612a2d81612676565b9050919050565b60006020820190508181036000830152612a4d81612699565b9050919050565b60006020820190508181036000830152612a6d816126bc565b9050919050565b60006020820190508181036000830152612a8d816126df565b9050919050565b60006020820190508181036000830152612aad81612702565b9050919050565b60006020820190508181036000830152612acd81612725565b9050919050565b60006020820190508181036000830152612aed81612748565b9050919050565b60006020820190508181036000830152612b0d8161276b565b9050919050565b60006020820190508181036000830152612b2d8161278e565b9050919050565b60006020820190508181036000830152612b4d816127b1565b9050919050565b60006020820190508181036000830152612b6d816127d4565b9050919050565b60006020820190508181036000830152612b8d816127f7565b9050919050565b60006020820190508181036000830152612bad8161281a565b9050919050565b60006020820190508181036000830152612bcd8161283d565b9050919050565b60006020820190508181036000830152612bed81612860565b9050919050565b6000602082019050612c096000830184612892565b92915050565b6000604082019050612c246000830185612892565b612c316020830184612892565b9392505050565b6000612c42612c53565b9050612c4e8282612ec6565b919050565b6000604051905090565b600067ffffffffffffffff821115612c7857612c77612f9e565b5b602082029050602081019050919050565b600067ffffffffffffffff821115612ca457612ca3612f9e565b5b602082029050602081019050919050565b600067ffffffffffffffff821115612cd057612ccf612f9e565b5b612cd982612fef565b9050602081019050919050565b600067ffffffffffffffff821115612d0157612d00612f9e565b5b612d0a82612fef565b9050602081019050919050565b6000819050602082019050919050565b600081519050919050565b600081519050919050565b600081519050919050565b6000602082019050919050565b600082825260208201905092915050565b600082825260208201905092915050565b600082825260208201905092915050565b6000612d9382612e48565b9150612d9e83612e48565b9250827fffffffffffffffffffffffffffffffffffffffffffffffffffffffffffffffff03821115612dd357612dd2612f40565b5b828201905092915050565b6000612de982612e28565b9050919050565b60008115159050919050565b60007fffffffff0000000000000000000000000000000000000000000000000000000082169050919050565b600073ffffffffffffffffffffffffffffffffffffffff82169050919050565b6000819050919050565b82818337600083830152505050565b60005b83811015612e7f578082015181840152602081019050612e64565b83811115612e8e576000848401525b50505050565b60006002820490506001821680612eac57607f821691505b60208210811415612ec057612ebf612f6f565b5b50919050565b612ecf82612fef565b810181811067ffffffffffffffff82111715612eee57612eed612f9e565b5b80604052505050565b6000612f0282612e48565b91507fffffffffffffffffffffffffffffffffffffffffffffffffffffffffffffffff821415612f3557612f34612f40565b5b600182019050919050565b7f4e487b7100000000000000000000000000000000000000000000000000000000600052601160045260246000fd5b7f4e487b7100000000000000000000000000000000000000000000000000000000600052602260045260246000fd5b7f4e487b7100000000000000000000000000000000000000000000000000000000600052604160045260246000fd5b600060033d1115612fec5760046000803e612fe9600051613000565b90505b90565b6000601f19601f8301169050919050565b60008160e01c9050919050565b7f455243313135353a207472616e7366657220746f206e6f6e204552433131353560008201527f526563656976657220696d706c656d656e746572000000000000000000000000602082015250565b7f455243313135353a204552433131353552656365697665722072656a6563746560008201527f6420746f6b656e73000000000000000000000000000000000000000000000000602082015250565b7f455243313135353a2062616c616e636520717565727920666f7220746865207a60008201527f65726f2061646472657373000000000000000000000000000000000000000000602082015250565b7f4f776e61626c653a206e6577206f776e657220697320746865207a65726f206160008201527f6464726573730000000000000000000000000000000000000000000000000000602082015250565b7f455243313135353a2063616c6c6572206973206e6f74206f776e6572206e6f7260008201527f20617070726f7665640000000000000000000000000000000000000000000000602082015250565b7f455243313135353a207472616e7366657220746f20746865207a65726f20616460008201527f6472657373000000000000000000000000000000000000000000000000000000602082015250565b7f455243313135353a207472616e736665722063616c6c6572206973206e6f742060008201527f6f776e6572206e6f7220617070726f7665640000000000000000000000000000602082015250565b7f496e697469616c697a61626c653a20636f6e747261637420697320616c72656160008201527f647920696e697469616c697a6564000000000000000000000000000000000000602082015250565b7f455243313135353a20696e73756666696369656e742062616c616e636520666f60008201527f72207472616e7366657200000000000000000000000000000000000000000000602082015250565b7f4f776e61626c653a2063616c6c6572206973206e6f7420746865206f776e6572600082015250565b7f546865206d696e696d756d20707269636520776173206e6f74206d6574210000600082015250565b7f455243313135353a2073657474696e6720617070726f76616c2073746174757360008201527f20666f722073656c660000000000000000000000000000000000000000000000602082015250565b7f455243313135353a206163636f756e747320616e6420696473206c656e67746860008201527f206d69736d617463680000000000000000000000000000000000000000000000602082015250565b7f455243313135353a2069647320616e6420616d6f756e7473206c656e6774682060008201527f6d69736d61746368000000000000000000000000000000000000000000000000602082015250565b7f455243313135353a206d696e7420746f20746865207a65726f2061646472657360008201527f7300000000000000000000000000000000000000000000000000000000000000602082015250565b600060443d1015613472576134f5565b61347a612c53565b60043d036004823e80513d602482011167ffffffffffffffff821117156134a25750506134f5565b808201805167ffffffffffffffff8111156134c057505050506134f5565b80602083010160043d0385018111156134dd5750505050506134f5565b6134ec82602001850186612ec6565b82955050505050505b90565b61350181612dde565b811461350c57600080fd5b50565b61351881612df0565b811461352357600080fd5b50565b61352f81612dfc565b811461353a57600080fd5b50565b61354681612e48565b811461355157600080fd5b5056fea264697066735822122090f694dabcf4ccbcb42d1166aa76e393067011e78aa22e733417a64ddf992a5864736f6c63430008040033",
  "linkReferences": {},
  "deployedLinkReferences": {}
}